{
  "_format": "hh-sol-artifact-1",
  "contractName": "InvoiceNFT",
  "sourceName": "contracts/InvoiceNFT.sol",
  "abi": [
    {
      "inputs": [
        {
          "internalType": "address",
          "name": "admin",
          "type": "address"
        }
      ],
      "stateMutability": "nonpayable",
      "type": "constructor"
    },
    {
      "anonymous": false,
      "inputs": [
        {
          "indexed": true,
          "internalType": "address",
          "name": "owner",
          "type": "address"
        },
        {
          "indexed": true,
          "internalType": "address",
          "name": "approved",
          "type": "address"
        },
        {
          "indexed": true,
          "internalType": "uint256",
          "name": "tokenId",
          "type": "uint256"
        }
      ],
      "name": "Approval",
      "type": "event"
    },
    {
      "anonymous": false,
      "inputs": [
        {
          "indexed": true,
          "internalType": "address",
          "name": "owner",
          "type": "address"
        },
        {
          "indexed": true,
          "internalType": "address",
          "name": "operator",
          "type": "address"
        },
        {
          "indexed": false,
          "internalType": "bool",
          "name": "approved",
          "type": "bool"
        }
      ],
      "name": "ApprovalForAll",
      "type": "event"
    },
    {
      "anonymous": false,
      "inputs": [
        {
          "indexed": false,
          "internalType": "uint256",
          "name": "_fromTokenId",
          "type": "uint256"
        },
        {
          "indexed": false,
          "internalType": "uint256",
          "name": "_toTokenId",
          "type": "uint256"
        }
      ],
      "name": "BatchMetadataUpdate",
      "type": "event"
    },
    {
      "anonymous": false,
      "inputs": [
        {
          "indexed": true,
          "internalType": "uint256",
          "name": "tokenId",
          "type": "uint256"
        },
        {
          "indexed": true,
          "internalType": "address",
          "name": "owner",
          "type": "address"
        },
        {
          "indexed": false,
          "internalType": "uint256",
          "name": "amount",
          "type": "uint256"
        },
        {
          "indexed": false,
          "internalType": "uint256",
          "name": "dueDate",
          "type": "uint256"
        },
        {
          "indexed": false,
          "internalType": "string",
          "name": "invoiceId",
          "type": "string"
        },
        {
          "indexed": false,
          "internalType": "string",
          "name": "tokenURI",
          "type": "string"
        }
      ],
      "name": "InvoiceMinted",
      "type": "event"
    },
    {
      "anonymous": false,
      "inputs": [
        {
          "indexed": true,
          "internalType": "uint256",
          "name": "tokenId",
          "type": "uint256"
        },
        {
          "indexed": true,
          "internalType": "address",
          "name": "attestor",
          "type": "address"
        }
      ],
      "name": "InvoiceVerified",
      "type": "event"
    },
    {
      "anonymous": false,
      "inputs": [
        {
          "indexed": false,
          "internalType": "uint256",
          "name": "_tokenId",
          "type": "uint256"
        }
      ],
      "name": "MetadataUpdate",
      "type": "event"
    },
    {
      "anonymous": false,
      "inputs": [
        {
          "indexed": true,
          "internalType": "bytes32",
          "name": "role",
          "type": "bytes32"
        },
        {
          "indexed": true,
          "internalType": "bytes32",
          "name": "previousAdminRole",
          "type": "bytes32"
        },
        {
          "indexed": true,
          "internalType": "bytes32",
          "name": "newAdminRole",
          "type": "bytes32"
        }
      ],
      "name": "RoleAdminChanged",
      "type": "event"
    },
    {
      "anonymous": false,
      "inputs": [
        {
          "indexed": true,
          "internalType": "bytes32",
          "name": "role",
          "type": "bytes32"
        },
        {
          "indexed": true,
          "internalType": "address",
          "name": "account",
          "type": "address"
        },
        {
          "indexed": true,
          "internalType": "address",
          "name": "sender",
          "type": "address"
        }
      ],
      "name": "RoleGranted",
      "type": "event"
    },
    {
      "anonymous": false,
      "inputs": [
        {
          "indexed": true,
          "internalType": "bytes32",
          "name": "role",
          "type": "bytes32"
        },
        {
          "indexed": true,
          "internalType": "address",
          "name": "account",
          "type": "address"
        },
        {
          "indexed": true,
          "internalType": "address",
          "name": "sender",
          "type": "address"
        }
      ],
      "name": "RoleRevoked",
      "type": "event"
    },
    {
      "anonymous": false,
      "inputs": [
        {
          "indexed": true,
          "internalType": "address",
          "name": "from",
          "type": "address"
        },
        {
          "indexed": true,
          "internalType": "address",
          "name": "to",
          "type": "address"
        },
        {
          "indexed": true,
          "internalType": "uint256",
          "name": "tokenId",
          "type": "uint256"
        }
      ],
      "name": "Transfer",
      "type": "event"
    },
    {
      "inputs": [],
      "name": "ATTESTOR_ROLE",
      "outputs": [
        {
          "internalType": "bytes32",
          "name": "",
          "type": "bytes32"
        }
      ],
      "stateMutability": "view",
      "type": "function"
    },
    {
      "inputs": [],
      "name": "DEFAULT_ADMIN_ROLE",
      "outputs": [
        {
          "internalType": "bytes32",
          "name": "",
          "type": "bytes32"
        }
      ],
      "stateMutability": "view",
      "type": "function"
    },
    {
      "inputs": [
        {
          "internalType": "address",
          "name": "account",
          "type": "address"
        }
      ],
      "name": "addAttestor",
      "outputs": [],
      "stateMutability": "nonpayable",
      "type": "function"
    },
    {
      "inputs": [
        {
          "internalType": "address",
          "name": "to",
          "type": "address"
        },
        {
          "internalType": "uint256",
          "name": "tokenId",
          "type": "uint256"
        }
      ],
      "name": "approve",
      "outputs": [],
      "stateMutability": "nonpayable",
      "type": "function"
    },
    {
      "inputs": [
        {
          "internalType": "address",
          "name": "owner",
          "type": "address"
        }
      ],
      "name": "balanceOf",
      "outputs": [
        {
          "internalType": "uint256",
          "name": "",
          "type": "uint256"
        }
      ],
      "stateMutability": "view",
      "type": "function"
    },
    {
      "inputs": [
        {
          "internalType": "uint256",
          "name": "tokenId",
          "type": "uint256"
        }
      ],
      "name": "getApproved",
      "outputs": [
        {
          "internalType": "address",
          "name": "",
          "type": "address"
        }
      ],
      "stateMutability": "view",
      "type": "function"
    },
    {
      "inputs": [
        {
          "internalType": "uint256",
          "name": "tokenId",
          "type": "uint256"
        }
      ],
      "name": "getInvoice",
      "outputs": [
        {
          "internalType": "uint256",
          "name": "amount",
          "type": "uint256"
        },
        {
          "internalType": "uint256",
          "name": "dueDate",
          "type": "uint256"
        },
        {
          "internalType": "string",
          "name": "invoiceId",
          "type": "string"
        },
        {
          "internalType": "bool",
          "name": "verified",
          "type": "bool"
        },
        {
          "internalType": "address",
          "name": "attestor",
          "type": "address"
        }
      ],
      "stateMutability": "view",
      "type": "function"
    },
    {
      "inputs": [
        {
          "internalType": "bytes32",
          "name": "role",
          "type": "bytes32"
        }
      ],
      "name": "getRoleAdmin",
      "outputs": [
        {
          "internalType": "bytes32",
          "name": "",
          "type": "bytes32"
        }
      ],
      "stateMutability": "view",
      "type": "function"
    },
    {
      "inputs": [
        {
          "internalType": "bytes32",
          "name": "role",
          "type": "bytes32"
        },
        {
          "internalType": "address",
          "name": "account",
          "type": "address"
        }
      ],
      "name": "grantRole",
      "outputs": [],
      "stateMutability": "nonpayable",
      "type": "function"
    },
    {
      "inputs": [
        {
          "internalType": "bytes32",
          "name": "role",
          "type": "bytes32"
        },
        {
          "internalType": "address",
          "name": "account",
          "type": "address"
        }
      ],
      "name": "hasRole",
      "outputs": [
        {
          "internalType": "bool",
          "name": "",
          "type": "bool"
        }
      ],
      "stateMutability": "view",
      "type": "function"
    },
    {
      "inputs": [
        {
          "internalType": "address",
          "name": "owner",
          "type": "address"
        },
        {
          "internalType": "address",
          "name": "operator",
          "type": "address"
        }
      ],
      "name": "isApprovedForAll",
      "outputs": [
        {
          "internalType": "bool",
          "name": "",
          "type": "bool"
        }
      ],
      "stateMutability": "view",
      "type": "function"
    },
    {
      "inputs": [
        {
          "internalType": "address",
          "name": "to",
          "type": "address"
        },
        {
          "internalType": "uint256",
          "name": "amount",
          "type": "uint256"
        },
        {
          "internalType": "uint256",
          "name": "dueDate",
          "type": "uint256"
        },
        {
          "internalType": "string",
          "name": "invoiceId",
          "type": "string"
        },
        {
          "internalType": "string",
          "name": "uri",
          "type": "string"
        }
      ],
      "name": "mintInvoice",
      "outputs": [
        {
          "internalType": "uint256",
          "name": "",
          "type": "uint256"
        }
      ],
      "stateMutability": "nonpayable",
      "type": "function"
    },
    {
      "inputs": [],
      "name": "name",
      "outputs": [
        {
          "internalType": "string",
          "name": "",
          "type": "string"
        }
      ],
      "stateMutability": "view",
      "type": "function"
    },
    {
      "inputs": [
        {
          "internalType": "uint256",
          "name": "tokenId",
          "type": "uint256"
        }
      ],
      "name": "ownerOf",
      "outputs": [
        {
          "internalType": "address",
          "name": "",
          "type": "address"
        }
      ],
      "stateMutability": "view",
      "type": "function"
    },
    {
      "inputs": [
        {
          "internalType": "address",
          "name": "account",
          "type": "address"
        }
      ],
      "name": "removeAttestor",
      "outputs": [],
      "stateMutability": "nonpayable",
      "type": "function"
    },
    {
      "inputs": [
        {
          "internalType": "bytes32",
          "name": "role",
          "type": "bytes32"
        },
        {
          "internalType": "address",
          "name": "account",
          "type": "address"
        }
      ],
      "name": "renounceRole",
      "outputs": [],
      "stateMutability": "nonpayable",
      "type": "function"
    },
    {
      "inputs": [
        {
          "internalType": "bytes32",
          "name": "role",
          "type": "bytes32"
        },
        {
          "internalType": "address",
          "name": "account",
          "type": "address"
        }
      ],
      "name": "revokeRole",
      "outputs": [],
      "stateMutability": "nonpayable",
      "type": "function"
    },
    {
      "inputs": [
        {
          "internalType": "address",
          "name": "from",
          "type": "address"
        },
        {
          "internalType": "address",
          "name": "to",
          "type": "address"
        },
        {
          "internalType": "uint256",
          "name": "tokenId",
          "type": "uint256"
        }
      ],
      "name": "safeTransferFrom",
      "outputs": [],
      "stateMutability": "nonpayable",
      "type": "function"
    },
    {
      "inputs": [
        {
          "internalType": "address",
          "name": "from",
          "type": "address"
        },
        {
          "internalType": "address",
          "name": "to",
          "type": "address"
        },
        {
          "internalType": "uint256",
          "name": "tokenId",
          "type": "uint256"
        },
        {
          "internalType": "bytes",
          "name": "data",
          "type": "bytes"
        }
      ],
      "name": "safeTransferFrom",
      "outputs": [],
      "stateMutability": "nonpayable",
      "type": "function"
    },
    {
      "inputs": [
        {
          "internalType": "address",
          "name": "operator",
          "type": "address"
        },
        {
          "internalType": "bool",
          "name": "approved",
          "type": "bool"
        }
      ],
      "name": "setApprovalForAll",
      "outputs": [],
      "stateMutability": "nonpayable",
      "type": "function"
    },
    {
      "inputs": [
        {
          "internalType": "bytes4",
          "name": "interfaceId",
          "type": "bytes4"
        }
      ],
      "name": "supportsInterface",
      "outputs": [
        {
          "internalType": "bool",
          "name": "",
          "type": "bool"
        }
      ],
      "stateMutability": "view",
      "type": "function"
    },
    {
      "inputs": [],
      "name": "symbol",
      "outputs": [
        {
          "internalType": "string",
          "name": "",
          "type": "string"
        }
      ],
      "stateMutability": "view",
      "type": "function"
    },
    {
      "inputs": [
        {
          "internalType": "uint256",
          "name": "tokenId",
          "type": "uint256"
        }
      ],
      "name": "tokenURI",
      "outputs": [
        {
          "internalType": "string",
          "name": "",
          "type": "string"
        }
      ],
      "stateMutability": "view",
      "type": "function"
    },
    {
      "inputs": [
        {
          "internalType": "address",
          "name": "from",
          "type": "address"
        },
        {
          "internalType": "address",
          "name": "to",
          "type": "address"
        },
        {
          "internalType": "uint256",
          "name": "tokenId",
          "type": "uint256"
        }
      ],
      "name": "transferFrom",
      "outputs": [],
      "stateMutability": "nonpayable",
      "type": "function"
    },
    {
      "inputs": [
        {
          "internalType": "uint256",
          "name": "tokenId",
          "type": "uint256"
        }
      ],
      "name": "verifyInvoice",
      "outputs": [],
      "stateMutability": "nonpayable",
      "type": "function"
    }
  ],
  "bytecode": "0x60806040523480156200001157600080fd5b50604051620048de380380620048de833981810160405281019062000037919062000307565b6040518060400160405280600a81526020017f496e766f6963654e4654000000000000000000000000000000000000000000008152506040518060400160405280600481526020017f494e564f000000000000000000000000000000000000000000000000000000008152508160009081620000b49190620005b3565b508060019081620000c69190620005b3565b5050506200011b6000801b600073ffffffffffffffffffffffffffffffffffffffff168373ffffffffffffffffffffffffffffffffffffffff16146200010d57826200010f565b335b6200012260201b60201c565b506200069a565b6200013482826200013860201b60201c565b5050565b6200014a82826200022a60201b60201c565b620002265760016007600084815260200190815260200160002060000160008373ffffffffffffffffffffffffffffffffffffffff1673ffffffffffffffffffffffffffffffffffffffff16815260200190815260200160002060006101000a81548160ff021916908315150217905550620001cb6200029560201b60201c565b73ffffffffffffffffffffffffffffffffffffffff168173ffffffffffffffffffffffffffffffffffffffff16837f2f8788117e7eff1d82e926ec794901d17c78024a50270940304540a733656f0d60405160405180910390a45b5050565b60006007600084815260200190815260200160002060000160008373ffffffffffffffffffffffffffffffffffffffff1673ffffffffffffffffffffffffffffffffffffffff16815260200190815260200160002060009054906101000a900460ff16905092915050565b600033905090565b600080fd5b600073ffffffffffffffffffffffffffffffffffffffff82169050919050565b6000620002cf82620002a2565b9050919050565b620002e181620002c2565b8114620002ed57600080fd5b50565b6000815190506200030181620002d6565b92915050565b60006020828403121562000320576200031f6200029d565b5b60006200033084828501620002f0565b91505092915050565b600081519050919050565b7f4e487b7100000000000000000000000000000000000000000000000000000000600052604160045260246000fd5b7f4e487b7100000000000000000000000000000000000000000000000000000000600052602260045260246000fd5b60006002820490506001821680620003bb57607f821691505b602082108103620003d157620003d062000373565b5b50919050565b60008190508160005260206000209050919050565b60006020601f8301049050919050565b600082821b905092915050565b6000600883026200043b7fffffffffffffffffffffffffffffffffffffffffffffffffffffffffffffffff82620003fc565b620004478683620003fc565b95508019841693508086168417925050509392505050565b6000819050919050565b6000819050919050565b6000620004946200048e62000488846200045f565b62000469565b6200045f565b9050919050565b6000819050919050565b620004b08362000473565b620004c8620004bf826200049b565b84845462000409565b825550505050565b600090565b620004df620004d0565b620004ec818484620004a5565b505050565b5b81811015620005145762000508600082620004d5565b600181019050620004f2565b5050565b601f82111562000563576200052d81620003d7565b6200053884620003ec565b8101602085101562000548578190505b620005606200055785620003ec565b830182620004f1565b50505b505050565b600082821c905092915050565b6000620005886000198460080262000568565b1980831691505092915050565b6000620005a3838362000575565b9150826002028217905092915050565b620005be8262000339565b67ffffffffffffffff811115620005da57620005d962000344565b5b620005e68254620003a2565b620005f382828562000518565b600060209050601f8311600181146200062b576000841562000616578287015190505b62000622858262000595565b86555062000692565b601f1984166200063b86620003d7565b60005b8281101562000665578489015182556001820191506020850194506020810190506200063e565b8683101562000685578489015162000681601f89168262000575565b8355505b6001600288020188555050505b505050505050565b61423480620006aa6000396000f3fe608060405234801561001057600080fd5b50600436106101735760003560e01c80636352211e116100de578063a22cb46511610097578063c87b56dd11610071578063c87b56dd14610470578063d547741f146104a0578063e0cae635146104bc578063e985e9c5146104d857610173565b8063a22cb4651461041c578063b391202314610438578063b88d4fde1461045457610173565b80636352211e1461032057806370a082311461035057806391d148541461038057806395d89b41146103b057806395f03546146103ce578063a217fddf146103fe57610173565b80632f2ff15d116101305780632f2ff15d1461025e57806336568abe1461027a5780633a23cc0a1461029657806342842e0e146102ca5780634c1301e9146102e6578063627236441461030257610173565b806301ffc9a71461017857806306fdde03146101a8578063081812fc146101c6578063095ea7b3146101f657806323b872dd14610212578063248a9ca31461022e575b600080fd5b610192600480360381019061018d9190612998565b610508565b60405161019f91906129e0565b60405180910390f35b6101b061051a565b6040516101bd9190612a8b565b60405180910390f35b6101e060048036038101906101db9190612ae3565b6105ac565b6040516101ed9190612b51565b60405180910390f35b610210600480360381019061020b9190612b98565b6105f2565b005b61022c60048036038101906102279190612bd8565b610709565b005b61024860048036038101906102439190612c61565b610769565b6040516102559190612c9d565b60405180910390f35b61027860048036038101906102739190612cb8565b610789565b005b610294600480360381019061028f9190612cb8565b6107aa565b005b6102b060048036038101906102ab9190612ae3565b61082d565b6040516102c1959493929190612d07565b60405180910390f35b6102e460048036038101906102df9190612bd8565b610979565b005b61030060048036038101906102fb9190612ae3565b610999565b005b61030a610b1d565b6040516103179190612c9d565b60405180910390f35b61033a60048036038101906103359190612ae3565b610b41565b6040516103479190612b51565b60405180910390f35b61036a60048036038101906103659190612d61565b610bc7565b6040516103779190612d8e565b60405180910390f35b61039a60048036038101906103959190612cb8565b610c7e565b6040516103a791906129e0565b60405180910390f35b6103b8610ce9565b6040516103c59190612a8b565b60405180910390f35b6103e860048036038101906103e39190612e0e565b610d7b565b6040516103f59190612d8e565b60405180910390f35b610406611074565b6040516104139190612c9d565b60405180910390f35b61043660048036038101906104319190612ef6565b61107b565b005b610452600480360381019061044d9190612d61565b611091565b005b61046e60048036038101906104699190613066565b61110a565b005b61048a60048036038101906104859190612ae3565b61116c565b6040516104979190612a8b565b60405180910390f35b6104ba60048036038101906104b59190612cb8565b61127e565b005b6104d660048036038101906104d19190612d61565b61129f565b005b6104f260048036038101906104ed91906130e9565b611318565b6040516104ff91906129e0565b60405180910390f35b6000610513826113ac565b9050919050565b60606000805461052990613158565b80601f016020809104026020016040519081016040528092919081815260200182805461055590613158565b80156105a25780601f10610577576101008083540402835291602001916105a2565b820191906000526020600020905b81548152906001019060200180831161058557829003601f168201915b5050505050905090565b60006105b782611426565b6004600083815260200190815260200160002060009054906101000a900473ffffffffffffffffffffffffffffffffffffffff169050919050565b60006105fd82610b41565b90508073ffffffffffffffffffffffffffffffffffffffff168373ffffffffffffffffffffffffffffffffffffffff160361066d576040517f08c379a0000000000000000000000000000000000000000000000000000000008152600401610664906131fb565b60405180910390fd5b8073ffffffffffffffffffffffffffffffffffffffff1661068c611471565b73ffffffffffffffffffffffffffffffffffffffff1614806106bb57506106ba816106b5611471565b611318565b5b6106fa576040517f08c379a00000000000000000000000000000000000000000000000000000000081526004016106f19061328d565b60405180910390fd5b6107048383611479565b505050565b61071a610714611471565b82611532565b610759576040517f08c379a00000000000000000000000000000000000000000000000000000000081526004016107509061331f565b60405180910390fd5b6107648383836115c7565b505050565b600060076000838152602001908152602001600020600101549050919050565b61079282610769565b61079b816118c0565b6107a583836118d4565b505050565b6107b2611471565b73ffffffffffffffffffffffffffffffffffffffff168173ffffffffffffffffffffffffffffffffffffffff161461081f576040517f08c379a0000000000000000000000000000000000000000000000000000000008152600401610816906133b1565b60405180910390fd5b61082982826119b5565b5050565b600080606060008061083e86611a97565b61087d576040517f08c379a00000000000000000000000000000000000000000000000000000000081526004016108749061341d565b60405180910390fd5b600060096000888152602001908152602001600020905080600001548160010154826002018360030160009054906101000a900460ff168460030160019054906101000a900473ffffffffffffffffffffffffffffffffffffffff168280546108e590613158565b80601f016020809104026020016040519081016040528092919081815260200182805461091190613158565b801561095e5780601f106109335761010080835404028352916020019161095e565b820191906000526020600020905b81548152906001019060200180831161094157829003601f168201915b50505050509250955095509550955095505091939590929450565b6109948383836040518060200160405280600081525061110a565b505050565b7fa7e0cd0f2772b23ee4c329892293a6bd99d48c306b094d6d008c9a8bb8b731e46109c3816118c0565b6109cc82611a97565b610a0b576040517f08c379a0000000000000000000000000000000000000000000000000000000008152600401610a0290613489565b60405180910390fd5b60006009600084815260200190815260200160002090508060030160009054906101000a900460ff1615610a74576040517f08c379a0000000000000000000000000000000000000000000000000000000008152600401610a6b906134f5565b60405180910390fd5b60018160030160006101000a81548160ff021916908315150217905550338160030160016101000a81548173ffffffffffffffffffffffffffffffffffffffff021916908373ffffffffffffffffffffffffffffffffffffffff1602179055503373ffffffffffffffffffffffffffffffffffffffff16837f5f335aeb90296421c78d3bdc1af9043846ad4773cee0a0d0d909915726b30a5860405160405180910390a3505050565b7fa7e0cd0f2772b23ee4c329892293a6bd99d48c306b094d6d008c9a8bb8b731e481565b600080610b4d83611ad8565b9050600073ffffffffffffffffffffffffffffffffffffffff168173ffffffffffffffffffffffffffffffffffffffff1603610bbe576040517f08c379a0000000000000000000000000000000000000000000000000000000008152600401610bb590613561565b60405180910390fd5b80915050919050565b60008073ffffffffffffffffffffffffffffffffffffffff168273ffffffffffffffffffffffffffffffffffffffff1603610c37576040517f08c379a0000000000000000000000000000000000000000000000000000000008152600401610c2e906135f3565b60405180910390fd5b600360008373ffffffffffffffffffffffffffffffffffffffff1673ffffffffffffffffffffffffffffffffffffffff168152602001908152602001600020549050919050565b60006007600084815260200190815260200160002060000160008373ffffffffffffffffffffffffffffffffffffffff1673ffffffffffffffffffffffffffffffffffffffff16815260200190815260200160002060009054906101000a900460ff16905092915050565b606060018054610cf890613158565b80601f0160208091040260200160405190810160405280929190818152602001828054610d2490613158565b8015610d715780601f10610d4657610100808354040283529160200191610d71565b820191906000526020600020905b815481529060010190602001808311610d5457829003601f168201915b5050505050905090565b60008073ffffffffffffffffffffffffffffffffffffffff168873ffffffffffffffffffffffffffffffffffffffff1603610deb576040517f08c379a0000000000000000000000000000000000000000000000000000000008152600401610de29061365f565b60405180910390fd5b60008711610e2e576040517f08c379a0000000000000000000000000000000000000000000000000000000008152600401610e25906136cb565b60405180910390fd5b428611610e70576040517f08c379a0000000000000000000000000000000000000000000000000000000008152600401610e6790613737565b60405180910390fd5b610e7a6008611b15565b6000610e866008611b2b565b9050610e928982611b39565b610ee08185858080601f016020809104026020016040519081016040528093929190818152602001838380828437600081840152601f19601f82011690508083019250505050505050611b57565b6040518060a0016040528089815260200188815260200187878080601f016020809104026020016040519081016040528093929190818152602001838380828437600081840152601f19601f820116905080830192505050505050508152602001600015158152602001600073ffffffffffffffffffffffffffffffffffffffff168152506009600083815260200190815260200160002060008201518160000155602082015181600101556040820151816002019081610fa19190613903565b5060608201518160030160006101000a81548160ff02191690831515021790555060808201518160030160016101000a81548173ffffffffffffffffffffffffffffffffffffffff021916908373ffffffffffffffffffffffffffffffffffffffff1602179055509050508873ffffffffffffffffffffffffffffffffffffffff16817faf7757d6529014d19b409d155b1022d142ea3de8758f40e45b9a65d7360759d98a8a8a8a8a8a60405161105d96959493929190613a02565b60405180910390a380915050979650505050505050565b6000801b81565b61108d611086611471565b8383611bfb565b5050565b61109e6000801b33610c7e565b6110dd576040517f08c379a00000000000000000000000000000000000000000000000000000000081526004016110d490613aa5565b60405180910390fd5b6111077fa7e0cd0f2772b23ee4c329892293a6bd99d48c306b094d6d008c9a8bb8b731e48261127e565b50565b61111b611115611471565b83611532565b61115a576040517f08c379a00000000000000000000000000000000000000000000000000000000081526004016111519061331f565b60405180910390fd5b61116684848484611d67565b50505050565b606061117782611426565b600060066000848152602001908152602001600020805461119790613158565b80601f01602080910402602001604051908101604052809291908181526020018280546111c390613158565b80156112105780601f106111e557610100808354040283529160200191611210565b820191906000526020600020905b8154815290600101906020018083116111f357829003601f168201915b505050505090506000611221611dc3565b90506000815103611236578192505050611279565b60008251111561126b578082604051602001611253929190613b01565b60405160208183030381529060405292505050611279565b61127484611dda565b925050505b919050565b61128782610769565b611290816118c0565b61129a83836119b5565b505050565b6112ac6000801b33610c7e565b6112eb576040517f08c379a00000000000000000000000000000000000000000000000000000000081526004016112e290613aa5565b60405180910390fd5b6113157fa7e0cd0f2772b23ee4c329892293a6bd99d48c306b094d6d008c9a8bb8b731e482610789565b50565b6000600560008473ffffffffffffffffffffffffffffffffffffffff1673ffffffffffffffffffffffffffffffffffffffff16815260200190815260200160002060008373ffffffffffffffffffffffffffffffffffffffff1673ffffffffffffffffffffffffffffffffffffffff16815260200190815260200160002060009054906101000a900460ff16905092915050565b60007f7965db0b000000000000000000000000000000000000000000000000000000007bffffffffffffffffffffffffffffffffffffffffffffffffffffffff1916827bffffffffffffffffffffffffffffffffffffffffffffffffffffffff1916148061141f575061141e82611e42565b5b9050919050565b61142f81611a97565b61146e576040517f08c379a000000000000000000000000000000000000000000000000000000000815260040161146590613561565b60405180910390fd5b50565b600033905090565b816004600083815260200190815260200160002060006101000a81548173ffffffffffffffffffffffffffffffffffffffff021916908373ffffffffffffffffffffffffffffffffffffffff160217905550808273ffffffffffffffffffffffffffffffffffffffff166114ec83610b41565b73ffffffffffffffffffffffffffffffffffffffff167f8c5be1e5ebec7d5bd14f71427d1e84f3dd0314c0f7b2291e5b200ac8c7c3b92560405160405180910390a45050565b60008061153e83610b41565b90508073ffffffffffffffffffffffffffffffffffffffff168473ffffffffffffffffffffffffffffffffffffffff161480611580575061157f8185611318565b5b806115be57508373ffffffffffffffffffffffffffffffffffffffff166115a6846105ac565b73ffffffffffffffffffffffffffffffffffffffff16145b91505092915050565b8273ffffffffffffffffffffffffffffffffffffffff166115e782610b41565b73ffffffffffffffffffffffffffffffffffffffff161461163d576040517f08c379a000000000000000000000000000000000000000000000000000000000815260040161163490613b97565b60405180910390fd5b600073ffffffffffffffffffffffffffffffffffffffff168273ffffffffffffffffffffffffffffffffffffffff16036116ac576040517f08c379a00000000000000000000000000000000000000000000000000000000081526004016116a390613c29565b60405180910390fd5b6116b98383836001611ea3565b8273ffffffffffffffffffffffffffffffffffffffff166116d982610b41565b73ffffffffffffffffffffffffffffffffffffffff161461172f576040517f08c379a000000000000000000000000000000000000000000000000000000000815260040161172690613b97565b60405180910390fd5b6004600082815260200190815260200160002060006101000a81549073ffffffffffffffffffffffffffffffffffffffff02191690556001600360008573ffffffffffffffffffffffffffffffffffffffff1673ffffffffffffffffffffffffffffffffffffffff168152602001908152602001600020600082825403925050819055506001600360008473ffffffffffffffffffffffffffffffffffffffff1673ffffffffffffffffffffffffffffffffffffffff16815260200190815260200160002060008282540192505081905550816002600083815260200190815260200160002060006101000a81548173ffffffffffffffffffffffffffffffffffffffff021916908373ffffffffffffffffffffffffffffffffffffffff160217905550808273ffffffffffffffffffffffffffffffffffffffff168473ffffffffffffffffffffffffffffffffffffffff167fddf252ad1be2c89b69c2b068fc378daa952ba7f163c4a11628f55a4df523b3ef60405160405180910390a46118bb8383836001611ea9565b505050565b6118d1816118cc611471565b611eaf565b50565b6118de8282610c7e565b6119b15760016007600084815260200190815260200160002060000160008373ffffffffffffffffffffffffffffffffffffffff1673ffffffffffffffffffffffffffffffffffffffff16815260200190815260200160002060006101000a81548160ff021916908315150217905550611956611471565b73ffffffffffffffffffffffffffffffffffffffff168173ffffffffffffffffffffffffffffffffffffffff16837f2f8788117e7eff1d82e926ec794901d17c78024a50270940304540a733656f0d60405160405180910390a45b5050565b6119bf8282610c7e565b15611a935760006007600084815260200190815260200160002060000160008373ffffffffffffffffffffffffffffffffffffffff1673ffffffffffffffffffffffffffffffffffffffff16815260200190815260200160002060006101000a81548160ff021916908315150217905550611a38611471565b73ffffffffffffffffffffffffffffffffffffffff168173ffffffffffffffffffffffffffffffffffffffff16837ff6391f5c32d9c69d2a47ea670b442974b53935d1edc7fd64eb21e047a839171b60405160405180910390a45b5050565b60008073ffffffffffffffffffffffffffffffffffffffff16611ab983611ad8565b73ffffffffffffffffffffffffffffffffffffffff1614159050919050565b60006002600083815260200190815260200160002060009054906101000a900473ffffffffffffffffffffffffffffffffffffffff169050919050565b6001816000016000828254019250508190555050565b600081600001549050919050565b611b53828260405180602001604052806000815250611f34565b5050565b611b6082611a97565b611b9f576040517f08c379a0000000000000000000000000000000000000000000000000000000008152600401611b9690613cbb565b60405180910390fd5b80600660008481526020019081526020016000209081611bbf9190613903565b507ff8e1a15aba9398e019f0b49df1a4fde98ee17ae345cb5f6b5e2c27f5033e8ce782604051611bef9190612d8e565b60405180910390a15050565b8173ffffffffffffffffffffffffffffffffffffffff168373ffffffffffffffffffffffffffffffffffffffff1603611c69576040517f08c379a0000000000000000000000000000000000000000000000000000000008152600401611c6090613d27565b60405180910390fd5b80600560008573ffffffffffffffffffffffffffffffffffffffff1673ffffffffffffffffffffffffffffffffffffffff16815260200190815260200160002060008473ffffffffffffffffffffffffffffffffffffffff1673ffffffffffffffffffffffffffffffffffffffff16815260200190815260200160002060006101000a81548160ff0219169083151502179055508173ffffffffffffffffffffffffffffffffffffffff168373ffffffffffffffffffffffffffffffffffffffff167f17307eab39ab6107e8899845ad3d59bd9653f200f220920489ca2b5937696c3183604051611d5a91906129e0565b60405180910390a3505050565b611d728484846115c7565b611d7e84848484611f8f565b611dbd576040517f08c379a0000000000000000000000000000000000000000000000000000000008152600401611db490613db9565b60405180910390fd5b50505050565b606060405180602001604052806000815250905090565b6060611de582611426565b6000611def611dc3565b90506000815111611e0f5760405180602001604052806000815250611e3a565b80611e1984612116565b604051602001611e2a929190613b01565b6040516020818303038152906040525b915050919050565b6000634906490660e01b7bffffffffffffffffffffffffffffffffffffffffffffffffffffffff1916827bffffffffffffffffffffffffffffffffffffffffffffffffffffffff19161480611e9c5750611e9b826121e4565b5b9050919050565b50505050565b50505050565b611eb98282610c7e565b611f3057611ec6816122c6565b611ed48360001c60206122f3565b604051602001611ee5929190613e71565b6040516020818303038152906040526040517f08c379a0000000000000000000000000000000000000000000000000000000008152600401611f279190612a8b565b60405180910390fd5b5050565b611f3e838361252f565b611f4b6000848484611f8f565b611f8a576040517f08c379a0000000000000000000000000000000000000000000000000000000008152600401611f8190613db9565b60405180910390fd5b505050565b6000611fb08473ffffffffffffffffffffffffffffffffffffffff1661274c565b15612109578373ffffffffffffffffffffffffffffffffffffffff1663150b7a02611fd9611471565b8786866040518563ffffffff1660e01b8152600401611ffb9493929190613f00565b6020604051808303816000875af192505050801561203757506040513d601f19601f820116820180604052508101906120349190613f61565b60015b6120b9573d8060008114612067576040519150601f19603f3d011682016040523d82523d6000602084013e61206c565b606091505b5060008151036120b1576040517f08c379a00000000000000000000000000000000000000000000000000000000081526004016120a890613db9565b60405180910390fd5b805181602001fd5b63150b7a0260e01b7bffffffffffffffffffffffffffffffffffffffffffffffffffffffff1916817bffffffffffffffffffffffffffffffffffffffffffffffffffffffff19161491505061210e565b600190505b949350505050565b6060600060016121258461276f565b01905060008167ffffffffffffffff81111561214457612143612f3b565b5b6040519080825280601f01601f1916602001820160405280156121765781602001600182028036833780820191505090505b509050600082602001820190505b6001156121d9578080600190039150507f3031323334353637383961626364656600000000000000000000000000000000600a86061a8153600a85816121cd576121cc613f8e565b5b04945060008503612184575b819350505050919050565b60007f80ac58cd000000000000000000000000000000000000000000000000000000007bffffffffffffffffffffffffffffffffffffffffffffffffffffffff1916827bffffffffffffffffffffffffffffffffffffffffffffffffffffffff191614806122af57507f5b5e139f000000000000000000000000000000000000000000000000000000007bffffffffffffffffffffffffffffffffffffffffffffffffffffffff1916827bffffffffffffffffffffffffffffffffffffffffffffffffffffffff1916145b806122bf57506122be826128c2565b5b9050919050565b60606122ec8273ffffffffffffffffffffffffffffffffffffffff16601460ff166122f3565b9050919050565b6060600060028360026123069190613fec565b612310919061402e565b67ffffffffffffffff81111561232957612328612f3b565b5b6040519080825280601f01601f19166020018201604052801561235b5781602001600182028036833780820191505090505b5090507f30000000000000000000000000000000000000000000000000000000000000008160008151811061239357612392614062565b5b60200101907effffffffffffffffffffffffffffffffffffffffffffffffffffffffffffff1916908160001a9053507f7800000000000000000000000000000000000000000000000000000000000000816001815181106123f7576123f6614062565b5b60200101907effffffffffffffffffffffffffffffffffffffffffffffffffffffffffffff1916908160001a905350600060018460026124379190613fec565b612441919061402e565b90505b60018111156124e1577f3031323334353637383961626364656600000000000000000000000000000000600f86166010811061248357612482614062565b5b1a60f81b82828151811061249a57612499614062565b5b60200101907effffffffffffffffffffffffffffffffffffffffffffffffffffffffffffff1916908160001a905350600485901c9450806124da90614091565b9050612444565b5060008414612525576040517f08c379a000000000000000000000000000000000000000000000000000000000815260040161251c90614106565b60405180910390fd5b8091505092915050565b600073ffffffffffffffffffffffffffffffffffffffff168273ffffffffffffffffffffffffffffffffffffffff160361259e576040517f08c379a000000000000000000000000000000000000000000000000000000000815260040161259590614172565b60405180910390fd5b6125a781611a97565b156125e7576040517f08c379a00000000000000000000000000000000000000000000000000000000081526004016125de906141de565b60405180910390fd5b6125f5600083836001611ea3565b6125fe81611a97565b1561263e576040517f08c379a0000000000000000000000000000000000000000000000000000000008152600401612635906141de565b60405180910390fd5b6001600360008473ffffffffffffffffffffffffffffffffffffffff1673ffffffffffffffffffffffffffffffffffffffff16815260200190815260200160002060008282540192505081905550816002600083815260200190815260200160002060006101000a81548173ffffffffffffffffffffffffffffffffffffffff021916908373ffffffffffffffffffffffffffffffffffffffff160217905550808273ffffffffffffffffffffffffffffffffffffffff16600073ffffffffffffffffffffffffffffffffffffffff167fddf252ad1be2c89b69c2b068fc378daa952ba7f163c4a11628f55a4df523b3ef60405160405180910390a4612748600083836001611ea9565b5050565b6000808273ffffffffffffffffffffffffffffffffffffffff163b119050919050565b600080600090507a184f03e93ff9f4daa797ed6e38ed64bf6a1f01000000000000000083106127cd577a184f03e93ff9f4daa797ed6e38ed64bf6a1f01000000000000000083816127c3576127c2613f8e565b5b0492506040810190505b6d04ee2d6d415b85acef8100000000831061280a576d04ee2d6d415b85acef81000000008381612800576127ff613f8e565b5b0492506020810190505b662386f26fc10000831061283957662386f26fc10000838161282f5761282e613f8e565b5b0492506010810190505b6305f5e1008310612862576305f5e100838161285857612857613f8e565b5b0492506008810190505b612710831061288757612710838161287d5761287c613f8e565b5b0492506004810190505b606483106128aa57606483816128a05761289f613f8e565b5b0492506002810190505b600a83106128b9576001810190505b80915050919050565b60007f01ffc9a7000000000000000000000000000000000000000000000000000000007bffffffffffffffffffffffffffffffffffffffffffffffffffffffff1916827bffffffffffffffffffffffffffffffffffffffffffffffffffffffff1916149050919050565b6000604051905090565b600080fd5b600080fd5b60007fffffffff0000000000000000000000000000000000000000000000000000000082169050919050565b61297581612940565b811461298057600080fd5b50565b6000813590506129928161296c565b92915050565b6000602082840312156129ae576129ad612936565b5b60006129bc84828501612983565b91505092915050565b60008115159050919050565b6129da816129c5565b82525050565b60006020820190506129f560008301846129d1565b92915050565b600081519050919050565b600082825260208201905092915050565b60005b83811015612a35578082015181840152602081019050612a1a565b60008484015250505050565b6000601f19601f8301169050919050565b6000612a5d826129fb565b612a678185612a06565b9350612a77818560208601612a17565b612a8081612a41565b840191505092915050565b60006020820190508181036000830152612aa58184612a52565b905092915050565b6000819050919050565b612ac081612aad565b8114612acb57600080fd5b50565b600081359050612add81612ab7565b92915050565b600060208284031215612af957612af8612936565b5b6000612b0784828501612ace565b91505092915050565b600073ffffffffffffffffffffffffffffffffffffffff82169050919050565b6000612b3b82612b10565b9050919050565b612b4b81612b30565b82525050565b6000602082019050612b666000830184612b42565b92915050565b612b7581612b30565b8114612b8057600080fd5b50565b600081359050612b9281612b6c565b92915050565b60008060408385031215612baf57612bae612936565b5b6000612bbd85828601612b83565b9250506020612bce85828601612ace565b9150509250929050565b600080600060608486031215612bf157612bf0612936565b5b6000612bff86828701612b83565b9350506020612c1086828701612b83565b9250506040612c2186828701612ace565b9150509250925092565b6000819050919050565b612c3e81612c2b565b8114612c4957600080fd5b50565b600081359050612c5b81612c35565b92915050565b600060208284031215612c7757612c76612936565b5b6000612c8584828501612c4c565b91505092915050565b612c9781612c2b565b82525050565b6000602082019050612cb26000830184612c8e565b92915050565b60008060408385031215612ccf57612cce612936565b5b6000612cdd85828601612c4c565b9250506020612cee85828601612b83565b9150509250929050565b612d0181612aad565b82525050565b600060a082019050612d1c6000830188612cf8565b612d296020830187612cf8565b8181036040830152612d3b8186612a52565b9050612d4a60608301856129d1565b612d576080830184612b42565b9695505050505050565b600060208284031215612d7757612d76612936565b5b6000612d8584828501612b83565b91505092915050565b6000602082019050612da36000830184612cf8565b92915050565b600080fd5b600080fd5b600080fd5b60008083601f840112612dce57612dcd612da9565b5b8235905067ffffffffffffffff811115612deb57612dea612dae565b5b602083019150836001820283011115612e0757612e06612db3565b5b9250929050565b600080600080600080600060a0888a031215612e2d57612e2c612936565b5b6000612e3b8a828b01612b83565b9750506020612e4c8a828b01612ace565b9650506040612e5d8a828b01612ace565b955050606088013567ffffffffffffffff811115612e7e57612e7d61293b565b5b612e8a8a828b01612db8565b9450945050608088013567ffffffffffffffff811115612ead57612eac61293b565b5b612eb98a828b01612db8565b925092505092959891949750929550565b612ed3816129c5565b8114612ede57600080fd5b50565b600081359050612ef081612eca565b92915050565b60008060408385031215612f0d57612f0c612936565b5b6000612f1b85828601612b83565b9250506020612f2c85828601612ee1565b9150509250929050565b600080fd5b7f4e487b7100000000000000000000000000000000000000000000000000000000600052604160045260246000fd5b612f7382612a41565b810181811067ffffffffffffffff82111715612f9257612f91612f3b565b5b80604052505050565b6000612fa561292c565b9050612fb18282612f6a565b919050565b600067ffffffffffffffff821115612fd157612fd0612f3b565b5b612fda82612a41565b9050602081019050919050565b82818337600083830152505050565b600061300961300484612fb6565b612f9b565b90508281526020810184848401111561302557613024612f36565b5b613030848285612fe7565b509392505050565b600082601f83011261304d5761304c612da9565b5b813561305d848260208601612ff6565b91505092915050565b600080600080608085870312156130805761307f612936565b5b600061308e87828801612b83565b945050602061309f87828801612b83565b93505060406130b087828801612ace565b925050606085013567ffffffffffffffff8111156130d1576130d061293b565b5b6130dd87828801613038565b91505092959194509250565b60008060408385031215613100576130ff612936565b5b600061310e85828601612b83565b925050602061311f85828601612b83565b9150509250929050565b7f4e487b7100000000000000000000000000000000000000000000000000000000600052602260045260246000fd5b6000600282049050600182168061317057607f821691505b60208210810361318357613182613129565b5b50919050565b7f4552433732313a20617070726f76616c20746f2063757272656e74206f776e6560008201527f7200000000000000000000000000000000000000000000000000000000000000602082015250565b60006131e5602183612a06565b91506131f082613189565b604082019050919050565b60006020820190508181036000830152613214816131d8565b9050919050565b7f4552433732313a20617070726f76652063616c6c6572206973206e6f7420746f60008201527f6b656e206f776e6572206f7220617070726f76656420666f7220616c6c000000602082015250565b6000613277603d83612a06565b91506132828261321b565b604082019050919050565b600060208201905081810360008301526132a68161326a565b9050919050565b7f4552433732313a2063616c6c6572206973206e6f7420746f6b656e206f776e6560008201527f72206f7220617070726f76656400000000000000000000000000000000000000602082015250565b6000613309602d83612a06565b9150613314826132ad565b604082019050919050565b60006020820190508181036000830152613338816132fc565b9050919050565b7f416363657373436f6e74726f6c3a2063616e206f6e6c792072656e6f756e636560008201527f20726f6c657320666f722073656c660000000000000000000000000000000000602082015250565b600061339b602f83612a06565b91506133a68261333f565b604082019050919050565b600060208201905081810360008301526133ca8161338e565b9050919050565b7f6e6f742065786973740000000000000000000000000000000000000000000000600082015250565b6000613407600983612a06565b9150613412826133d1565b602082019050919050565b60006020820190508181036000830152613436816133fa565b9050919050565b7f746f6b656e206e6f742065786973747300000000000000000000000000000000600082015250565b6000613473601083612a06565b915061347e8261343d565b602082019050919050565b600060208201905081810360008301526134a281613466565b9050919050565b7f616c726561647920766572696669656400000000000000000000000000000000600082015250565b60006134df601083612a06565b91506134ea826134a9565b602082019050919050565b6000602082019050818103600083015261350e816134d2565b9050919050565b7f4552433732313a20696e76616c696420746f6b656e2049440000000000000000600082015250565b600061354b601883612a06565b915061355682613515565b602082019050919050565b6000602082019050818103600083015261357a8161353e565b9050919050565b7f4552433732313a2061646472657373207a65726f206973206e6f74206120766160008201527f6c6964206f776e65720000000000000000000000000000000000000000000000602082015250565b60006135dd602983612a06565b91506135e882613581565b604082019050919050565b6000602082019050818103600083015261360c816135d0565b9050919050565b7f696e76616c696420746f00000000000000000000000000000000000000000000600082015250565b6000613649600a83612a06565b915061365482613613565b602082019050919050565b600060208201905081810360008301526136788161363c565b9050919050565b7f616d6f756e743e30000000000000000000000000000000000000000000000000600082015250565b60006136b5600883612a06565b91506136c08261367f565b602082019050919050565b600060208201905081810360008301526136e4816136a8565b9050919050565b7f64756544617465206d7573742062652066757475726500000000000000000000600082015250565b6000613721601683612a06565b915061372c826136eb565b602082019050919050565b6000602082019050818103600083015261375081613714565b9050919050565b60008190508160005260206000209050919050565b60006020601f8301049050919050565b600082821b905092915050565b6000600883026137b97fffffffffffffffffffffffffffffffffffffffffffffffffffffffffffffffff8261377c565b6137c3868361377c565b95508019841693508086168417925050509392505050565b6000819050919050565b60006138006137fb6137f684612aad565b6137db565b612aad565b9050919050565b6000819050919050565b61381a836137e5565b61382e61382682613807565b848454613789565b825550505050565b600090565b613843613836565b61384e818484613811565b505050565b5b818110156138725761386760008261383b565b600181019050613854565b5050565b601f8211156138b75761388881613757565b6138918461376c565b810160208510156138a0578190505b6138b46138ac8561376c565b830182613853565b50505b505050565b600082821c905092915050565b60006138da600019846008026138bc565b1980831691505092915050565b60006138f383836138c9565b9150826002028217905092915050565b61390c826129fb565b67ffffffffffffffff81111561392557613924612f3b565b5b61392f8254613158565b61393a828285613876565b600060209050601f83116001811461396d576000841561395b578287015190505b61396585826138e7565b8655506139cd565b601f19841661397b86613757565b60005b828110156139a35784890151825560018201915060208501945060208101905061397e565b868310156139c057848901516139bc601f8916826138c9565b8355505b6001600288020188555050505b505050505050565b60006139e18385612a06565b93506139ee838584612fe7565b6139f783612a41565b840190509392505050565b6000608082019050613a176000830189612cf8565b613a246020830188612cf8565b8181036040830152613a378186886139d5565b90508181036060830152613a4c8184866139d5565b9050979650505050505050565b7f61646d696e206f6e6c7900000000000000000000000000000000000000000000600082015250565b6000613a8f600a83612a06565b9150613a9a82613a59565b602082019050919050565b60006020820190508181036000830152613abe81613a82565b9050919050565b600081905092915050565b6000613adb826129fb565b613ae58185613ac5565b9350613af5818560208601612a17565b80840191505092915050565b6000613b0d8285613ad0565b9150613b198284613ad0565b91508190509392505050565b7f4552433732313a207472616e736665722066726f6d20696e636f72726563742060008201527f6f776e6572000000000000000000000000000000000000000000000000000000602082015250565b6000613b81602583612a06565b9150613b8c82613b25565b604082019050919050565b60006020820190508181036000830152613bb081613b74565b9050919050565b7f4552433732313a207472616e7366657220746f20746865207a65726f2061646460008201527f7265737300000000000000000000000000000000000000000000000000000000602082015250565b6000613c13602483612a06565b9150613c1e82613bb7565b604082019050919050565b60006020820190508181036000830152613c4281613c06565b9050919050565b7f45524337323155524953746f726167653a2055524920736574206f66206e6f6e60008201527f6578697374656e7420746f6b656e000000000000000000000000000000000000602082015250565b6000613ca5602e83612a06565b9150613cb082613c49565b604082019050919050565b60006020820190508181036000830152613cd481613c98565b9050919050565b7f4552433732313a20617070726f766520746f2063616c6c657200000000000000600082015250565b6000613d11601983612a06565b9150613d1c82613cdb565b602082019050919050565b60006020820190508181036000830152613d4081613d04565b9050919050565b7f4552433732313a207472616e7366657220746f206e6f6e20455243373231526560008201527f63656976657220696d706c656d656e7465720000000000000000000000000000602082015250565b6000613da3603283612a06565b9150613dae82613d47565b604082019050919050565b60006020820190508181036000830152613dd281613d96565b9050919050565b7f416363657373436f6e74726f6c3a206163636f756e7420000000000000000000600082015250565b6000613e0f601783613ac5565b9150613e1a82613dd9565b601782019050919050565b7f206973206d697373696e6720726f6c6520000000000000000000000000000000600082015250565b6000613e5b601183613ac5565b9150613e6682613e25565b601182019050919050565b6000613e7c82613e02565b9150613e888285613ad0565b9150613e9382613e4e565b9150613e9f8284613ad0565b91508190509392505050565b600081519050919050565b600082825260208201905092915050565b6000613ed282613eab565b613edc8185613eb6565b9350613eec818560208601612a17565b613ef581612a41565b840191505092915050565b6000608082019050613f156000830187612b42565b613f226020830186612b42565b613f2f6040830185612cf8565b8181036060830152613f418184613ec7565b905095945050505050565b600081519050613f5b8161296c565b92915050565b600060208284031215613f7757613f76612936565b5b6000613f8584828501613f4c565b91505092915050565b7f4e487b7100000000000000000000000000000000000000000000000000000000600052601260045260246000fd5b7f4e487b7100000000000000000000000000000000000000000000000000000000600052601160045260246000fd5b6000613ff782612aad565b915061400283612aad565b925082820261401081612aad565b9150828204841483151761402757614026613fbd565b5b5092915050565b600061403982612aad565b915061404483612aad565b925082820190508082111561405c5761405b613fbd565b5b92915050565b7f4e487b7100000000000000000000000000000000000000000000000000000000600052603260045260246000fd5b600061409c82612aad565b9150600082036140af576140ae613fbd565b5b600182039050919050565b7f537472696e67733a20686578206c656e67746820696e73756666696369656e74600082015250565b60006140f0602083612a06565b91506140fb826140ba565b602082019050919050565b6000602082019050818103600083015261411f816140e3565b9050919050565b7f4552433732313a206d696e7420746f20746865207a65726f2061646472657373600082015250565b600061415c602083612a06565b915061416782614126565b602082019050919050565b6000602082019050818103600083015261418b8161414f565b9050919050565b7f4552433732313a20746f6b656e20616c7265616479206d696e74656400000000600082015250565b60006141c8601c83612a06565b91506141d382614192565b602082019050919050565b600060208201905081810360008301526141f7816141bb565b905091905056fea2646970667358221220e5d16a6f0cce25fe42b65b9c2e1162bd93d1640a3c1228cce3d78042c5da0dbd64736f6c63430008130033",
  "linkReferences": {},
  "deployedLinkReferences": {}
}