{
  "_format": "hh-sol-artifact-1",
  "contractName": "LoanManager",
  "sourceName": "contracts/LoanManager.sol",
  "abi": [
    {
      "inputs": [
        {
          "internalType": "address",
          "name": "_invoiceNFT",
          "type": "address"
        },
        {
          "internalType": "address",
          "name": "_stablecoin",
          "type": "address"
        },
        {
          "internalType": "address",
          "name": "admin",
          "type": "address"
        },
        {
          "internalType": "address",
          "name": "_feeReceiver",
          "type": "address"
        },
        {
          "internalType": "uint16",
          "name": "_protocolFeeBps",
          "type": "uint16"
        }
      ],
      "stateMutability": "nonpayable",
      "type": "constructor"
    },
    {
      "anonymous": false,
      "inputs": [
        {
          "indexed": true,
          "internalType": "uint256",
          "name": "loanId",
          "type": "uint256"
        }
      ],
      "name": "LoanCancelled",
      "type": "event"
    },
    {
      "anonymous": false,
      "inputs": [
        {
          "indexed": true,
          "internalType": "uint256",
          "name": "loanId",
          "type": "uint256"
        },
        {
          "indexed": true,
          "internalType": "address",
          "name": "triggeredBy",
          "type": "address"
        }
      ],
      "name": "LoanDefaulted",
      "type": "event"
    },
    {
      "anonymous": false,
      "inputs": [
        {
          "indexed": true,
          "internalType": "uint256",
          "name": "loanId",
          "type": "uint256"
        }
      ],
      "name": "LoanFullyFunded",
      "type": "event"
    },
    {
      "anonymous": false,
      "inputs": [
        {
          "indexed": true,
          "internalType": "uint256",
          "name": "loanId",
          "type": "uint256"
        },
        {
          "indexed": true,
          "internalType": "address",
          "name": "lender",
          "type": "address"
        },
        {
          "indexed": false,
          "internalType": "uint256",
          "name": "amount",
          "type": "uint256"
        },
        {
          "indexed": false,
          "internalType": "uint256",
          "name": "totalFunded",
          "type": "uint256"
        }
      ],
      "name": "LoanFundContribution",
      "type": "event"
    },
    {
      "anonymous": false,
      "inputs": [
        {
          "indexed": true,
          "internalType": "uint256",
          "name": "loanId",
          "type": "uint256"
        },
        {
          "indexed": true,
          "internalType": "address",
          "name": "payer",
          "type": "address"
        },
        {
          "indexed": false,
          "internalType": "uint256",
          "name": "totalPaid",
          "type": "uint256"
        }
      ],
      "name": "LoanRepaid",
      "type": "event"
    },
    {
      "anonymous": false,
      "inputs": [
        {
          "indexed": true,
          "internalType": "uint256",
          "name": "loanId",
          "type": "uint256"
        },
        {
          "indexed": true,
          "internalType": "uint256",
          "name": "tokenId",
          "type": "uint256"
        },
        {
          "indexed": false,
          "internalType": "address",
          "name": "borrower",
          "type": "address"
        },
        {
          "indexed": false,
          "internalType": "uint256",
          "name": "principal",
          "type": "uint256"
        },
        {
          "indexed": false,
          "internalType": "uint256",
          "name": "interestBps",
          "type": "uint256"
        },
        {
          "indexed": false,
          "internalType": "uint256",
          "name": "dueDate",
          "type": "uint256"
        }
      ],
      "name": "LoanRequested",
      "type": "event"
    },
    {
      "anonymous": false,
      "inputs": [
        {
          "indexed": true,
          "internalType": "bytes32",
          "name": "role",
          "type": "bytes32"
        },
        {
          "indexed": true,
          "internalType": "bytes32",
          "name": "previousAdminRole",
          "type": "bytes32"
        },
        {
          "indexed": true,
          "internalType": "bytes32",
          "name": "newAdminRole",
          "type": "bytes32"
        }
      ],
      "name": "RoleAdminChanged",
      "type": "event"
    },
    {
      "anonymous": false,
      "inputs": [
        {
          "indexed": true,
          "internalType": "bytes32",
          "name": "role",
          "type": "bytes32"
        },
        {
          "indexed": true,
          "internalType": "address",
          "name": "account",
          "type": "address"
        },
        {
          "indexed": true,
          "internalType": "address",
          "name": "sender",
          "type": "address"
        }
      ],
      "name": "RoleGranted",
      "type": "event"
    },
    {
      "anonymous": false,
      "inputs": [
        {
          "indexed": true,
          "internalType": "bytes32",
          "name": "role",
          "type": "bytes32"
        },
        {
          "indexed": true,
          "internalType": "address",
          "name": "account",
          "type": "address"
        },
        {
          "indexed": true,
          "internalType": "address",
          "name": "sender",
          "type": "address"
        }
      ],
      "name": "RoleRevoked",
      "type": "event"
    },
    {
      "inputs": [],
      "name": "DEFAULT_ADMIN_ROLE",
      "outputs": [
        {
          "internalType": "bytes32",
          "name": "",
          "type": "bytes32"
        }
      ],
      "stateMutability": "view",
      "type": "function"
    },
    {
      "inputs": [],
      "name": "ORACLE_ROLE",
      "outputs": [
        {
          "internalType": "bytes32",
          "name": "",
          "type": "bytes32"
        }
      ],
      "stateMutability": "view",
      "type": "function"
    },
    {
      "inputs": [],
      "name": "WITHDRAWER_ROLE",
      "outputs": [
        {
          "internalType": "bytes32",
          "name": "",
          "type": "bytes32"
        }
      ],
      "stateMutability": "view",
      "type": "function"
    },
    {
      "inputs": [
        {
          "internalType": "uint256",
          "name": "loanId",
          "type": "uint256"
        }
      ],
      "name": "cancelRequest",
      "outputs": [],
      "stateMutability": "nonpayable",
      "type": "function"
    },
    {
      "inputs": [
        {
          "internalType": "uint256",
          "name": "",
          "type": "uint256"
        },
        {
          "internalType": "address",
          "name": "",
          "type": "address"
        }
      ],
      "name": "contributions",
      "outputs": [
        {
          "internalType": "uint256",
          "name": "",
          "type": "uint256"
        }
      ],
      "stateMutability": "view",
      "type": "function"
    },
    {
      "inputs": [],
      "name": "feeReceiver",
      "outputs": [
        {
          "internalType": "address",
          "name": "",
          "type": "address"
        }
      ],
      "stateMutability": "view",
      "type": "function"
    },
    {
      "inputs": [
        {
          "internalType": "uint256",
          "name": "loanId",
          "type": "uint256"
        },
        {
          "internalType": "uint256",
          "name": "amount",
          "type": "uint256"
        }
      ],
      "name": "fundPartial",
      "outputs": [],
      "stateMutability": "nonpayable",
      "type": "function"
    },
    {
      "inputs": [
        {
          "internalType": "bytes32",
          "name": "role",
          "type": "bytes32"
        }
      ],
      "name": "getRoleAdmin",
      "outputs": [
        {
          "internalType": "bytes32",
          "name": "",
          "type": "bytes32"
        }
      ],
      "stateMutability": "view",
      "type": "function"
    },
    {
      "inputs": [
        {
          "internalType": "bytes32",
          "name": "role",
          "type": "bytes32"
        },
        {
          "internalType": "address",
          "name": "account",
          "type": "address"
        }
      ],
      "name": "grantRole",
      "outputs": [],
      "stateMutability": "nonpayable",
      "type": "function"
    },
    {
      "inputs": [
        {
          "internalType": "bytes32",
          "name": "role",
          "type": "bytes32"
        },
        {
          "internalType": "address",
          "name": "account",
          "type": "address"
        }
      ],
      "name": "hasRole",
      "outputs": [
        {
          "internalType": "bool",
          "name": "",
          "type": "bool"
        }
      ],
      "stateMutability": "view",
      "type": "function"
    },
    {
      "inputs": [],
      "name": "invoiceNFT",
      "outputs": [
        {
          "internalType": "contract IInvoiceNFT",
          "name": "",
          "type": "address"
        }
      ],
      "stateMutability": "view",
      "type": "function"
    },
    {
      "inputs": [
        {
          "internalType": "uint256",
          "name": "loanId",
          "type": "uint256"
        }
      ],
      "name": "lendersOf",
      "outputs": [
        {
          "internalType": "address[]",
          "name": "",
          "type": "address[]"
        }
      ],
      "stateMutability": "view",
      "type": "function"
    },
    {
      "inputs": [],
      "name": "loanCounter",
      "outputs": [
        {
          "internalType": "uint256",
          "name": "",
          "type": "uint256"
        }
      ],
      "stateMutability": "view",
      "type": "function"
    },
    {
      "inputs": [
        {
          "internalType": "uint256",
          "name": "",
          "type": "uint256"
        }
      ],
      "name": "loans",
      "outputs": [
        {
          "internalType": "uint256",
          "name": "loanId",
          "type": "uint256"
        },
        {
          "internalType": "uint256",
          "name": "invoiceTokenId",
          "type": "uint256"
        },
        {
          "internalType": "address",
          "name": "borrower",
          "type": "address"
        },
        {
          "internalType": "uint256",
          "name": "principal",
          "type": "uint256"
        },
        {
          "internalType": "uint256",
          "name": "totalFunded",
          "type": "uint256"
        },
        {
          "internalType": "uint256",
          "name": "interestBps",
          "type": "uint256"
        },
        {
          "internalType": "uint256",
          "name": "dueDate",
          "type": "uint256"
        },
        {
          "internalType": "uint256",
          "name": "createdAt",
          "type": "uint256"
        },
        {
          "internalType": "enum LoanManager.LoanState",
          "name": "state",
          "type": "uint8"
        }
      ],
      "stateMutability": "view",
      "type": "function"
    },
    {
      "inputs": [
        {
          "internalType": "uint256",
          "name": "loanId",
          "type": "uint256"
        }
      ],
      "name": "markDefault",
      "outputs": [],
      "stateMutability": "nonpayable",
      "type": "function"
    },
    {
      "inputs": [],
      "name": "protocolFeeBps",
      "outputs": [
        {
          "internalType": "uint16",
          "name": "",
          "type": "uint16"
        }
      ],
      "stateMutability": "view",
      "type": "function"
    },
    {
      "inputs": [
        {
          "internalType": "bytes32",
          "name": "role",
          "type": "bytes32"
        },
        {
          "internalType": "address",
          "name": "account",
          "type": "address"
        }
      ],
      "name": "renounceRole",
      "outputs": [],
      "stateMutability": "nonpayable",
      "type": "function"
    },
    {
      "inputs": [
        {
          "internalType": "uint256",
          "name": "loanId",
          "type": "uint256"
        }
      ],
      "name": "repayLoan",
      "outputs": [],
      "stateMutability": "nonpayable",
      "type": "function"
    },
    {
      "inputs": [
        {
          "internalType": "uint256",
          "name": "invoiceTokenId",
          "type": "uint256"
        },
        {
          "internalType": "uint256",
          "name": "principal",
          "type": "uint256"
        },
        {
          "internalType": "uint256",
          "name": "interestBps",
          "type": "uint256"
        },
        {
          "internalType": "uint256",
          "name": "durationDays",
          "type": "uint256"
        }
      ],
      "name": "requestLoan",
      "outputs": [
        {
          "internalType": "uint256",
          "name": "",
          "type": "uint256"
        }
      ],
      "stateMutability": "nonpayable",
      "type": "function"
    },
    {
      "inputs": [
        {
          "internalType": "bytes32",
          "name": "role",
          "type": "bytes32"
        },
        {
          "internalType": "address",
          "name": "account",
          "type": "address"
        }
      ],
      "name": "revokeRole",
      "outputs": [],
      "stateMutability": "nonpayable",
      "type": "function"
    },
    {
      "inputs": [],
      "name": "stablecoin",
      "outputs": [
        {
          "internalType": "contract IERC20",
          "name": "",
          "type": "address"
        }
      ],
      "stateMutability": "view",
      "type": "function"
    },
    {
      "inputs": [
        {
          "internalType": "bytes4",
          "name": "interfaceId",
          "type": "bytes4"
        }
      ],
      "name": "supportsInterface",
      "outputs": [
        {
          "internalType": "bool",
          "name": "",
          "type": "bool"
        }
      ],
      "stateMutability": "view",
      "type": "function"
    },
    {
      "inputs": [
        {
          "internalType": "uint256",
          "name": "loanId",
          "type": "uint256"
        }
      ],
      "name": "totalDue",
      "outputs": [
        {
          "internalType": "uint256",
          "name": "",
          "type": "uint256"
        }
      ],
      "stateMutability": "view",
      "type": "function"
    },
    {
      "inputs": [
        {
          "internalType": "uint16",
          "name": "_feeBps",
          "type": "uint16"
        },
        {
          "internalType": "address",
          "name": "_feeReceiver",
          "type": "address"
        }
      ],
      "name": "updateProtocolFee",
      "outputs": [],
      "stateMutability": "nonpayable",
      "type": "function"
    },
    {
      "inputs": [
        {
          "internalType": "contract IERC20",
          "name": "token",
          "type": "address"
        },
        {
          "internalType": "address",
          "name": "to",
          "type": "address"
        },
        {
          "internalType": "uint256",
          "name": "amount",
          "type": "uint256"
        }
      ],
      "name": "withdrawERC20",
      "outputs": [],
      "stateMutability": "nonpayable",
      "type": "function"
    }
  ],
  "bytecode": "0x60806040523480156200001157600080fd5b5060405162004a0e38038062004a0e8339818101604052810190620000379190620004f6565b60018081905550600073ffffffffffffffffffffffffffffffffffffffff168573ffffffffffffffffffffffffffffffffffffffff1614158015620000a95750600073ffffffffffffffffffffffffffffffffffffffff168473ffffffffffffffffffffffffffffffffffffffff1614155b620000eb576040517f08c379a0000000000000000000000000000000000000000000000000000000008152600401620000e290620005df565b60405180910390fd5b84600260006101000a81548173ffffffffffffffffffffffffffffffffffffffff021916908373ffffffffffffffffffffffffffffffffffffffff16021790555083600360006101000a81548173ffffffffffffffffffffffffffffffffffffffff021916908373ffffffffffffffffffffffffffffffffffffffff160217905550600073ffffffffffffffffffffffffffffffffffffffff168273ffffffffffffffffffffffffffffffffffffffff1614620001a95781620001ab565b825b600560026101000a81548173ffffffffffffffffffffffffffffffffffffffff021916908373ffffffffffffffffffffffffffffffffffffffff16021790555080600560006101000a81548161ffff021916908361ffff1602179055506200025a6000801b600073ffffffffffffffffffffffffffffffffffffffff168573ffffffffffffffffffffffffffffffffffffffff16146200024c57846200024e565b335b620002d460201b60201c565b620002c97f10dac8c06a04bec0b551627dad28bc00d6516b0caacd1c7b345fcdb5211334e4600073ffffffffffffffffffffffffffffffffffffffff168573ffffffffffffffffffffffffffffffffffffffff1614620002bb5784620002bd565b335b620002d460201b60201c565b505050505062000601565b620002e68282620002ea60201b60201c565b5050565b620002fc8282620003db60201b60201c565b620003d757600160008084815260200190815260200160002060000160008373ffffffffffffffffffffffffffffffffffffffff1673ffffffffffffffffffffffffffffffffffffffff16815260200190815260200160002060006101000a81548160ff0219169083151502179055506200037c6200044560201b60201c565b73ffffffffffffffffffffffffffffffffffffffff168173ffffffffffffffffffffffffffffffffffffffff16837f2f8788117e7eff1d82e926ec794901d17c78024a50270940304540a733656f0d60405160405180910390a45b5050565b600080600084815260200190815260200160002060000160008373ffffffffffffffffffffffffffffffffffffffff1673ffffffffffffffffffffffffffffffffffffffff16815260200190815260200160002060009054906101000a900460ff16905092915050565b600033905090565b600080fd5b600073ffffffffffffffffffffffffffffffffffffffff82169050919050565b60006200047f8262000452565b9050919050565b620004918162000472565b81146200049d57600080fd5b50565b600081519050620004b18162000486565b92915050565b600061ffff82169050919050565b620004d081620004b7565b8114620004dc57600080fd5b50565b600081519050620004f081620004c5565b92915050565b600080600080600060a086880312156200051557620005146200044d565b5b60006200052588828901620004a0565b95505060206200053888828901620004a0565b94505060406200054b88828901620004a0565b93505060606200055e88828901620004a0565b92505060806200057188828901620004df565b9150509295509295909350565b600082825260208201905092915050565b7f7a65726f20616464720000000000000000000000000000000000000000000000600082015250565b6000620005c76009836200057e565b9150620005d4826200058f565b602082019050919050565b60006020820190508181036000830152620005fa81620005b8565b9050919050565b6143fd80620006116000396000f3fe608060405234801561001057600080fd5b50600436106101735760003560e01c806385f438c1116100de578063b3f0067411610097578063e1d927c811610071578063e1d927c81461044a578063e1ec3c6814610466578063e5eeb32c1461049e578063e9cbd822146104ce57610173565b8063b3f00674146103e0578063d3af555d146103fe578063d547741f1461042e57610173565b806385f438c1146103205780638bd0fd6f1461033e57806391d148541461035a578063a190b5cd1461038a578063a217fddf146103a6578063ab7b1c89146103c457610173565b806335659fb81161013057806335659fb81461024c57806336568abe1461026a5780633d891f591461028657806344004cc1146102b65780634bb6f06d146102d2578063753c7ff9146102f057610173565b806301ffc9a71461017857806307e2cea5146101a8578063248a9ca3146101c65780632f2ff15d146101f65780633015394c1461021257806334d9289e1461022e575b600080fd5b610192600480360381019061018d9190612a30565b6104ec565b60405161019f9190612a78565b60405180910390f35b6101b0610566565b6040516101bd9190612aac565b60405180910390f35b6101e060048036038101906101db9190612af3565b61058a565b6040516101ed9190612aac565b60405180910390f35b610210600480360381019061020b9190612b7e565b6105a9565b005b61022c60048036038101906102279190612bf4565b6105ca565b005b61023661094e565b6040516102439190612c30565b60405180910390f35b610254610954565b6040516102619190612c68565b60405180910390f35b610284600480360381019061027f9190612b7e565b610968565b005b6102a0600480360381019061029b9190612c83565b6109eb565b6040516102ad9190612c30565b60405180910390f35b6102d060048036038101906102cb9190612d01565b610a10565b005b6102da610aa9565b6040516102e79190612db3565b60405180910390f35b61030a60048036038101906103059190612dce565b610acf565b6040516103179190612c30565b60405180910390f35b610328610f33565b6040516103359190612aac565b60405180910390f35b61035860048036038101906103539190612e61565b610f57565b005b610374600480360381019061036f9190612b7e565b61104e565b6040516103819190612a78565b60405180910390f35b6103a4600480360381019061039f9190612ea1565b6110b8565b005b6103ae611722565b6040516103bb9190612aac565b60405180910390f35b6103de60048036038101906103d99190612bf4565b611729565b005b6103e8611c0e565b6040516103f59190612ef0565b60405180910390f35b61041860048036038101906104139190612bf4565b611c34565b6040516104259190612fc9565b60405180910390f35b61044860048036038101906104439190612b7e565b611cd8565b005b610464600480360381019061045f9190612bf4565b611cf9565b005b610480600480360381019061047b9190612bf4565b611f56565b60405161049599989796959493929190613062565b60405180910390f35b6104b860048036038101906104b39190612bf4565b611fd1565b6040516104c59190612c30565b60405180910390f35b6104d661206d565b6040516104e39190613110565b60405180910390f35b60007f7965db0b000000000000000000000000000000000000000000000000000000007bffffffffffffffffffffffffffffffffffffffffffffffffffffffff1916827bffffffffffffffffffffffffffffffffffffffffffffffffffffffff1916148061055f575061055e82612093565b5b9050919050565b7f68e79a7bf1e0bc45d0a330c573bc367f9cf464fd326078812f301165fbda4ef181565b6000806000838152602001908152602001600020600101549050919050565b6105b28261058a565b6105bb816120fd565b6105c58383612111565b505050565b6105d26121f1565b60006006600083815260200190815260200160002090508181600001541461062f576040517f08c379a000000000000000000000000000000000000000000000000000000000815260040161062690613188565b60405180910390fd5b6000600581111561064357610642612feb565b5b8160080160009054906101000a900460ff16600581111561066757610666612feb565b5b14806106a857506001600581111561068257610681612feb565b5b8160080160009054906101000a900460ff1660058111156106a6576106a5612feb565b5b145b6106e7576040517f08c379a00000000000000000000000000000000000000000000000000000000081526004016106de906131f4565b60405180910390fd5b3373ffffffffffffffffffffffffffffffffffffffff168160020160009054906101000a900473ffffffffffffffffffffffffffffffffffffffff1673ffffffffffffffffffffffffffffffffffffffff1614610779576040517f08c379a000000000000000000000000000000000000000000000000000000000815260040161077090613260565b60405180910390fd5b60005b81600901805490508110156108e75760008260090182815481106107a3576107a2613280565b5b9060005260206000200160009054906101000a900473ffffffffffffffffffffffffffffffffffffffff16905060006007600086815260200190815260200160002060008373ffffffffffffffffffffffffffffffffffffffff1673ffffffffffffffffffffffffffffffffffffffff16815260200190815260200160002054905060008111156108d25760006007600087815260200190815260200160002060008473ffffffffffffffffffffffffffffffffffffffff1673ffffffffffffffffffffffffffffffffffffffff168152602001908152602001600020819055506108d18282600360009054906101000a900473ffffffffffffffffffffffffffffffffffffffff1673ffffffffffffffffffffffffffffffffffffffff166122409092919063ffffffff16565b5b505080806108df906132de565b91505061077c565b5060058160080160006101000a81548160ff021916908360058111156109105761090f612feb565b5b0217905550817fb71becc91961a6b43bcc5b3b630f3dce02c7fd444cf3738c4f188062b1caf5bc60405160405180910390a25061094b6122c6565b50565b60045481565b600560009054906101000a900461ffff1681565b6109706122cf565b73ffffffffffffffffffffffffffffffffffffffff168173ffffffffffffffffffffffffffffffffffffffff16146109dd576040517f08c379a00000000000000000000000000000000000000000000000000000000081526004016109d490613398565b60405180910390fd5b6109e782826122d7565b5050565b6007602052816000526040600020602052806000526040600020600091509150505481565b610a3a7f10dac8c06a04bec0b551627dad28bc00d6516b0caacd1c7b345fcdb5211334e43361104e565b610a79576040517f08c379a0000000000000000000000000000000000000000000000000000000008152600401610a7090613404565b60405180910390fd5b610aa482828573ffffffffffffffffffffffffffffffffffffffff166122409092919063ffffffff16565b505050565b600260009054906101000a900473ffffffffffffffffffffffffffffffffffffffff1681565b6000808411610b13576040517f08c379a0000000000000000000000000000000000000000000000000000000008152600401610b0a90613470565b60405180910390fd5b612710831115610b58576040517f08c379a0000000000000000000000000000000000000000000000000000000008152600401610b4f906134dc565b60405180910390fd5b600080600260009054906101000a900473ffffffffffffffffffffffffffffffffffffffff1673ffffffffffffffffffffffffffffffffffffffff16633a23cc0a886040518263ffffffff1660e01b8152600401610bb69190612c30565b600060405180830381865afa158015610bd3573d6000803e3d6000fd5b505050506040513d6000823e3d601f19601f82011682018060405250810190610bfc91906136b3565b5093505050915080610c43576040517f08c379a0000000000000000000000000000000000000000000000000000000008152600401610c3a90613796565b60405180910390fd5b3373ffffffffffffffffffffffffffffffffffffffff16600260009054906101000a900473ffffffffffffffffffffffffffffffffffffffff1673ffffffffffffffffffffffffffffffffffffffff16636352211e896040518263ffffffff1660e01b8152600401610cb59190612c30565b602060405180830381865afa158015610cd2573d6000803e3d6000fd5b505050506040513d601f19601f82011682018060405250810190610cf691906137b6565b73ffffffffffffffffffffffffffffffffffffffff1614610d4c576040517f08c379a0000000000000000000000000000000000000000000000000000000008152600401610d439061382f565b60405180910390fd5b600084118015610d5e575061016d8411155b610d9d576040517f08c379a0000000000000000000000000000000000000000000000000000000008152600401610d949061389b565b60405180910390fd5b81861115610de0576040517f08c379a0000000000000000000000000000000000000000000000000000000008152600401610dd790613907565b60405180910390fd5b60046000815480929190610df3906132de565b919050555060006201518085610e099190613927565b42610e149190613969565b9050600060066000600454815260200190815260200160002090506004548160000181905550888160010181905550338160020160006101000a81548173ffffffffffffffffffffffffffffffffffffffff021916908373ffffffffffffffffffffffffffffffffffffffff1602179055508781600301819055506000816004018190555086816005018190555081816006018190555042816007018190555060008160080160006101000a81548160ff02191690836005811115610edc57610edb612feb565b5b0217905550886004547ffbe7dbb81c34a41bcefe51229bc9ef88898f0c03d38e13cb4df1de81f1c59f69338b8b87604051610f1a949392919061399d565b60405180910390a3600454945050505050949350505050565b7f10dac8c06a04bec0b551627dad28bc00d6516b0caacd1c7b345fcdb5211334e481565b610f646000801b3361104e565b610fa3576040517f08c379a0000000000000000000000000000000000000000000000000000000008152600401610f9a90613a2e565b60405180910390fd5b6103e88261ffff161115610fec576040517f08c379a0000000000000000000000000000000000000000000000000000000008152600401610fe390613a9a565b60405180910390fd5b81600560006101000a81548161ffff021916908361ffff16021790555080600560026101000a81548173ffffffffffffffffffffffffffffffffffffffff021916908373ffffffffffffffffffffffffffffffffffffffff1602179055505050565b600080600084815260200190815260200160002060000160008373ffffffffffffffffffffffffffffffffffffffff1673ffffffffffffffffffffffffffffffffffffffff16815260200190815260200160002060009054906101000a900460ff16905092915050565b6110c06121f1565b60006006600084815260200190815260200160002090508281600001541461111d576040517f08c379a000000000000000000000000000000000000000000000000000000000815260040161111490613b06565b60405180910390fd5b6000600581111561113157611130612feb565b5b8160080160009054906101000a900460ff16600581111561115557611154612feb565b5b14806111965750600160058111156111705761116f612feb565b5b8160080160009054906101000a900460ff16600581111561119457611193612feb565b5b145b6111d5576040517f08c379a00000000000000000000000000000000000000000000000000000000081526004016111cc90613b72565b60405180910390fd5b60008211611218576040517f08c379a000000000000000000000000000000000000000000000000000000000815260040161120f90613bde565b60405180910390fd5b806003015482826004015461122d9190613969565b111561126e576040517f08c379a000000000000000000000000000000000000000000000000000000000815260040161126590613c4a565b60405180910390fd5b6112bd333084600360009054906101000a900473ffffffffffffffffffffffffffffffffffffffff1673ffffffffffffffffffffffffffffffffffffffff166123b8909392919063ffffffff16565b60006007600085815260200190815260200160002060003373ffffffffffffffffffffffffffffffffffffffff1673ffffffffffffffffffffffffffffffffffffffff168152602001908152602001600020540361137b5780600901339080600181540180825580915050600190039060005260206000200160009091909190916101000a81548173ffffffffffffffffffffffffffffffffffffffff021916908373ffffffffffffffffffffffffffffffffffffffff1602179055505b816007600085815260200190815260200160002060003373ffffffffffffffffffffffffffffffffffffffff1673ffffffffffffffffffffffffffffffffffffffff16815260200190815260200160002060008282546113db9190613969565b92505081905550818160040160008282546113f69190613969565b925050819055506000600581111561141157611410612feb565b5b8160080160009054906101000a900460ff16600581111561143557611434612feb565b5b036114685760018160080160006101000a81548160ff0219169083600581111561146257611461612feb565b5b02179055505b3373ffffffffffffffffffffffffffffffffffffffff16837f6fa11fe7a0dfd8be5f33a0dce5e3c61215ec78e5d7479c6616dff30cff58d5bb8484600401546040516114b5929190613c6a565b60405180910390a3806003015481600401540361171557600260009054906101000a900473ffffffffffffffffffffffffffffffffffffffff1673ffffffffffffffffffffffffffffffffffffffff166342842e0e8260020160009054906101000a900473ffffffffffffffffffffffffffffffffffffffff163084600101546040518463ffffffff1660e01b815260040161155393929190613c93565b600060405180830381600087803b15801561156d57600080fd5b505af1158015611581573d6000803e3d6000fd5b505050506000612710600560009054906101000a900461ffff1661ffff1683600301546115ae9190613927565b6115b89190613cf9565b905060008183600301546115cc9190613d2a565b9050600082111561164757611646600560029054906101000a900473ffffffffffffffffffffffffffffffffffffffff1683600360009054906101000a900473ffffffffffffffffffffffffffffffffffffffff1673ffffffffffffffffffffffffffffffffffffffff166122409092919063ffffffff16565b5b6116b88360020160009054906101000a900473ffffffffffffffffffffffffffffffffffffffff1682600360009054906101000a900473ffffffffffffffffffffffffffffffffffffffff1673ffffffffffffffffffffffffffffffffffffffff166122409092919063ffffffff16565b60028360080160006101000a81548160ff021916908360058111156116e0576116df612feb565b5b0217905550847f850d8a952ebb715ab9142d9e5ee02d5e2dae476c9f464131f8c5978dda43f67c60405160405180910390a250505b5061171e6122c6565b5050565b6000801b81565b6117316121f1565b60006006600083815260200190815260200160002090508181600001541461178e576040517f08c379a000000000000000000000000000000000000000000000000000000000815260040161178590613188565b60405180910390fd5b600260058111156117a2576117a1612feb565b5b8160080160009054906101000a900460ff1660058111156117c6576117c5612feb565b5b14611806576040517f08c379a00000000000000000000000000000000000000000000000000000000081526004016117fd90613daa565b60405180910390fd5b600061181183611fd1565b9050611862333083600360009054906101000a900473ffffffffffffffffffffffffffffffffffffffff1673ffffffffffffffffffffffffffffffffffffffff166123b8909392919063ffffffff16565b600081905060005b83600901805490508110156119ad57600084600901828154811061189157611890613280565b5b9060005260206000200160009054906101000a900473ffffffffffffffffffffffffffffffffffffffff16905060006007600088815260200190815260200160002060008373ffffffffffffffffffffffffffffffffffffffff1673ffffffffffffffffffffffffffffffffffffffff1681526020019081526020016000205490506000866003015482876119269190613927565b6119309190613cf9565b90506000811115611997576119888382600360009054906101000a900473ffffffffffffffffffffffffffffffffffffffff1673ffffffffffffffffffffffffffffffffffffffff166122409092919063ffffffff16565b80856119949190613d2a565b94505b50505080806119a5906132de565b91505061186a565b506000811115611acb57600083600901805490501115611a5a57611a55836009016000815481106119e1576119e0613280565b5b9060005260206000200160009054906101000a900473ffffffffffffffffffffffffffffffffffffffff1682600360009054906101000a900473ffffffffffffffffffffffffffffffffffffffff1673ffffffffffffffffffffffffffffffffffffffff166122409092919063ffffffff16565b611aca565b611ac9600560029054906101000a900473ffffffffffffffffffffffffffffffffffffffff1682600360009054906101000a900473ffffffffffffffffffffffffffffffffffffffff1673ffffffffffffffffffffffffffffffffffffffff166122409092919063ffffffff16565b5b5b600260009054906101000a900473ffffffffffffffffffffffffffffffffffffffff1673ffffffffffffffffffffffffffffffffffffffff166342842e0e308560020160009054906101000a900473ffffffffffffffffffffffffffffffffffffffff1686600101546040518463ffffffff1660e01b8152600401611b5293929190613c93565b600060405180830381600087803b158015611b6c57600080fd5b505af1158015611b80573d6000803e3d6000fd5b5050505060038360080160006101000a81548160ff02191690836005811115611bac57611bab612feb565b5b02179055503373ffffffffffffffffffffffffffffffffffffffff16847f512d3e65b3e58c2187bb1872aa435dba5bd09c1c03823ba56ab70aac411e4a2184604051611bf89190612c30565b60405180910390a3505050611c0b6122c6565b50565b600560029054906101000a900473ffffffffffffffffffffffffffffffffffffffff1681565b606060066000838152602001908152602001600020600901805480602002602001604051908101604052809291908181526020018280548015611ccc57602002820191906000526020600020905b8160009054906101000a900473ffffffffffffffffffffffffffffffffffffffff1673ffffffffffffffffffffffffffffffffffffffff1681526020019060010190808311611c82575b50505050509050919050565b611ce18261058a565b611cea816120fd565b611cf483836122d7565b505050565b611d016121f1565b611d2b7f68e79a7bf1e0bc45d0a330c573bc367f9cf464fd326078812f301165fbda4ef13361104e565b80611d3f5750611d3e6000801b3361104e565b5b611d7e576040517f08c379a0000000000000000000000000000000000000000000000000000000008152600401611d7590613e16565b60405180910390fd5b600060066000838152602001908152602001600020905081816000015414611ddb576040517f08c379a0000000000000000000000000000000000000000000000000000000008152600401611dd290613188565b60405180910390fd5b60026005811115611def57611dee612feb565b5b8160080160009054906101000a900460ff166005811115611e1357611e12612feb565b5b1480611e54575060016005811115611e2e57611e2d612feb565b5b8160080160009054906101000a900460ff166005811115611e5257611e51612feb565b5b145b611e93576040517f08c379a0000000000000000000000000000000000000000000000000000000008152600401611e8a90613e82565b60405180910390fd5b80600601544211611ed9576040517f08c379a0000000000000000000000000000000000000000000000000000000008152600401611ed090613eee565b60405180910390fd5b60048160080160006101000a81548160ff02191690836005811115611f0157611f00612feb565b5b02179055503373ffffffffffffffffffffffffffffffffffffffff16827f13b88e6866f0156d706fecfa22b678de5fc2b749c1d2307f6f47eb541385f1ec60405160405180910390a350611f536122c6565b50565b60066020528060005260406000206000915090508060000154908060010154908060020160009054906101000a900473ffffffffffffffffffffffffffffffffffffffff16908060030154908060040154908060050154908060060154908060070154908060080160009054906101000a900460ff16905089565b6000806006600084815260200190815260200160002090508281600001541461202f576040517f08c379a000000000000000000000000000000000000000000000000000000000815260040161202690613188565b60405180910390fd5b6000612710826005015483600301546120489190613927565b6120529190613cf9565b90508082600301546120649190613969565b92505050919050565b600360009054906101000a900473ffffffffffffffffffffffffffffffffffffffff1681565b60007f01ffc9a7000000000000000000000000000000000000000000000000000000007bffffffffffffffffffffffffffffffffffffffffffffffffffffffff1916827bffffffffffffffffffffffffffffffffffffffffffffffffffffffff1916149050919050565b61210e816121096122cf565b612441565b50565b61211b828261104e565b6121ed57600160008084815260200190815260200160002060000160008373ffffffffffffffffffffffffffffffffffffffff1673ffffffffffffffffffffffffffffffffffffffff16815260200190815260200160002060006101000a81548160ff0219169083151502179055506121926122cf565b73ffffffffffffffffffffffffffffffffffffffff168173ffffffffffffffffffffffffffffffffffffffff16837f2f8788117e7eff1d82e926ec794901d17c78024a50270940304540a733656f0d60405160405180910390a45b5050565b600260015403612236576040517f08c379a000000000000000000000000000000000000000000000000000000000815260040161222d90613f5a565b60405180910390fd5b6002600181905550565b6122c18363a9059cbb60e01b848460405160240161225f929190613f7a565b604051602081830303815290604052907bffffffffffffffffffffffffffffffffffffffffffffffffffffffff19166020820180517bffffffffffffffffffffffffffffffffffffffffffffffffffffffff83818316178352505050506124c6565b505050565b60018081905550565b600033905090565b6122e1828261104e565b156123b457600080600084815260200190815260200160002060000160008373ffffffffffffffffffffffffffffffffffffffff1673ffffffffffffffffffffffffffffffffffffffff16815260200190815260200160002060006101000a81548160ff0219169083151502179055506123596122cf565b73ffffffffffffffffffffffffffffffffffffffff168173ffffffffffffffffffffffffffffffffffffffff16837ff6391f5c32d9c69d2a47ea670b442974b53935d1edc7fd64eb21e047a839171b60405160405180910390a45b5050565b61243b846323b872dd60e01b8585856040516024016123d993929190613c93565b604051602081830303815290604052907bffffffffffffffffffffffffffffffffffffffffffffffffffffffff19166020820180517bffffffffffffffffffffffffffffffffffffffffffffffffffffffff83818316178352505050506124c6565b50505050565b61244b828261104e565b6124c2576124588161258e565b6124668360001c60206125bb565b604051602001612477929190614082565b6040516020818303038152906040526040517f08c379a00000000000000000000000000000000000000000000000000000000081526004016124b991906140f5565b60405180910390fd5b5050565b6000612528826040518060400160405280602081526020017f5361666545524332303a206c6f772d6c6576656c2063616c6c206661696c65648152508573ffffffffffffffffffffffffffffffffffffffff166127f79092919063ffffffff16565b905060008151148061254a5750808060200190518101906125499190614117565b5b612589576040517f08c379a0000000000000000000000000000000000000000000000000000000008152600401612580906141b6565b60405180910390fd5b505050565b60606125b48273ffffffffffffffffffffffffffffffffffffffff16601460ff166125bb565b9050919050565b6060600060028360026125ce9190613927565b6125d89190613969565b67ffffffffffffffff8111156125f1576125f061352c565b5b6040519080825280601f01601f1916602001820160405280156126235781602001600182028036833780820191505090505b5090507f30000000000000000000000000000000000000000000000000000000000000008160008151811061265b5761265a613280565b5b60200101907effffffffffffffffffffffffffffffffffffffffffffffffffffffffffffff1916908160001a9053507f7800000000000000000000000000000000000000000000000000000000000000816001815181106126bf576126be613280565b5b60200101907effffffffffffffffffffffffffffffffffffffffffffffffffffffffffffff1916908160001a905350600060018460026126ff9190613927565b6127099190613969565b90505b60018111156127a9577f3031323334353637383961626364656600000000000000000000000000000000600f86166010811061274b5761274a613280565b5b1a60f81b82828151811061276257612761613280565b5b60200101907effffffffffffffffffffffffffffffffffffffffffffffffffffffffffffff1916908160001a905350600485901c9450806127a2906141d6565b905061270c565b50600084146127ed576040517f08c379a00000000000000000000000000000000000000000000000000000000081526004016127e49061424b565b60405180910390fd5b8091505092915050565b6060612806848460008561280f565b90509392505050565b606082471015612854576040517f08c379a000000000000000000000000000000000000000000000000000000000815260040161284b906142dd565b60405180910390fd5b6000808673ffffffffffffffffffffffffffffffffffffffff16858760405161287d9190614344565b60006040518083038185875af1925050503d80600081146128ba576040519150601f19603f3d011682016040523d82523d6000602084013e6128bf565b606091505b50915091506128d0878383876128dc565b92505050949350505050565b6060831561293e576000835103612936576128f685612951565b612935576040517f08c379a000000000000000000000000000000000000000000000000000000000815260040161292c906143a7565b60405180910390fd5b5b829050612949565b6129488383612974565b5b949350505050565b6000808273ffffffffffffffffffffffffffffffffffffffff163b119050919050565b6000825111156129875781518083602001fd5b806040517f08c379a00000000000000000000000000000000000000000000000000000000081526004016129bb91906140f5565b60405180910390fd5b6000604051905090565b600080fd5b600080fd5b60007fffffffff0000000000000000000000000000000000000000000000000000000082169050919050565b612a0d816129d8565b8114612a1857600080fd5b50565b600081359050612a2a81612a04565b92915050565b600060208284031215612a4657612a456129ce565b5b6000612a5484828501612a1b565b91505092915050565b60008115159050919050565b612a7281612a5d565b82525050565b6000602082019050612a8d6000830184612a69565b92915050565b6000819050919050565b612aa681612a93565b82525050565b6000602082019050612ac16000830184612a9d565b92915050565b612ad081612a93565b8114612adb57600080fd5b50565b600081359050612aed81612ac7565b92915050565b600060208284031215612b0957612b086129ce565b5b6000612b1784828501612ade565b91505092915050565b600073ffffffffffffffffffffffffffffffffffffffff82169050919050565b6000612b4b82612b20565b9050919050565b612b5b81612b40565b8114612b6657600080fd5b50565b600081359050612b7881612b52565b92915050565b60008060408385031215612b9557612b946129ce565b5b6000612ba385828601612ade565b9250506020612bb485828601612b69565b9150509250929050565b6000819050919050565b612bd181612bbe565b8114612bdc57600080fd5b50565b600081359050612bee81612bc8565b92915050565b600060208284031215612c0a57612c096129ce565b5b6000612c1884828501612bdf565b91505092915050565b612c2a81612bbe565b82525050565b6000602082019050612c456000830184612c21565b92915050565b600061ffff82169050919050565b612c6281612c4b565b82525050565b6000602082019050612c7d6000830184612c59565b92915050565b60008060408385031215612c9a57612c996129ce565b5b6000612ca885828601612bdf565b9250506020612cb985828601612b69565b9150509250929050565b6000612cce82612b40565b9050919050565b612cde81612cc3565b8114612ce957600080fd5b50565b600081359050612cfb81612cd5565b92915050565b600080600060608486031215612d1a57612d196129ce565b5b6000612d2886828701612cec565b9350506020612d3986828701612b69565b9250506040612d4a86828701612bdf565b9150509250925092565b6000819050919050565b6000612d79612d74612d6f84612b20565b612d54565b612b20565b9050919050565b6000612d8b82612d5e565b9050919050565b6000612d9d82612d80565b9050919050565b612dad81612d92565b82525050565b6000602082019050612dc86000830184612da4565b92915050565b60008060008060808587031215612de857612de76129ce565b5b6000612df687828801612bdf565b9450506020612e0787828801612bdf565b9350506040612e1887828801612bdf565b9250506060612e2987828801612bdf565b91505092959194509250565b612e3e81612c4b565b8114612e4957600080fd5b50565b600081359050612e5b81612e35565b92915050565b60008060408385031215612e7857612e776129ce565b5b6000612e8685828601612e4c565b9250506020612e9785828601612b69565b9150509250929050565b60008060408385031215612eb857612eb76129ce565b5b6000612ec685828601612bdf565b9250506020612ed785828601612bdf565b9150509250929050565b612eea81612b40565b82525050565b6000602082019050612f056000830184612ee1565b92915050565b600081519050919050565b600082825260208201905092915050565b6000819050602082019050919050565b612f4081612b40565b82525050565b6000612f528383612f37565b60208301905092915050565b6000602082019050919050565b6000612f7682612f0b565b612f808185612f16565b9350612f8b83612f27565b8060005b83811015612fbc578151612fa38882612f46565b9750612fae83612f5e565b925050600181019050612f8f565b5085935050505092915050565b60006020820190508181036000830152612fe38184612f6b565b905092915050565b7f4e487b7100000000000000000000000000000000000000000000000000000000600052602160045260246000fd5b6006811061302b5761302a612feb565b5b50565b600081905061303c8261301a565b919050565b600061304c8261302e565b9050919050565b61305c81613041565b82525050565b600061012082019050613078600083018c612c21565b613085602083018b612c21565b613092604083018a612ee1565b61309f6060830189612c21565b6130ac6080830188612c21565b6130b960a0830187612c21565b6130c660c0830186612c21565b6130d360e0830185612c21565b6130e1610100830184613053565b9a9950505050505050505050565b60006130fa82612d80565b9050919050565b61310a816130ef565b82525050565b60006020820190506131256000830184613101565b92915050565b600082825260208201905092915050565b7f6e6f742065786973740000000000000000000000000000000000000000000000600082015250565b600061317260098361312b565b915061317d8261313c565b602082019050919050565b600060208201905081810360008301526131a181613165565b9050919050565b7f63616e6e6f742063616e63656c00000000000000000000000000000000000000600082015250565b60006131de600d8361312b565b91506131e9826131a8565b602082019050919050565b6000602082019050818103600083015261320d816131d1565b9050919050565b7f6e6f7420626f72726f7765720000000000000000000000000000000000000000600082015250565b600061324a600c8361312b565b915061325582613214565b602082019050919050565b600060208201905081810360008301526132798161323d565b9050919050565b7f4e487b7100000000000000000000000000000000000000000000000000000000600052603260045260246000fd5b7f4e487b7100000000000000000000000000000000000000000000000000000000600052601160045260246000fd5b60006132e982612bbe565b91507fffffffffffffffffffffffffffffffffffffffffffffffffffffffffffffffff820361331b5761331a6132af565b5b600182019050919050565b7f416363657373436f6e74726f6c3a2063616e206f6e6c792072656e6f756e636560008201527f20726f6c657320666f722073656c660000000000000000000000000000000000602082015250565b6000613382602f8361312b565b915061338d82613326565b604082019050919050565b600060208201905081810360008301526133b181613375565b9050919050565b7f77697468647261776572206f6e6c790000000000000000000000000000000000600082015250565b60006133ee600f8361312b565b91506133f9826133b8565b602082019050919050565b6000602082019050818103600083015261341d816133e1565b9050919050565b7f7072696e636970616c3e30000000000000000000000000000000000000000000600082015250565b600061345a600b8361312b565b915061346582613424565b602082019050919050565b600060208201905081810360008301526134898161344d565b9050919050565b7f62616420696e7465726573740000000000000000000000000000000000000000600082015250565b60006134c6600c8361312b565b91506134d182613490565b602082019050919050565b600060208201905081810360008301526134f5816134b9565b9050919050565b60008151905061350b81612bc8565b92915050565b600080fd5b600080fd5b6000601f19601f8301169050919050565b7f4e487b7100000000000000000000000000000000000000000000000000000000600052604160045260246000fd5b6135648261351b565b810181811067ffffffffffffffff821117156135835761358261352c565b5b80604052505050565b60006135966129c4565b90506135a2828261355b565b919050565b600067ffffffffffffffff8211156135c2576135c161352c565b5b6135cb8261351b565b9050602081019050919050565b60005b838110156135f65780820151818401526020810190506135db565b60008484015250505050565b6000613615613610846135a7565b61358c565b90508281526020810184848401111561363157613630613516565b5b61363c8482856135d8565b509392505050565b600082601f83011261365957613658613511565b5b8151613669848260208601613602565b91505092915050565b61367b81612a5d565b811461368657600080fd5b50565b60008151905061369881613672565b92915050565b6000815190506136ad81612b52565b92915050565b600080600080600060a086880312156136cf576136ce6129ce565b5b60006136dd888289016134fc565b95505060206136ee888289016134fc565b945050604086015167ffffffffffffffff81111561370f5761370e6129d3565b5b61371b88828901613644565b935050606061372c88828901613689565b925050608061373d8882890161369e565b9150509295509295909350565b7f696e766f696365206e6f74207665726966696564000000000000000000000000600082015250565b600061378060148361312b565b915061378b8261374a565b602082019050919050565b600060208201905081810360008301526137af81613773565b9050919050565b6000602082840312156137cc576137cb6129ce565b5b60006137da8482850161369e565b91505092915050565b7f6e6f74206f776e65720000000000000000000000000000000000000000000000600082015250565b600061381960098361312b565b9150613824826137e3565b602082019050919050565b600060208201905081810360008301526138488161380c565b9050919050565b7f6475726174696f6e206461797300000000000000000000000000000000000000600082015250565b6000613885600d8361312b565b91506138908261384f565b602082019050919050565b600060208201905081810360008301526138b481613878565b9050919050565b7f7072696e636970616c203e20696e766f69636520616d6f756e74000000000000600082015250565b60006138f1601a8361312b565b91506138fc826138bb565b602082019050919050565b60006020820190508181036000830152613920816138e4565b9050919050565b600061393282612bbe565b915061393d83612bbe565b925082820261394b81612bbe565b91508282048414831517613962576139616132af565b5b5092915050565b600061397482612bbe565b915061397f83612bbe565b9250828201905080821115613997576139966132af565b5b92915050565b60006080820190506139b26000830187612ee1565b6139bf6020830186612c21565b6139cc6040830185612c21565b6139d96060830184612c21565b95945050505050565b7f61646d696e206f6e6c7900000000000000000000000000000000000000000000600082015250565b6000613a18600a8361312b565b9150613a23826139e2565b602082019050919050565b60006020820190508181036000830152613a4781613a0b565b9050919050565b7f6665652063617000000000000000000000000000000000000000000000000000600082015250565b6000613a8460078361312b565b9150613a8f82613a4e565b602082019050919050565b60006020820190508181036000830152613ab381613a77565b9050919050565b7f6c6f616e20657869737473000000000000000000000000000000000000000000600082015250565b6000613af0600b8361312b565b9150613afb82613aba565b602082019050919050565b60006020820190508181036000830152613b1f81613ae3565b9050919050565b7f6e6f742066756e64696e67000000000000000000000000000000000000000000600082015250565b6000613b5c600b8361312b565b9150613b6782613b26565b602082019050919050565b60006020820190508181036000830152613b8b81613b4f565b9050919050565b7f616d6f756e743e30000000000000000000000000000000000000000000000000600082015250565b6000613bc860088361312b565b9150613bd382613b92565b602082019050919050565b60006020820190508181036000830152613bf781613bbb565b9050919050565b7f6f76657266756e64000000000000000000000000000000000000000000000000600082015250565b6000613c3460088361312b565b9150613c3f82613bfe565b602082019050919050565b60006020820190508181036000830152613c6381613c27565b9050919050565b6000604082019050613c7f6000830185612c21565b613c8c6020830184612c21565b9392505050565b6000606082019050613ca86000830186612ee1565b613cb56020830185612ee1565b613cc26040830184612c21565b949350505050565b7f4e487b7100000000000000000000000000000000000000000000000000000000600052601260045260246000fd5b6000613d0482612bbe565b9150613d0f83612bbe565b925082613d1f57613d1e613cca565b5b828204905092915050565b6000613d3582612bbe565b9150613d4083612bbe565b9250828203905081811115613d5857613d576132af565b5b92915050565b7f6e6f742066756e64656400000000000000000000000000000000000000000000600082015250565b6000613d94600a8361312b565b9150613d9f82613d5e565b602082019050919050565b60006020820190508181036000830152613dc381613d87565b9050919050565b7f6f7261636c652f61646d696e206f6e6c79000000000000000000000000000000600082015250565b6000613e0060118361312b565b9150613e0b82613dca565b602082019050919050565b60006020820190508181036000830152613e2f81613df3565b9050919050565b7f6261642073746174650000000000000000000000000000000000000000000000600082015250565b6000613e6c60098361312b565b9150613e7782613e36565b602082019050919050565b60006020820190508181036000830152613e9b81613e5f565b9050919050565b7f6e6f742070617374206475650000000000000000000000000000000000000000600082015250565b6000613ed8600c8361312b565b9150613ee382613ea2565b602082019050919050565b60006020820190508181036000830152613f0781613ecb565b9050919050565b7f5265656e7472616e637947756172643a207265656e7472616e742063616c6c00600082015250565b6000613f44601f8361312b565b9150613f4f82613f0e565b602082019050919050565b60006020820190508181036000830152613f7381613f37565b9050919050565b6000604082019050613f8f6000830185612ee1565b613f9c6020830184612c21565b9392505050565b600081905092915050565b7f416363657373436f6e74726f6c3a206163636f756e7420000000000000000000600082015250565b6000613fe4601783613fa3565b9150613fef82613fae565b601782019050919050565b600081519050919050565b600061401082613ffa565b61401a8185613fa3565b935061402a8185602086016135d8565b80840191505092915050565b7f206973206d697373696e6720726f6c6520000000000000000000000000000000600082015250565b600061406c601183613fa3565b915061407782614036565b601182019050919050565b600061408d82613fd7565b91506140998285614005565b91506140a48261405f565b91506140b08284614005565b91508190509392505050565b60006140c782613ffa565b6140d1818561312b565b93506140e18185602086016135d8565b6140ea8161351b565b840191505092915050565b6000602082019050818103600083015261410f81846140bc565b905092915050565b60006020828403121561412d5761412c6129ce565b5b600061413b84828501613689565b91505092915050565b7f5361666545524332303a204552433230206f7065726174696f6e20646964206e60008201527f6f74207375636365656400000000000000000000000000000000000000000000602082015250565b60006141a0602a8361312b565b91506141ab82614144565b604082019050919050565b600060208201905081810360008301526141cf81614193565b9050919050565b60006141e182612bbe565b9150600082036141f4576141f36132af565b5b600182039050919050565b7f537472696e67733a20686578206c656e67746820696e73756666696369656e74600082015250565b600061423560208361312b565b9150614240826141ff565b602082019050919050565b6000602082019050818103600083015261426481614228565b9050919050565b7f416464726573733a20696e73756666696369656e742062616c616e636520666f60008201527f722063616c6c0000000000000000000000000000000000000000000000000000602082015250565b60006142c760268361312b565b91506142d28261426b565b604082019050919050565b600060208201905081810360008301526142f6816142ba565b9050919050565b600081519050919050565b600081905092915050565b600061431e826142fd565b6143288185614308565b93506143388185602086016135d8565b80840191505092915050565b60006143508284614313565b915081905092915050565b7f416464726573733a2063616c6c20746f206e6f6e2d636f6e7472616374000000600082015250565b6000614391601d8361312b565b915061439c8261435b565b602082019050919050565b600060208201905081810360008301526143c081614384565b905091905056fea264697066735822122071feaf5c6b0909f5921a63611bb6d6eb495d450a848fb7e6c575837272969cf964736f6c63430008130033",
  "linkReferences": {},
  "deployedLinkReferences": {}
}