{
  "_format": "hh-sol-artifact-1",
  "contractName": "Pool",
  "sourceName": "contracts/Pool.sol",
  "abi": [
    {
      "inputs": [
        {
          "internalType": "address",
          "name": "_stablecoin",
          "type": "address"
        },
        {
          "internalType": "address",
          "name": "_loanManager",
          "type": "address"
        },
        {
          "internalType": "address",
          "name": "admin",
          "type": "address"
        }
      ],
      "stateMutability": "nonpayable",
      "type": "constructor"
    },
    {
      "anonymous": false,
      "inputs": [
        {
          "indexed": true,
          "internalType": "address",
          "name": "who",
          "type": "address"
        },
        {
          "indexed": false,
          "internalType": "uint256",
          "name": "amount",
          "type": "uint256"
        }
      ],
      "name": "Deposit",
      "type": "event"
    },
    {
      "anonymous": false,
      "inputs": [
        {
          "indexed": true,
          "internalType": "address",
          "name": "manager",
          "type": "address"
        },
        {
          "indexed": false,
          "internalType": "uint256",
          "name": "loanId",
          "type": "uint256"
        },
        {
          "indexed": false,
          "internalType": "uint256",
          "name": "amount",
          "type": "uint256"
        }
      ],
      "name": "FundedLoan",
      "type": "event"
    },
    {
      "anonymous": false,
      "inputs": [
        {
          "indexed": true,
          "internalType": "bytes32",
          "name": "role",
          "type": "bytes32"
        },
        {
          "indexed": true,
          "internalType": "bytes32",
          "name": "previousAdminRole",
          "type": "bytes32"
        },
        {
          "indexed": true,
          "internalType": "bytes32",
          "name": "newAdminRole",
          "type": "bytes32"
        }
      ],
      "name": "RoleAdminChanged",
      "type": "event"
    },
    {
      "anonymous": false,
      "inputs": [
        {
          "indexed": true,
          "internalType": "bytes32",
          "name": "role",
          "type": "bytes32"
        },
        {
          "indexed": true,
          "internalType": "address",
          "name": "account",
          "type": "address"
        },
        {
          "indexed": true,
          "internalType": "address",
          "name": "sender",
          "type": "address"
        }
      ],
      "name": "RoleGranted",
      "type": "event"
    },
    {
      "anonymous": false,
      "inputs": [
        {
          "indexed": true,
          "internalType": "bytes32",
          "name": "role",
          "type": "bytes32"
        },
        {
          "indexed": true,
          "internalType": "address",
          "name": "account",
          "type": "address"
        },
        {
          "indexed": true,
          "internalType": "address",
          "name": "sender",
          "type": "address"
        }
      ],
      "name": "RoleRevoked",
      "type": "event"
    },
    {
      "anonymous": false,
      "inputs": [
        {
          "indexed": true,
          "internalType": "address",
          "name": "who",
          "type": "address"
        },
        {
          "indexed": false,
          "internalType": "uint256",
          "name": "amount",
          "type": "uint256"
        }
      ],
      "name": "Withdraw",
      "type": "event"
    },
    {
      "inputs": [],
      "name": "DEFAULT_ADMIN_ROLE",
      "outputs": [
        {
          "internalType": "bytes32",
          "name": "",
          "type": "bytes32"
        }
      ],
      "stateMutability": "view",
      "type": "function"
    },
    {
      "inputs": [],
      "name": "MANAGER_ROLE",
      "outputs": [
        {
          "internalType": "bytes32",
          "name": "",
          "type": "bytes32"
        }
      ],
      "stateMutability": "view",
      "type": "function"
    },
    {
      "inputs": [
        {
          "internalType": "address",
          "name": "",
          "type": "address"
        }
      ],
      "name": "balances",
      "outputs": [
        {
          "internalType": "uint256",
          "name": "",
          "type": "uint256"
        }
      ],
      "stateMutability": "view",
      "type": "function"
    },
    {
      "inputs": [
        {
          "internalType": "uint256",
          "name": "amount",
          "type": "uint256"
        }
      ],
      "name": "deposit",
      "outputs": [],
      "stateMutability": "nonpayable",
      "type": "function"
    },
    {
      "inputs": [
        {
          "internalType": "uint256",
          "name": "loanId",
          "type": "uint256"
        },
        {
          "internalType": "uint256",
          "name": "amount",
          "type": "uint256"
        }
      ],
      "name": "fundLoan",
      "outputs": [],
      "stateMutability": "nonpayable",
      "type": "function"
    },
    {
      "inputs": [
        {
          "internalType": "bytes32",
          "name": "role",
          "type": "bytes32"
        }
      ],
      "name": "getRoleAdmin",
      "outputs": [
        {
          "internalType": "bytes32",
          "name": "",
          "type": "bytes32"
        }
      ],
      "stateMutability": "view",
      "type": "function"
    },
    {
      "inputs": [
        {
          "internalType": "bytes32",
          "name": "role",
          "type": "bytes32"
        },
        {
          "internalType": "address",
          "name": "account",
          "type": "address"
        }
      ],
      "name": "grantRole",
      "outputs": [],
      "stateMutability": "nonpayable",
      "type": "function"
    },
    {
      "inputs": [
        {
          "internalType": "bytes32",
          "name": "role",
          "type": "bytes32"
        },
        {
          "internalType": "address",
          "name": "account",
          "type": "address"
        }
      ],
      "name": "hasRole",
      "outputs": [
        {
          "internalType": "bool",
          "name": "",
          "type": "bool"
        }
      ],
      "stateMutability": "view",
      "type": "function"
    },
    {
      "inputs": [],
      "name": "loanManager",
      "outputs": [
        {
          "internalType": "contract ILoanManager",
          "name": "",
          "type": "address"
        }
      ],
      "stateMutability": "view",
      "type": "function"
    },
    {
      "inputs": [
        {
          "internalType": "bytes32",
          "name": "role",
          "type": "bytes32"
        },
        {
          "internalType": "address",
          "name": "account",
          "type": "address"
        }
      ],
      "name": "renounceRole",
      "outputs": [],
      "stateMutability": "nonpayable",
      "type": "function"
    },
    {
      "inputs": [
        {
          "internalType": "bytes32",
          "name": "role",
          "type": "bytes32"
        },
        {
          "internalType": "address",
          "name": "account",
          "type": "address"
        }
      ],
      "name": "revokeRole",
      "outputs": [],
      "stateMutability": "nonpayable",
      "type": "function"
    },
    {
      "inputs": [],
      "name": "stablecoin",
      "outputs": [
        {
          "internalType": "contract IERC20",
          "name": "",
          "type": "address"
        }
      ],
      "stateMutability": "view",
      "type": "function"
    },
    {
      "inputs": [
        {
          "internalType": "bytes4",
          "name": "interfaceId",
          "type": "bytes4"
        }
      ],
      "name": "supportsInterface",
      "outputs": [
        {
          "internalType": "bool",
          "name": "",
          "type": "bool"
        }
      ],
      "stateMutability": "view",
      "type": "function"
    },
    {
      "inputs": [],
      "name": "totalDeposits",
      "outputs": [
        {
          "internalType": "uint256",
          "name": "",
          "type": "uint256"
        }
      ],
      "stateMutability": "view",
      "type": "function"
    },
    {
      "inputs": [
        {
          "internalType": "uint256",
          "name": "amount",
          "type": "uint256"
        }
      ],
      "name": "withdraw",
      "outputs": [],
      "stateMutability": "nonpayable",
      "type": "function"
    }
  ],
  "bytecode": "0x60806040523480156200001157600080fd5b50604051620024a5380380620024a58339818101604052810190620000379190620003a4565b600073ffffffffffffffffffffffffffffffffffffffff168373ffffffffffffffffffffffffffffffffffffffff1614158015620000a25750600073ffffffffffffffffffffffffffffffffffffffff168273ffffffffffffffffffffffffffffffffffffffff1614155b620000e4576040517f08c379a0000000000000000000000000000000000000000000000000000000008152600401620000db9062000461565b60405180910390fd5b82600160006101000a81548173ffffffffffffffffffffffffffffffffffffffff021916908373ffffffffffffffffffffffffffffffffffffffff16021790555081600260006101000a81548173ffffffffffffffffffffffffffffffffffffffff021916908373ffffffffffffffffffffffffffffffffffffffff160217905550620001b86000801b600073ffffffffffffffffffffffffffffffffffffffff168373ffffffffffffffffffffffffffffffffffffffff1614620001aa5782620001ac565b335b620001c160201b60201c565b50505062000483565b620001d38282620001d760201b60201c565b5050565b620001e98282620002c860201b60201c565b620002c457600160008084815260200190815260200160002060000160008373ffffffffffffffffffffffffffffffffffffffff1673ffffffffffffffffffffffffffffffffffffffff16815260200190815260200160002060006101000a81548160ff021916908315150217905550620002696200033260201b60201c565b73ffffffffffffffffffffffffffffffffffffffff168173ffffffffffffffffffffffffffffffffffffffff16837f2f8788117e7eff1d82e926ec794901d17c78024a50270940304540a733656f0d60405160405180910390a45b5050565b600080600084815260200190815260200160002060000160008373ffffffffffffffffffffffffffffffffffffffff1673ffffffffffffffffffffffffffffffffffffffff16815260200190815260200160002060009054906101000a900460ff16905092915050565b600033905090565b600080fd5b600073ffffffffffffffffffffffffffffffffffffffff82169050919050565b60006200036c826200033f565b9050919050565b6200037e816200035f565b81146200038a57600080fd5b50565b6000815190506200039e8162000373565b92915050565b600080600060608486031215620003c057620003bf6200033a565b5b6000620003d0868287016200038d565b9350506020620003e3868287016200038d565b9250506040620003f6868287016200038d565b9150509250925092565b600082825260208201905092915050565b7f7a65726f00000000000000000000000000000000000000000000000000000000600082015250565b60006200044960048362000400565b9150620004568262000411565b602082019050919050565b600060208201905081810360008301526200047c816200043a565b9050919050565b61201280620004936000396000f3fe608060405234801561001057600080fd5b50600436106100f55760003560e01c806391d1485411610097578063d547741f11610066578063d547741f14610284578063e9cbd822146102a0578063ec87621c146102be578063f4512bb6146102dc576100f5565b806391d14854146101fc578063a217fddf1461022c578063b3ccbcfe1461024a578063b6b55f2514610268576100f5565b80632e1a7d4d116100d35780632e1a7d4d1461018a5780632f2ff15d146101a657806336568abe146101c25780637d882097146101de576100f5565b806301ffc9a7146100fa578063248a9ca31461012a57806327e235e31461015a575b600080fd5b610114600480360381019061010f91906113f1565b6102f8565b6040516101219190611439565b60405180910390f35b610144600480360381019061013f919061148a565b610372565b60405161015191906114c6565b60405180910390f35b610174600480360381019061016f919061153f565b610391565b6040516101819190611585565b60405180910390f35b6101a4600480360381019061019f91906115cc565b6103a9565b005b6101c060048036038101906101bb91906115f9565b610544565b005b6101dc60048036038101906101d791906115f9565b610565565b005b6101e66105e8565b6040516101f39190611585565b60405180910390f35b610216600480360381019061021191906115f9565b6105ee565b6040516102239190611439565b60405180910390f35b610234610658565b60405161024191906114c6565b60405180910390f35b61025261065f565b60405161025f9190611698565b60405180910390f35b610282600480360381019061027d91906115cc565b610685565b005b61029e600480360381019061029991906115f9565b6107d7565b005b6102a86107f8565b6040516102b591906116d4565b60405180910390f35b6102c661081e565b6040516102d391906114c6565b60405180910390f35b6102f660048036038101906102f191906116ef565b610842565b005b60007f7965db0b000000000000000000000000000000000000000000000000000000007bffffffffffffffffffffffffffffffffffffffffffffffffffffffff1916827bffffffffffffffffffffffffffffffffffffffffffffffffffffffff1916148061036b575061036a82610abb565b5b9050919050565b6000806000838152602001908152602001600020600101549050919050565b60036020528060005260406000206000915090505481565b6000811180156103f8575080600360003373ffffffffffffffffffffffffffffffffffffffff1673ffffffffffffffffffffffffffffffffffffffff1681526020019081526020016000205410155b610437576040517f08c379a000000000000000000000000000000000000000000000000000000000815260040161042e9061178c565b60405180910390fd5b80600360003373ffffffffffffffffffffffffffffffffffffffff1673ffffffffffffffffffffffffffffffffffffffff168152602001908152602001600020600082825461048691906117db565b92505081905550806004600082825461049f91906117db565b925050819055506104f33382600160009054906101000a900473ffffffffffffffffffffffffffffffffffffffff1673ffffffffffffffffffffffffffffffffffffffff16610b259092919063ffffffff16565b3373ffffffffffffffffffffffffffffffffffffffff167f884edad9ce6fa2440d8a54cc123490eb96d2768479d49ff9c7366125a9424364826040516105399190611585565b60405180910390a250565b61054d82610372565b61055681610bab565b6105608383610bbf565b505050565b61056d610c9f565b73ffffffffffffffffffffffffffffffffffffffff168173ffffffffffffffffffffffffffffffffffffffff16146105da576040517f08c379a00000000000000000000000000000000000000000000000000000000081526004016105d190611881565b60405180910390fd5b6105e48282610ca7565b5050565b60045481565b600080600084815260200190815260200160002060000160008373ffffffffffffffffffffffffffffffffffffffff1673ffffffffffffffffffffffffffffffffffffffff16815260200190815260200160002060009054906101000a900460ff16905092915050565b6000801b81565b600260009054906101000a900473ffffffffffffffffffffffffffffffffffffffff1681565b600081116106c8576040517f08c379a00000000000000000000000000000000000000000000000000000000081526004016106bf906118ed565b60405180910390fd5b610717333083600160009054906101000a900473ffffffffffffffffffffffffffffffffffffffff1673ffffffffffffffffffffffffffffffffffffffff16610d88909392919063ffffffff16565b80600360003373ffffffffffffffffffffffffffffffffffffffff1673ffffffffffffffffffffffffffffffffffffffff1681526020019081526020016000206000828254610766919061190d565b92505081905550806004600082825461077f919061190d565b925050819055503373ffffffffffffffffffffffffffffffffffffffff167fe1fffcc4923d04b559f4d29a8bfc6cda04eb5b0d3c460751c2402c5c5cc9109c826040516107cc9190611585565b60405180910390a250565b6107e082610372565b6107e981610bab565b6107f38383610ca7565b505050565b600160009054906101000a900473ffffffffffffffffffffffffffffffffffffffff1681565b7f241ecf16d79d0f8dbfb92cbc07fe17840425976cf0667f022fe9877caa831b0881565b61086c7f241ecf16d79d0f8dbfb92cbc07fe17840425976cf0667f022fe9877caa831b08336105ee565b6108ab576040517f08c379a00000000000000000000000000000000000000000000000000000000081526004016108a29061198d565b60405180910390fd5b6000811180156108bd57508060045410155b6108fc576040517f08c379a00000000000000000000000000000000000000000000000000000000081526004016108f3906119f9565b60405180910390fd5b806004600082825461090e91906117db565b92505081905550600160009054906101000a900473ffffffffffffffffffffffffffffffffffffffff1673ffffffffffffffffffffffffffffffffffffffff1663095ea7b3600260009054906101000a900473ffffffffffffffffffffffffffffffffffffffff16836040518363ffffffff1660e01b8152600401610994929190611a28565b6020604051808303816000875af11580156109b3573d6000803e3d6000fd5b505050506040513d601f19601f820116820180604052508101906109d79190611a7d565b50600260009054906101000a900473ffffffffffffffffffffffffffffffffffffffff1673ffffffffffffffffffffffffffffffffffffffff1663a190b5cd83836040518363ffffffff1660e01b8152600401610a35929190611aaa565b600060405180830381600087803b158015610a4f57600080fd5b505af1158015610a63573d6000803e3d6000fd5b505050503373ffffffffffffffffffffffffffffffffffffffff167fa6b0569005976aef1eafd1d47acf81c1d8043adc052eba336520b5c5e016b8318383604051610aaf929190611aaa565b60405180910390a25050565b60007f01ffc9a7000000000000000000000000000000000000000000000000000000007bffffffffffffffffffffffffffffffffffffffffffffffffffffffff1916827bffffffffffffffffffffffffffffffffffffffffffffffffffffffff1916149050919050565b610ba68363a9059cbb60e01b8484604051602401610b44929190611a28565b604051602081830303815290604052907bffffffffffffffffffffffffffffffffffffffffffffffffffffffff19166020820180517bffffffffffffffffffffffffffffffffffffffffffffffffffffffff8381831617835250505050610e11565b505050565b610bbc81610bb7610c9f565b610ed9565b50565b610bc982826105ee565b610c9b57600160008084815260200190815260200160002060000160008373ffffffffffffffffffffffffffffffffffffffff1673ffffffffffffffffffffffffffffffffffffffff16815260200190815260200160002060006101000a81548160ff021916908315150217905550610c40610c9f565b73ffffffffffffffffffffffffffffffffffffffff168173ffffffffffffffffffffffffffffffffffffffff16837f2f8788117e7eff1d82e926ec794901d17c78024a50270940304540a733656f0d60405160405180910390a45b5050565b600033905090565b610cb182826105ee565b15610d8457600080600084815260200190815260200160002060000160008373ffffffffffffffffffffffffffffffffffffffff1673ffffffffffffffffffffffffffffffffffffffff16815260200190815260200160002060006101000a81548160ff021916908315150217905550610d29610c9f565b73ffffffffffffffffffffffffffffffffffffffff168173ffffffffffffffffffffffffffffffffffffffff16837ff6391f5c32d9c69d2a47ea670b442974b53935d1edc7fd64eb21e047a839171b60405160405180910390a45b5050565b610e0b846323b872dd60e01b858585604051602401610da993929190611ad3565b604051602081830303815290604052907bffffffffffffffffffffffffffffffffffffffffffffffffffffffff19166020820180517bffffffffffffffffffffffffffffffffffffffffffffffffffffffff8381831617835250505050610e11565b50505050565b6000610e73826040518060400160405280602081526020017f5361666545524332303a206c6f772d6c6576656c2063616c6c206661696c65648152508573ffffffffffffffffffffffffffffffffffffffff16610f5e9092919063ffffffff16565b9050600081511480610e95575080806020019051810190610e949190611a7d565b5b610ed4576040517f08c379a0000000000000000000000000000000000000000000000000000000008152600401610ecb90611b7c565b60405180910390fd5b505050565b610ee382826105ee565b610f5a57610ef081610f76565b610efe8360001c6020610fa3565b604051602001610f0f929190611ca5565b6040516020818303038152906040526040517f08c379a0000000000000000000000000000000000000000000000000000000008152600401610f519190611d29565b60405180910390fd5b5050565b6060610f6d84846000856111df565b90509392505050565b6060610f9c8273ffffffffffffffffffffffffffffffffffffffff16601460ff16610fa3565b9050919050565b606060006002836002610fb69190611d4b565b610fc0919061190d565b67ffffffffffffffff811115610fd957610fd8611d8d565b5b6040519080825280601f01601f19166020018201604052801561100b5781602001600182028036833780820191505090505b5090507f30000000000000000000000000000000000000000000000000000000000000008160008151811061104357611042611dbc565b5b60200101907effffffffffffffffffffffffffffffffffffffffffffffffffffffffffffff1916908160001a9053507f7800000000000000000000000000000000000000000000000000000000000000816001815181106110a7576110a6611dbc565b5b60200101907effffffffffffffffffffffffffffffffffffffffffffffffffffffffffffff1916908160001a905350600060018460026110e79190611d4b565b6110f1919061190d565b90505b6001811115611191577f3031323334353637383961626364656600000000000000000000000000000000600f86166010811061113357611132611dbc565b5b1a60f81b82828151811061114a57611149611dbc565b5b60200101907effffffffffffffffffffffffffffffffffffffffffffffffffffffffffffff1916908160001a905350600485901c94508061118a90611deb565b90506110f4565b50600084146111d5576040517f08c379a00000000000000000000000000000000000000000000000000000000081526004016111cc90611e60565b60405180910390fd5b8091505092915050565b606082471015611224576040517f08c379a000000000000000000000000000000000000000000000000000000000815260040161121b90611ef2565b60405180910390fd5b6000808673ffffffffffffffffffffffffffffffffffffffff16858760405161124d9190611f59565b60006040518083038185875af1925050503d806000811461128a576040519150601f19603f3d011682016040523d82523d6000602084013e61128f565b606091505b50915091506112a0878383876112ac565b92505050949350505050565b6060831561130e576000835103611306576112c685611321565b611305576040517f08c379a00000000000000000000000000000000000000000000000000000000081526004016112fc90611fbc565b60405180910390fd5b5b829050611319565b6113188383611344565b5b949350505050565b6000808273ffffffffffffffffffffffffffffffffffffffff163b119050919050565b6000825111156113575781518083602001fd5b806040517f08c379a000000000000000000000000000000000000000000000000000000000815260040161138b9190611d29565b60405180910390fd5b600080fd5b60007fffffffff0000000000000000000000000000000000000000000000000000000082169050919050565b6113ce81611399565b81146113d957600080fd5b50565b6000813590506113eb816113c5565b92915050565b60006020828403121561140757611406611394565b5b6000611415848285016113dc565b91505092915050565b60008115159050919050565b6114338161141e565b82525050565b600060208201905061144e600083018461142a565b92915050565b6000819050919050565b61146781611454565b811461147257600080fd5b50565b6000813590506114848161145e565b92915050565b6000602082840312156114a05761149f611394565b5b60006114ae84828501611475565b91505092915050565b6114c081611454565b82525050565b60006020820190506114db60008301846114b7565b92915050565b600073ffffffffffffffffffffffffffffffffffffffff82169050919050565b600061150c826114e1565b9050919050565b61151c81611501565b811461152757600080fd5b50565b60008135905061153981611513565b92915050565b60006020828403121561155557611554611394565b5b60006115638482850161152a565b91505092915050565b6000819050919050565b61157f8161156c565b82525050565b600060208201905061159a6000830184611576565b92915050565b6115a98161156c565b81146115b457600080fd5b50565b6000813590506115c6816115a0565b92915050565b6000602082840312156115e2576115e1611394565b5b60006115f0848285016115b7565b91505092915050565b600080604083850312156116105761160f611394565b5b600061161e85828601611475565b925050602061162f8582860161152a565b9150509250929050565b6000819050919050565b600061165e611659611654846114e1565b611639565b6114e1565b9050919050565b600061167082611643565b9050919050565b600061168282611665565b9050919050565b61169281611677565b82525050565b60006020820190506116ad6000830184611689565b92915050565b60006116be82611665565b9050919050565b6116ce816116b3565b82525050565b60006020820190506116e960008301846116c5565b92915050565b6000806040838503121561170657611705611394565b5b6000611714858286016115b7565b9250506020611725858286016115b7565b9150509250929050565b600082825260208201905092915050565b7f696e73756666696369656e740000000000000000000000000000000000000000600082015250565b6000611776600c8361172f565b915061178182611740565b602082019050919050565b600060208201905081810360008301526117a581611769565b9050919050565b7f4e487b7100000000000000000000000000000000000000000000000000000000600052601160045260246000fd5b60006117e68261156c565b91506117f18361156c565b9250828203905081811115611809576118086117ac565b5b92915050565b7f416363657373436f6e74726f6c3a2063616e206f6e6c792072656e6f756e636560008201527f20726f6c657320666f722073656c660000000000000000000000000000000000602082015250565b600061186b602f8361172f565b91506118768261180f565b604082019050919050565b6000602082019050818103600083015261189a8161185e565b9050919050565b7f616d6f756e743e30000000000000000000000000000000000000000000000000600082015250565b60006118d760088361172f565b91506118e2826118a1565b602082019050919050565b60006020820190508181036000830152611906816118ca565b9050919050565b60006119188261156c565b91506119238361156c565b925082820190508082111561193b5761193a6117ac565b5b92915050565b7f6d616e61676572206f6e6c790000000000000000000000000000000000000000600082015250565b6000611977600c8361172f565b915061198282611941565b602082019050919050565b600060208201905081810360008301526119a68161196a565b9050919050565b7f696e73756666696369656e7420706f6f6c000000000000000000000000000000600082015250565b60006119e360118361172f565b91506119ee826119ad565b602082019050919050565b60006020820190508181036000830152611a12816119d6565b9050919050565b611a2281611501565b82525050565b6000604082019050611a3d6000830185611a19565b611a4a6020830184611576565b9392505050565b611a5a8161141e565b8114611a6557600080fd5b50565b600081519050611a7781611a51565b92915050565b600060208284031215611a9357611a92611394565b5b6000611aa184828501611a68565b91505092915050565b6000604082019050611abf6000830185611576565b611acc6020830184611576565b9392505050565b6000606082019050611ae86000830186611a19565b611af56020830185611a19565b611b026040830184611576565b949350505050565b7f5361666545524332303a204552433230206f7065726174696f6e20646964206e60008201527f6f74207375636365656400000000000000000000000000000000000000000000602082015250565b6000611b66602a8361172f565b9150611b7182611b0a565b604082019050919050565b60006020820190508181036000830152611b9581611b59565b9050919050565b600081905092915050565b7f416363657373436f6e74726f6c3a206163636f756e7420000000000000000000600082015250565b6000611bdd601783611b9c565b9150611be882611ba7565b601782019050919050565b600081519050919050565b60005b83811015611c1c578082015181840152602081019050611c01565b60008484015250505050565b6000611c3382611bf3565b611c3d8185611b9c565b9350611c4d818560208601611bfe565b80840191505092915050565b7f206973206d697373696e6720726f6c6520000000000000000000000000000000600082015250565b6000611c8f601183611b9c565b9150611c9a82611c59565b601182019050919050565b6000611cb082611bd0565b9150611cbc8285611c28565b9150611cc782611c82565b9150611cd38284611c28565b91508190509392505050565b6000601f19601f8301169050919050565b6000611cfb82611bf3565b611d05818561172f565b9350611d15818560208601611bfe565b611d1e81611cdf565b840191505092915050565b60006020820190508181036000830152611d438184611cf0565b905092915050565b6000611d568261156c565b9150611d618361156c565b9250828202611d6f8161156c565b91508282048414831517611d8657611d856117ac565b5b5092915050565b7f4e487b7100000000000000000000000000000000000000000000000000000000600052604160045260246000fd5b7f4e487b7100000000000000000000000000000000000000000000000000000000600052603260045260246000fd5b6000611df68261156c565b915060008203611e0957611e086117ac565b5b600182039050919050565b7f537472696e67733a20686578206c656e67746820696e73756666696369656e74600082015250565b6000611e4a60208361172f565b9150611e5582611e14565b602082019050919050565b60006020820190508181036000830152611e7981611e3d565b9050919050565b7f416464726573733a20696e73756666696369656e742062616c616e636520666f60008201527f722063616c6c0000000000000000000000000000000000000000000000000000602082015250565b6000611edc60268361172f565b9150611ee782611e80565b604082019050919050565b60006020820190508181036000830152611f0b81611ecf565b9050919050565b600081519050919050565b600081905092915050565b6000611f3382611f12565b611f3d8185611f1d565b9350611f4d818560208601611bfe565b80840191505092915050565b6000611f658284611f28565b915081905092915050565b7f416464726573733a2063616c6c20746f206e6f6e2d636f6e7472616374000000600082015250565b6000611fa6601d8361172f565b9150611fb182611f70565b602082019050919050565b60006020820190508181036000830152611fd581611f99565b905091905056fea264697066735822122019440a50aa0a15bf0759448ee5dcc0159f5d0eaccdf1470beb047ca22661f96064736f6c63430008130033",
  "linkReferences": {},
  "deployedLinkReferences": {}
}