{
  "_format": "hh-sol-artifact-1",
  "contractName": "Pool",
  "sourceName": "contracts/Pool.sol",
  "abi": [
    {
      "inputs": [
        {
          "internalType": "address",
          "name": "_stablecoin",
          "type": "address"
        },
        {
          "internalType": "address",
          "name": "_loanManager",
          "type": "address"
        },
        {
          "internalType": "address",
          "name": "admin",
          "type": "address"
        }
      ],
      "stateMutability": "nonpayable",
      "type": "constructor"
    },
    {
      "anonymous": false,
      "inputs": [
        {
          "indexed": true,
          "internalType": "bytes32",
          "name": "role",
          "type": "bytes32"
        },
        {
          "indexed": true,
          "internalType": "bytes32",
          "name": "previousAdminRole",
          "type": "bytes32"
        },
        {
          "indexed": true,
          "internalType": "bytes32",
          "name": "newAdminRole",
          "type": "bytes32"
        }
      ],
      "name": "RoleAdminChanged",
      "type": "event"
    },
    {
      "anonymous": false,
      "inputs": [
        {
          "indexed": true,
          "internalType": "bytes32",
          "name": "role",
          "type": "bytes32"
        },
        {
          "indexed": true,
          "internalType": "address",
          "name": "account",
          "type": "address"
        },
        {
          "indexed": true,
          "internalType": "address",
          "name": "sender",
          "type": "address"
        }
      ],
      "name": "RoleGranted",
      "type": "event"
    },
    {
      "anonymous": false,
      "inputs": [
        {
          "indexed": true,
          "internalType": "bytes32",
          "name": "role",
          "type": "bytes32"
        },
        {
          "indexed": true,
          "internalType": "address",
          "name": "account",
          "type": "address"
        },
        {
          "indexed": true,
          "internalType": "address",
          "name": "sender",
          "type": "address"
        }
      ],
      "name": "RoleRevoked",
      "type": "event"
    },
    {
      "inputs": [],
      "name": "DEFAULT_ADMIN_ROLE",
      "outputs": [
        {
          "internalType": "bytes32",
          "name": "",
          "type": "bytes32"
        }
      ],
      "stateMutability": "view",
      "type": "function"
    },
    {
      "inputs": [],
      "name": "MANAGER_ROLE",
      "outputs": [
        {
          "internalType": "bytes32",
          "name": "",
          "type": "bytes32"
        }
      ],
      "stateMutability": "view",
      "type": "function"
    },
    {
      "inputs": [
        {
          "internalType": "address",
          "name": "",
          "type": "address"
        }
      ],
      "name": "balances",
      "outputs": [
        {
          "internalType": "uint256",
          "name": "",
          "type": "uint256"
        }
      ],
      "stateMutability": "view",
      "type": "function"
    },
    {
      "inputs": [
        {
          "internalType": "uint256",
          "name": "amount",
          "type": "uint256"
        }
      ],
      "name": "deposit",
      "outputs": [],
      "stateMutability": "nonpayable",
      "type": "function"
    },
    {
      "inputs": [
        {
          "internalType": "bytes32",
          "name": "role",
          "type": "bytes32"
        }
      ],
      "name": "getRoleAdmin",
      "outputs": [
        {
          "internalType": "bytes32",
          "name": "",
          "type": "bytes32"
        }
      ],
      "stateMutability": "view",
      "type": "function"
    },
    {
      "inputs": [
        {
          "internalType": "bytes32",
          "name": "role",
          "type": "bytes32"
        },
        {
          "internalType": "address",
          "name": "account",
          "type": "address"
        }
      ],
      "name": "grantRole",
      "outputs": [],
      "stateMutability": "nonpayable",
      "type": "function"
    },
    {
      "inputs": [
        {
          "internalType": "bytes32",
          "name": "role",
          "type": "bytes32"
        },
        {
          "internalType": "address",
          "name": "account",
          "type": "address"
        }
      ],
      "name": "hasRole",
      "outputs": [
        {
          "internalType": "bool",
          "name": "",
          "type": "bool"
        }
      ],
      "stateMutability": "view",
      "type": "function"
    },
    {
      "inputs": [],
      "name": "loanManager",
      "outputs": [
        {
          "internalType": "address",
          "name": "",
          "type": "address"
        }
      ],
      "stateMutability": "view",
      "type": "function"
    },
    {
      "inputs": [
        {
          "internalType": "bytes32",
          "name": "role",
          "type": "bytes32"
        },
        {
          "internalType": "address",
          "name": "account",
          "type": "address"
        }
      ],
      "name": "renounceRole",
      "outputs": [],
      "stateMutability": "nonpayable",
      "type": "function"
    },
    {
      "inputs": [
        {
          "internalType": "bytes32",
          "name": "role",
          "type": "bytes32"
        },
        {
          "internalType": "address",
          "name": "account",
          "type": "address"
        }
      ],
      "name": "revokeRole",
      "outputs": [],
      "stateMutability": "nonpayable",
      "type": "function"
    },
    {
      "inputs": [],
      "name": "stablecoin",
      "outputs": [
        {
          "internalType": "contract IERC20",
          "name": "",
          "type": "address"
        }
      ],
      "stateMutability": "view",
      "type": "function"
    },
    {
      "inputs": [
        {
          "internalType": "bytes4",
          "name": "interfaceId",
          "type": "bytes4"
        }
      ],
      "name": "supportsInterface",
      "outputs": [
        {
          "internalType": "bool",
          "name": "",
          "type": "bool"
        }
      ],
      "stateMutability": "view",
      "type": "function"
    },
    {
      "inputs": [
        {
          "internalType": "uint256",
          "name": "amount",
          "type": "uint256"
        }
      ],
      "name": "withdraw",
      "outputs": [],
      "stateMutability": "nonpayable",
      "type": "function"
    }
  ],
  "bytecode": "0x60806040523480156200001157600080fd5b5060405162001e5a38038062001e5a8339818101604052810190620000379190620002f7565b82600160006101000a81548173ffffffffffffffffffffffffffffffffffffffff021916908373ffffffffffffffffffffffffffffffffffffffff16021790555081600260006101000a81548173ffffffffffffffffffffffffffffffffffffffff021916908373ffffffffffffffffffffffffffffffffffffffff1602179055506200010b6000801b600073ffffffffffffffffffffffffffffffffffffffff168373ffffffffffffffffffffffffffffffffffffffff1614620000fd5782620000ff565b335b6200011460201b60201c565b50505062000353565b6200012682826200012a60201b60201c565b5050565b6200013c82826200021b60201b60201c565b6200021757600160008084815260200190815260200160002060000160008373ffffffffffffffffffffffffffffffffffffffff1673ffffffffffffffffffffffffffffffffffffffff16815260200190815260200160002060006101000a81548160ff021916908315150217905550620001bc6200028560201b60201c565b73ffffffffffffffffffffffffffffffffffffffff168173ffffffffffffffffffffffffffffffffffffffff16837f2f8788117e7eff1d82e926ec794901d17c78024a50270940304540a733656f0d60405160405180910390a45b5050565b600080600084815260200190815260200160002060000160008373ffffffffffffffffffffffffffffffffffffffff1673ffffffffffffffffffffffffffffffffffffffff16815260200190815260200160002060009054906101000a900460ff16905092915050565b600033905090565b600080fd5b600073ffffffffffffffffffffffffffffffffffffffff82169050919050565b6000620002bf8262000292565b9050919050565b620002d181620002b2565b8114620002dd57600080fd5b50565b600081519050620002f181620002c6565b92915050565b6000806000606084860312156200031357620003126200028d565b5b60006200032386828701620002e0565b93505060206200033686828701620002e0565b92505060406200034986828701620002e0565b9150509250925092565b611af780620003636000396000f3fe608060405234801561001057600080fd5b50600436106100cf5760003560e01c806391d148541161008c578063b6b55f2511610066578063b6b55f2514610224578063d547741f14610240578063e9cbd8221461025c578063ec87621c1461027a576100cf565b806391d14854146101b8578063a217fddf146101e8578063b3ccbcfe14610206576100cf565b806301ffc9a7146100d4578063248a9ca31461010457806327e235e3146101345780632e1a7d4d146101645780632f2ff15d1461018057806336568abe1461019c575b600080fd5b6100ee60048036038101906100e99190611038565b610298565b6040516100fb9190611080565b60405180910390f35b61011e600480360381019061011991906110d1565b610312565b60405161012b919061110d565b60405180910390f35b61014e60048036038101906101499190611186565b610331565b60405161015b91906111cc565b60405180910390f35b61017e60048036038101906101799190611213565b610349565b005b61019a60048036038101906101959190611240565b610471565b005b6101b660048036038101906101b19190611240565b610492565b005b6101d260048036038101906101cd9190611240565b610515565b6040516101df9190611080565b60405180910390f35b6101f061057f565b6040516101fd919061110d565b60405180910390f35b61020e610586565b60405161021b919061128f565b60405180910390f35b61023e60048036038101906102399190611213565b6105ac565b005b61025a60048036038101906102559190611240565b610697565b005b6102646106b8565b6040516102719190611309565b60405180910390f35b6102826106de565b60405161028f919061110d565b60405180910390f35b60007f7965db0b000000000000000000000000000000000000000000000000000000007bffffffffffffffffffffffffffffffffffffffffffffffffffffffff1916827bffffffffffffffffffffffffffffffffffffffffffffffffffffffff1916148061030b575061030a82610702565b5b9050919050565b6000806000838152602001908152602001600020600101549050919050565b60036020528060005260406000206000915090505481565b80600360003373ffffffffffffffffffffffffffffffffffffffff1673ffffffffffffffffffffffffffffffffffffffff1681526020019081526020016000205410156103cb576040517f08c379a00000000000000000000000000000000000000000000000000000000081526004016103c290611381565b60405180910390fd5b80600360003373ffffffffffffffffffffffffffffffffffffffff1673ffffffffffffffffffffffffffffffffffffffff168152602001908152602001600020600082825461041a91906113d0565b9250508190555061046e3382600160009054906101000a900473ffffffffffffffffffffffffffffffffffffffff1673ffffffffffffffffffffffffffffffffffffffff1661076c9092919063ffffffff16565b50565b61047a82610312565b610483816107f2565b61048d8383610806565b505050565b61049a6108e6565b73ffffffffffffffffffffffffffffffffffffffff168173ffffffffffffffffffffffffffffffffffffffff1614610507576040517f08c379a00000000000000000000000000000000000000000000000000000000081526004016104fe90611476565b60405180910390fd5b61051182826108ee565b5050565b600080600084815260200190815260200160002060000160008373ffffffffffffffffffffffffffffffffffffffff1673ffffffffffffffffffffffffffffffffffffffff16815260200190815260200160002060009054906101000a900460ff16905092915050565b6000801b81565b600260009054906101000a900473ffffffffffffffffffffffffffffffffffffffff1681565b600081116105ef576040517f08c379a00000000000000000000000000000000000000000000000000000000081526004016105e6906114e2565b60405180910390fd5b61063e333083600160009054906101000a900473ffffffffffffffffffffffffffffffffffffffff1673ffffffffffffffffffffffffffffffffffffffff166109cf909392919063ffffffff16565b80600360003373ffffffffffffffffffffffffffffffffffffffff1673ffffffffffffffffffffffffffffffffffffffff168152602001908152602001600020600082825461068d9190611502565b9250508190555050565b6106a082610312565b6106a9816107f2565b6106b383836108ee565b505050565b600160009054906101000a900473ffffffffffffffffffffffffffffffffffffffff1681565b7f241ecf16d79d0f8dbfb92cbc07fe17840425976cf0667f022fe9877caa831b0881565b60007f01ffc9a7000000000000000000000000000000000000000000000000000000007bffffffffffffffffffffffffffffffffffffffffffffffffffffffff1916827bffffffffffffffffffffffffffffffffffffffffffffffffffffffff1916149050919050565b6107ed8363a9059cbb60e01b848460405160240161078b929190611536565b604051602081830303815290604052907bffffffffffffffffffffffffffffffffffffffffffffffffffffffff19166020820180517bffffffffffffffffffffffffffffffffffffffffffffffffffffffff8381831617835250505050610a58565b505050565b610803816107fe6108e6565b610b20565b50565b6108108282610515565b6108e257600160008084815260200190815260200160002060000160008373ffffffffffffffffffffffffffffffffffffffff1673ffffffffffffffffffffffffffffffffffffffff16815260200190815260200160002060006101000a81548160ff0219169083151502179055506108876108e6565b73ffffffffffffffffffffffffffffffffffffffff168173ffffffffffffffffffffffffffffffffffffffff16837f2f8788117e7eff1d82e926ec794901d17c78024a50270940304540a733656f0d60405160405180910390a45b5050565b600033905090565b6108f88282610515565b156109cb57600080600084815260200190815260200160002060000160008373ffffffffffffffffffffffffffffffffffffffff1673ffffffffffffffffffffffffffffffffffffffff16815260200190815260200160002060006101000a81548160ff0219169083151502179055506109706108e6565b73ffffffffffffffffffffffffffffffffffffffff168173ffffffffffffffffffffffffffffffffffffffff16837ff6391f5c32d9c69d2a47ea670b442974b53935d1edc7fd64eb21e047a839171b60405160405180910390a45b5050565b610a52846323b872dd60e01b8585856040516024016109f09392919061155f565b604051602081830303815290604052907bffffffffffffffffffffffffffffffffffffffffffffffffffffffff19166020820180517bffffffffffffffffffffffffffffffffffffffffffffffffffffffff8381831617835250505050610a58565b50505050565b6000610aba826040518060400160405280602081526020017f5361666545524332303a206c6f772d6c6576656c2063616c6c206661696c65648152508573ffffffffffffffffffffffffffffffffffffffff16610ba59092919063ffffffff16565b9050600081511480610adc575080806020019051810190610adb91906115c2565b5b610b1b576040517f08c379a0000000000000000000000000000000000000000000000000000000008152600401610b1290611661565b60405180910390fd5b505050565b610b2a8282610515565b610ba157610b3781610bbd565b610b458360001c6020610bea565b604051602001610b5692919061178a565b6040516020818303038152906040526040517f08c379a0000000000000000000000000000000000000000000000000000000008152600401610b98919061180e565b60405180910390fd5b5050565b6060610bb48484600085610e26565b90509392505050565b6060610be38273ffffffffffffffffffffffffffffffffffffffff16601460ff16610bea565b9050919050565b606060006002836002610bfd9190611830565b610c079190611502565b67ffffffffffffffff811115610c2057610c1f611872565b5b6040519080825280601f01601f191660200182016040528015610c525781602001600182028036833780820191505090505b5090507f300000000000000000000000000000000000000000000000000000000000000081600081518110610c8a57610c896118a1565b5b60200101907effffffffffffffffffffffffffffffffffffffffffffffffffffffffffffff1916908160001a9053507f780000000000000000000000000000000000000000000000000000000000000081600181518110610cee57610ced6118a1565b5b60200101907effffffffffffffffffffffffffffffffffffffffffffffffffffffffffffff1916908160001a90535060006001846002610d2e9190611830565b610d389190611502565b90505b6001811115610dd8577f3031323334353637383961626364656600000000000000000000000000000000600f861660108110610d7a57610d796118a1565b5b1a60f81b828281518110610d9157610d906118a1565b5b60200101907effffffffffffffffffffffffffffffffffffffffffffffffffffffffffffff1916908160001a905350600485901c945080610dd1906118d0565b9050610d3b565b5060008414610e1c576040517f08c379a0000000000000000000000000000000000000000000000000000000008152600401610e1390611945565b60405180910390fd5b8091505092915050565b606082471015610e6b576040517f08c379a0000000000000000000000000000000000000000000000000000000008152600401610e62906119d7565b60405180910390fd5b6000808673ffffffffffffffffffffffffffffffffffffffff168587604051610e949190611a3e565b60006040518083038185875af1925050503d8060008114610ed1576040519150601f19603f3d011682016040523d82523d6000602084013e610ed6565b606091505b5091509150610ee787838387610ef3565b92505050949350505050565b60608315610f55576000835103610f4d57610f0d85610f68565b610f4c576040517f08c379a0000000000000000000000000000000000000000000000000000000008152600401610f4390611aa1565b60405180910390fd5b5b829050610f60565b610f5f8383610f8b565b5b949350505050565b6000808273ffffffffffffffffffffffffffffffffffffffff163b119050919050565b600082511115610f9e5781518083602001fd5b806040517f08c379a0000000000000000000000000000000000000000000000000000000008152600401610fd2919061180e565b60405180910390fd5b600080fd5b60007fffffffff0000000000000000000000000000000000000000000000000000000082169050919050565b61101581610fe0565b811461102057600080fd5b50565b6000813590506110328161100c565b92915050565b60006020828403121561104e5761104d610fdb565b5b600061105c84828501611023565b91505092915050565b60008115159050919050565b61107a81611065565b82525050565b60006020820190506110956000830184611071565b92915050565b6000819050919050565b6110ae8161109b565b81146110b957600080fd5b50565b6000813590506110cb816110a5565b92915050565b6000602082840312156110e7576110e6610fdb565b5b60006110f5848285016110bc565b91505092915050565b6111078161109b565b82525050565b600060208201905061112260008301846110fe565b92915050565b600073ffffffffffffffffffffffffffffffffffffffff82169050919050565b600061115382611128565b9050919050565b61116381611148565b811461116e57600080fd5b50565b6000813590506111808161115a565b92915050565b60006020828403121561119c5761119b610fdb565b5b60006111aa84828501611171565b91505092915050565b6000819050919050565b6111c6816111b3565b82525050565b60006020820190506111e160008301846111bd565b92915050565b6111f0816111b3565b81146111fb57600080fd5b50565b60008135905061120d816111e7565b92915050565b60006020828403121561122957611228610fdb565b5b6000611237848285016111fe565b91505092915050565b6000806040838503121561125757611256610fdb565b5b6000611265858286016110bc565b925050602061127685828601611171565b9150509250929050565b61128981611148565b82525050565b60006020820190506112a46000830184611280565b92915050565b6000819050919050565b60006112cf6112ca6112c584611128565b6112aa565b611128565b9050919050565b60006112e1826112b4565b9050919050565b60006112f3826112d6565b9050919050565b611303816112e8565b82525050565b600060208201905061131e60008301846112fa565b92915050565b600082825260208201905092915050565b7f696e73756666696369656e740000000000000000000000000000000000000000600082015250565b600061136b600c83611324565b915061137682611335565b602082019050919050565b6000602082019050818103600083015261139a8161135e565b9050919050565b7f4e487b7100000000000000000000000000000000000000000000000000000000600052601160045260246000fd5b60006113db826111b3565b91506113e6836111b3565b92508282039050818111156113fe576113fd6113a1565b5b92915050565b7f416363657373436f6e74726f6c3a2063616e206f6e6c792072656e6f756e636560008201527f20726f6c657320666f722073656c660000000000000000000000000000000000602082015250565b6000611460602f83611324565b915061146b82611404565b604082019050919050565b6000602082019050818103600083015261148f81611453565b9050919050565b7f616d6f756e743e30000000000000000000000000000000000000000000000000600082015250565b60006114cc600883611324565b91506114d782611496565b602082019050919050565b600060208201905081810360008301526114fb816114bf565b9050919050565b600061150d826111b3565b9150611518836111b3565b92508282019050808211156115305761152f6113a1565b5b92915050565b600060408201905061154b6000830185611280565b61155860208301846111bd565b9392505050565b60006060820190506115746000830186611280565b6115816020830185611280565b61158e60408301846111bd565b949350505050565b61159f81611065565b81146115aa57600080fd5b50565b6000815190506115bc81611596565b92915050565b6000602082840312156115d8576115d7610fdb565b5b60006115e6848285016115ad565b91505092915050565b7f5361666545524332303a204552433230206f7065726174696f6e20646964206e60008201527f6f74207375636365656400000000000000000000000000000000000000000000602082015250565b600061164b602a83611324565b9150611656826115ef565b604082019050919050565b6000602082019050818103600083015261167a8161163e565b9050919050565b600081905092915050565b7f416363657373436f6e74726f6c3a206163636f756e7420000000000000000000600082015250565b60006116c2601783611681565b91506116cd8261168c565b601782019050919050565b600081519050919050565b60005b838110156117015780820151818401526020810190506116e6565b60008484015250505050565b6000611718826116d8565b6117228185611681565b93506117328185602086016116e3565b80840191505092915050565b7f206973206d697373696e6720726f6c6520000000000000000000000000000000600082015250565b6000611774601183611681565b915061177f8261173e565b601182019050919050565b6000611795826116b5565b91506117a1828561170d565b91506117ac82611767565b91506117b8828461170d565b91508190509392505050565b6000601f19601f8301169050919050565b60006117e0826116d8565b6117ea8185611324565b93506117fa8185602086016116e3565b611803816117c4565b840191505092915050565b6000602082019050818103600083015261182881846117d5565b905092915050565b600061183b826111b3565b9150611846836111b3565b9250828202611854816111b3565b9150828204841483151761186b5761186a6113a1565b5b5092915050565b7f4e487b7100000000000000000000000000000000000000000000000000000000600052604160045260246000fd5b7f4e487b7100000000000000000000000000000000000000000000000000000000600052603260045260246000fd5b60006118db826111b3565b9150600082036118ee576118ed6113a1565b5b600182039050919050565b7f537472696e67733a20686578206c656e67746820696e73756666696369656e74600082015250565b600061192f602083611324565b915061193a826118f9565b602082019050919050565b6000602082019050818103600083015261195e81611922565b9050919050565b7f416464726573733a20696e73756666696369656e742062616c616e636520666f60008201527f722063616c6c0000000000000000000000000000000000000000000000000000602082015250565b60006119c1602683611324565b91506119cc82611965565b604082019050919050565b600060208201905081810360008301526119f0816119b4565b9050919050565b600081519050919050565b600081905092915050565b6000611a18826119f7565b611a228185611a02565b9350611a328185602086016116e3565b80840191505092915050565b6000611a4a8284611a0d565b915081905092915050565b7f416464726573733a2063616c6c20746f206e6f6e2d636f6e7472616374000000600082015250565b6000611a8b601d83611324565b9150611a9682611a55565b602082019050919050565b60006020820190508181036000830152611aba81611a7e565b905091905056fea26469706673582212209c59138402c797d155e171dc1a161bde7f1eb5a48a6181a22081db01d0e22ebd64736f6c63430008130033",
  "linkReferences": {},
  "deployedLinkReferences": {}
}