{
  "_format": "hh-sol-artifact-1",
  "contractName": "InvoiceNFT",
  "sourceName": "contracts/InvoiceNFT.sol",
  "abi": [
    {
      "inputs": [
        {
          "internalType": "address",
          "name": "admin",
          "type": "address"
        }
      ],
      "stateMutability": "nonpayable",
      "type": "constructor"
    },
    {
      "anonymous": false,
      "inputs": [
        {
          "indexed": true,
          "internalType": "address",
          "name": "owner",
          "type": "address"
        },
        {
          "indexed": true,
          "internalType": "address",
          "name": "approved",
          "type": "address"
        },
        {
          "indexed": true,
          "internalType": "uint256",
          "name": "tokenId",
          "type": "uint256"
        }
      ],
      "name": "Approval",
      "type": "event"
    },
    {
      "anonymous": false,
      "inputs": [
        {
          "indexed": true,
          "internalType": "address",
          "name": "owner",
          "type": "address"
        },
        {
          "indexed": true,
          "internalType": "address",
          "name": "operator",
          "type": "address"
        },
        {
          "indexed": false,
          "internalType": "bool",
          "name": "approved",
          "type": "bool"
        }
      ],
      "name": "ApprovalForAll",
      "type": "event"
    },
    {
      "anonymous": false,
      "inputs": [
        {
          "indexed": false,
          "internalType": "uint256",
          "name": "_fromTokenId",
          "type": "uint256"
        },
        {
          "indexed": false,
          "internalType": "uint256",
          "name": "_toTokenId",
          "type": "uint256"
        }
      ],
      "name": "BatchMetadataUpdate",
      "type": "event"
    },
    {
      "anonymous": false,
      "inputs": [
        {
          "indexed": true,
          "internalType": "uint256",
          "name": "tokenId",
          "type": "uint256"
        },
        {
          "indexed": true,
          "internalType": "address",
          "name": "owner",
          "type": "address"
        },
        {
          "indexed": false,
          "internalType": "uint256",
          "name": "amount",
          "type": "uint256"
        },
        {
          "indexed": false,
          "internalType": "uint256",
          "name": "dueDate",
          "type": "uint256"
        },
        {
          "indexed": false,
          "internalType": "string",
          "name": "invoiceId",
          "type": "string"
        },
        {
          "indexed": false,
          "internalType": "string",
          "name": "tokenURI",
          "type": "string"
        }
      ],
      "name": "InvoiceMinted",
      "type": "event"
    },
    {
      "anonymous": false,
      "inputs": [
        {
          "indexed": true,
          "internalType": "uint256",
          "name": "tokenId",
          "type": "uint256"
        },
        {
          "indexed": true,
          "internalType": "address",
          "name": "attestor",
          "type": "address"
        }
      ],
      "name": "InvoiceVerified",
      "type": "event"
    },
    {
      "anonymous": false,
      "inputs": [
        {
          "indexed": false,
          "internalType": "uint256",
          "name": "_tokenId",
          "type": "uint256"
        }
      ],
      "name": "MetadataUpdate",
      "type": "event"
    },
    {
      "anonymous": false,
      "inputs": [
        {
          "indexed": true,
          "internalType": "bytes32",
          "name": "role",
          "type": "bytes32"
        },
        {
          "indexed": true,
          "internalType": "bytes32",
          "name": "previousAdminRole",
          "type": "bytes32"
        },
        {
          "indexed": true,
          "internalType": "bytes32",
          "name": "newAdminRole",
          "type": "bytes32"
        }
      ],
      "name": "RoleAdminChanged",
      "type": "event"
    },
    {
      "anonymous": false,
      "inputs": [
        {
          "indexed": true,
          "internalType": "bytes32",
          "name": "role",
          "type": "bytes32"
        },
        {
          "indexed": true,
          "internalType": "address",
          "name": "account",
          "type": "address"
        },
        {
          "indexed": true,
          "internalType": "address",
          "name": "sender",
          "type": "address"
        }
      ],
      "name": "RoleGranted",
      "type": "event"
    },
    {
      "anonymous": false,
      "inputs": [
        {
          "indexed": true,
          "internalType": "bytes32",
          "name": "role",
          "type": "bytes32"
        },
        {
          "indexed": true,
          "internalType": "address",
          "name": "account",
          "type": "address"
        },
        {
          "indexed": true,
          "internalType": "address",
          "name": "sender",
          "type": "address"
        }
      ],
      "name": "RoleRevoked",
      "type": "event"
    },
    {
      "anonymous": false,
      "inputs": [
        {
          "indexed": true,
          "internalType": "address",
          "name": "from",
          "type": "address"
        },
        {
          "indexed": true,
          "internalType": "address",
          "name": "to",
          "type": "address"
        },
        {
          "indexed": true,
          "internalType": "uint256",
          "name": "tokenId",
          "type": "uint256"
        }
      ],
      "name": "Transfer",
      "type": "event"
    },
    {
      "inputs": [],
      "name": "ATTESTOR_ROLE",
      "outputs": [
        {
          "internalType": "bytes32",
          "name": "",
          "type": "bytes32"
        }
      ],
      "stateMutability": "view",
      "type": "function"
    },
    {
      "inputs": [],
      "name": "DEFAULT_ADMIN_ROLE",
      "outputs": [
        {
          "internalType": "bytes32",
          "name": "",
          "type": "bytes32"
        }
      ],
      "stateMutability": "view",
      "type": "function"
    },
    {
      "inputs": [],
      "name": "ORACLE_ROLE",
      "outputs": [
        {
          "internalType": "bytes32",
          "name": "",
          "type": "bytes32"
        }
      ],
      "stateMutability": "view",
      "type": "function"
    },
    {
      "inputs": [
        {
          "internalType": "address",
          "name": "account",
          "type": "address"
        }
      ],
      "name": "addAttestor",
      "outputs": [],
      "stateMutability": "nonpayable",
      "type": "function"
    },
    {
      "inputs": [
        {
          "internalType": "address",
          "name": "to",
          "type": "address"
        },
        {
          "internalType": "uint256",
          "name": "tokenId",
          "type": "uint256"
        }
      ],
      "name": "approve",
      "outputs": [],
      "stateMutability": "nonpayable",
      "type": "function"
    },
    {
      "inputs": [
        {
          "internalType": "address",
          "name": "owner",
          "type": "address"
        }
      ],
      "name": "balanceOf",
      "outputs": [
        {
          "internalType": "uint256",
          "name": "",
          "type": "uint256"
        }
      ],
      "stateMutability": "view",
      "type": "function"
    },
    {
      "inputs": [
        {
          "internalType": "uint256",
          "name": "tokenId",
          "type": "uint256"
        }
      ],
      "name": "getApproved",
      "outputs": [
        {
          "internalType": "address",
          "name": "",
          "type": "address"
        }
      ],
      "stateMutability": "view",
      "type": "function"
    },
    {
      "inputs": [
        {
          "internalType": "uint256",
          "name": "tokenId",
          "type": "uint256"
        }
      ],
      "name": "getInvoice",
      "outputs": [
        {
          "internalType": "uint256",
          "name": "amount",
          "type": "uint256"
        },
        {
          "internalType": "uint256",
          "name": "dueDate",
          "type": "uint256"
        },
        {
          "internalType": "string",
          "name": "invoiceId",
          "type": "string"
        },
        {
          "internalType": "bool",
          "name": "verified",
          "type": "bool"
        },
        {
          "internalType": "address",
          "name": "attestor",
          "type": "address"
        }
      ],
      "stateMutability": "view",
      "type": "function"
    },
    {
      "inputs": [
        {
          "internalType": "bytes32",
          "name": "role",
          "type": "bytes32"
        }
      ],
      "name": "getRoleAdmin",
      "outputs": [
        {
          "internalType": "bytes32",
          "name": "",
          "type": "bytes32"
        }
      ],
      "stateMutability": "view",
      "type": "function"
    },
    {
      "inputs": [
        {
          "internalType": "bytes32",
          "name": "role",
          "type": "bytes32"
        },
        {
          "internalType": "address",
          "name": "account",
          "type": "address"
        }
      ],
      "name": "grantRole",
      "outputs": [],
      "stateMutability": "nonpayable",
      "type": "function"
    },
    {
      "inputs": [
        {
          "internalType": "bytes32",
          "name": "role",
          "type": "bytes32"
        },
        {
          "internalType": "address",
          "name": "account",
          "type": "address"
        }
      ],
      "name": "hasRole",
      "outputs": [
        {
          "internalType": "bool",
          "name": "",
          "type": "bool"
        }
      ],
      "stateMutability": "view",
      "type": "function"
    },
    {
      "inputs": [
        {
          "internalType": "address",
          "name": "owner",
          "type": "address"
        },
        {
          "internalType": "address",
          "name": "operator",
          "type": "address"
        }
      ],
      "name": "isApprovedForAll",
      "outputs": [
        {
          "internalType": "bool",
          "name": "",
          "type": "bool"
        }
      ],
      "stateMutability": "view",
      "type": "function"
    },
    {
      "inputs": [
        {
          "internalType": "address",
          "name": "to",
          "type": "address"
        },
        {
          "internalType": "uint256",
          "name": "amount",
          "type": "uint256"
        },
        {
          "internalType": "uint256",
          "name": "dueDate",
          "type": "uint256"
        },
        {
          "internalType": "string",
          "name": "invoiceId",
          "type": "string"
        },
        {
          "internalType": "string",
          "name": "uri",
          "type": "string"
        }
      ],
      "name": "mintInvoice",
      "outputs": [
        {
          "internalType": "uint256",
          "name": "",
          "type": "uint256"
        }
      ],
      "stateMutability": "nonpayable",
      "type": "function"
    },
    {
      "inputs": [],
      "name": "name",
      "outputs": [
        {
          "internalType": "string",
          "name": "",
          "type": "string"
        }
      ],
      "stateMutability": "view",
      "type": "function"
    },
    {
      "inputs": [
        {
          "internalType": "uint256",
          "name": "tokenId",
          "type": "uint256"
        }
      ],
      "name": "ownerOf",
      "outputs": [
        {
          "internalType": "address",
          "name": "",
          "type": "address"
        }
      ],
      "stateMutability": "view",
      "type": "function"
    },
    {
      "inputs": [
        {
          "internalType": "address",
          "name": "account",
          "type": "address"
        }
      ],
      "name": "removeAttestor",
      "outputs": [],
      "stateMutability": "nonpayable",
      "type": "function"
    },
    {
      "inputs": [
        {
          "internalType": "bytes32",
          "name": "role",
          "type": "bytes32"
        },
        {
          "internalType": "address",
          "name": "account",
          "type": "address"
        }
      ],
      "name": "renounceRole",
      "outputs": [],
      "stateMutability": "nonpayable",
      "type": "function"
    },
    {
      "inputs": [
        {
          "internalType": "bytes32",
          "name": "role",
          "type": "bytes32"
        },
        {
          "internalType": "address",
          "name": "account",
          "type": "address"
        }
      ],
      "name": "revokeRole",
      "outputs": [],
      "stateMutability": "nonpayable",
      "type": "function"
    },
    {
      "inputs": [
        {
          "internalType": "address",
          "name": "from",
          "type": "address"
        },
        {
          "internalType": "address",
          "name": "to",
          "type": "address"
        },
        {
          "internalType": "uint256",
          "name": "tokenId",
          "type": "uint256"
        }
      ],
      "name": "safeTransferFrom",
      "outputs": [],
      "stateMutability": "nonpayable",
      "type": "function"
    },
    {
      "inputs": [
        {
          "internalType": "address",
          "name": "from",
          "type": "address"
        },
        {
          "internalType": "address",
          "name": "to",
          "type": "address"
        },
        {
          "internalType": "uint256",
          "name": "tokenId",
          "type": "uint256"
        },
        {
          "internalType": "bytes",
          "name": "data",
          "type": "bytes"
        }
      ],
      "name": "safeTransferFrom",
      "outputs": [],
      "stateMutability": "nonpayable",
      "type": "function"
    },
    {
      "inputs": [
        {
          "internalType": "address",
          "name": "operator",
          "type": "address"
        },
        {
          "internalType": "bool",
          "name": "approved",
          "type": "bool"
        }
      ],
      "name": "setApprovalForAll",
      "outputs": [],
      "stateMutability": "nonpayable",
      "type": "function"
    },
    {
      "inputs": [
        {
          "internalType": "bytes4",
          "name": "interfaceId",
          "type": "bytes4"
        }
      ],
      "name": "supportsInterface",
      "outputs": [
        {
          "internalType": "bool",
          "name": "",
          "type": "bool"
        }
      ],
      "stateMutability": "view",
      "type": "function"
    },
    {
      "inputs": [],
      "name": "symbol",
      "outputs": [
        {
          "internalType": "string",
          "name": "",
          "type": "string"
        }
      ],
      "stateMutability": "view",
      "type": "function"
    },
    {
      "inputs": [
        {
          "internalType": "uint256",
          "name": "tokenId",
          "type": "uint256"
        }
      ],
      "name": "tokenURI",
      "outputs": [
        {
          "internalType": "string",
          "name": "",
          "type": "string"
        }
      ],
      "stateMutability": "view",
      "type": "function"
    },
    {
      "inputs": [
        {
          "internalType": "address",
          "name": "from",
          "type": "address"
        },
        {
          "internalType": "address",
          "name": "to",
          "type": "address"
        },
        {
          "internalType": "uint256",
          "name": "tokenId",
          "type": "uint256"
        }
      ],
      "name": "transferFrom",
      "outputs": [],
      "stateMutability": "nonpayable",
      "type": "function"
    },
    {
      "inputs": [
        {
          "internalType": "uint256",
          "name": "tokenId",
          "type": "uint256"
        }
      ],
      "name": "verifyInvoice",
      "outputs": [],
      "stateMutability": "nonpayable",
      "type": "function"
    },
    {
      "inputs": [
        {
          "internalType": "uint256",
          "name": "tokenId",
          "type": "uint256"
        }
      ],
      "name": "verifyInvoiceByOracle",
      "outputs": [],
      "stateMutability": "nonpayable",
      "type": "function"
    }
  ],
  "bytecode": "0x60806040523480156200001157600080fd5b5060405162004b6538038062004b65833981810160405281019062000037919062000376565b6040518060400160405280600a81526020017f496e766f6963654e4654000000000000000000000000000000000000000000008152506040518060400160405280600481526020017f494e564f000000000000000000000000000000000000000000000000000000008152508160009081620000b4919062000622565b508060019081620000c6919062000622565b5050506200011b6000801b600073ffffffffffffffffffffffffffffffffffffffff168373ffffffffffffffffffffffffffffffffffffffff16146200010d57826200010f565b335b6200019160201b60201c565b6200018a7f68e79a7bf1e0bc45d0a330c573bc367f9cf464fd326078812f301165fbda4ef1600073ffffffffffffffffffffffffffffffffffffffff168373ffffffffffffffffffffffffffffffffffffffff16146200017c57826200017e565b335b6200019160201b60201c565b5062000709565b620001a38282620001a760201b60201c565b5050565b620001b982826200029960201b60201c565b620002955760016007600084815260200190815260200160002060000160008373ffffffffffffffffffffffffffffffffffffffff1673ffffffffffffffffffffffffffffffffffffffff16815260200190815260200160002060006101000a81548160ff0219169083151502179055506200023a6200030460201b60201c565b73ffffffffffffffffffffffffffffffffffffffff168173ffffffffffffffffffffffffffffffffffffffff16837f2f8788117e7eff1d82e926ec794901d17c78024a50270940304540a733656f0d60405160405180910390a45b5050565b60006007600084815260200190815260200160002060000160008373ffffffffffffffffffffffffffffffffffffffff1673ffffffffffffffffffffffffffffffffffffffff16815260200190815260200160002060009054906101000a900460ff16905092915050565b600033905090565b600080fd5b600073ffffffffffffffffffffffffffffffffffffffff82169050919050565b60006200033e8262000311565b9050919050565b620003508162000331565b81146200035c57600080fd5b50565b600081519050620003708162000345565b92915050565b6000602082840312156200038f576200038e6200030c565b5b60006200039f848285016200035f565b91505092915050565b600081519050919050565b7f4e487b7100000000000000000000000000000000000000000000000000000000600052604160045260246000fd5b7f4e487b7100000000000000000000000000000000000000000000000000000000600052602260045260246000fd5b600060028204905060018216806200042a57607f821691505b60208210810362000440576200043f620003e2565b5b50919050565b60008190508160005260206000209050919050565b60006020601f8301049050919050565b600082821b905092915050565b600060088302620004aa7fffffffffffffffffffffffffffffffffffffffffffffffffffffffffffffffff826200046b565b620004b686836200046b565b95508019841693508086168417925050509392505050565b6000819050919050565b6000819050919050565b600062000503620004fd620004f784620004ce565b620004d8565b620004ce565b9050919050565b6000819050919050565b6200051f83620004e2565b620005376200052e826200050a565b84845462000478565b825550505050565b600090565b6200054e6200053f565b6200055b81848462000514565b505050565b5b8181101562000583576200057760008262000544565b60018101905062000561565b5050565b601f821115620005d2576200059c8162000446565b620005a7846200045b565b81016020851015620005b7578190505b620005cf620005c6856200045b565b83018262000560565b50505b505050565b600082821c905092915050565b6000620005f760001984600802620005d7565b1980831691505092915050565b6000620006128383620005e4565b9150826002028217905092915050565b6200062d82620003a8565b67ffffffffffffffff811115620006495762000648620003b3565b5b62000655825462000411565b6200066282828562000587565b600060209050601f8311600181146200069a576000841562000685578287015190505b62000691858262000604565b86555062000701565b601f198416620006aa8662000446565b60005b82811015620006d457848901518255600182019150602085019450602081019050620006ad565b86831015620006f45784890151620006f0601f891682620005e4565b8355505b6001600288020188555050505b505050505050565b61444c80620007196000396000f3fe608060405234801561001057600080fd5b50600436106101a95760003560e01c80636352211e116100f9578063b391202311610097578063d547741f11610071578063d547741f146104f4578063d5f9592c14610510578063e0cae6351461052c578063e985e9c514610548576101a9565b8063b39120231461048c578063b88d4fde146104a8578063c87b56dd146104c4576101a9565b806395d89b41116100d357806395d89b411461040457806395f0354614610422578063a217fddf14610452578063a22cb46514610470576101a9565b80636352211e1461037457806370a08231146103a457806391d14854146103d4576101a9565b8063248a9ca3116101665780633a23cc0a116101405780633a23cc0a146102ea57806342842e0e1461031e5780634c1301e91461033a5780636272364414610356576101a9565b8063248a9ca3146102825780632f2ff15d146102b257806336568abe146102ce576101a9565b806301ffc9a7146101ae57806306fdde03146101de57806307e2cea5146101fc578063081812fc1461021a578063095ea7b31461024a57806323b872dd14610266575b600080fd5b6101c860048036038101906101c39190612bb0565b610578565b6040516101d59190612bf8565b60405180910390f35b6101e661058a565b6040516101f39190612ca3565b60405180910390f35b61020461061c565b6040516102119190612cde565b60405180910390f35b610234600480360381019061022f9190612d2f565b610640565b6040516102419190612d9d565b60405180910390f35b610264600480360381019061025f9190612de4565b610686565b005b610280600480360381019061027b9190612e24565b61079d565b005b61029c60048036038101906102979190612ea3565b6107fd565b6040516102a99190612cde565b60405180910390f35b6102cc60048036038101906102c79190612ed0565b61081d565b005b6102e860048036038101906102e39190612ed0565b61083e565b005b61030460048036038101906102ff9190612d2f565b6108c1565b604051610315959493929190612f1f565b60405180910390f35b61033860048036038101906103339190612e24565b610a0d565b005b610354600480360381019061034f9190612d2f565b610a2d565b005b61035e610bb1565b60405161036b9190612cde565b60405180910390f35b61038e60048036038101906103899190612d2f565b610bd5565b60405161039b9190612d9d565b60405180910390f35b6103be60048036038101906103b99190612f79565b610c5b565b6040516103cb9190612fa6565b60405180910390f35b6103ee60048036038101906103e99190612ed0565b610d12565b6040516103fb9190612bf8565b60405180910390f35b61040c610d7d565b6040516104199190612ca3565b60405180910390f35b61043c60048036038101906104379190613026565b610e0f565b6040516104499190612fa6565b60405180910390f35b61045a611108565b6040516104679190612cde565b60405180910390f35b61048a6004803603810190610485919061310e565b61110f565b005b6104a660048036038101906104a19190612f79565b611125565b005b6104c260048036038101906104bd919061327e565b61119e565b005b6104de60048036038101906104d99190612d2f565b611200565b6040516104eb9190612ca3565b60405180910390f35b61050e60048036038101906105099190612ed0565b611312565b005b61052a60048036038101906105259190612d2f565b611333565b005b61054660048036038101906105419190612f79565b6114b7565b005b610562600480360381019061055d9190613301565b611530565b60405161056f9190612bf8565b60405180910390f35b6000610583826115c4565b9050919050565b60606000805461059990613370565b80601f01602080910402602001604051908101604052809291908181526020018280546105c590613370565b80156106125780601f106105e757610100808354040283529160200191610612565b820191906000526020600020905b8154815290600101906020018083116105f557829003601f168201915b5050505050905090565b7f68e79a7bf1e0bc45d0a330c573bc367f9cf464fd326078812f301165fbda4ef181565b600061064b8261163e565b6004600083815260200190815260200160002060009054906101000a900473ffffffffffffffffffffffffffffffffffffffff169050919050565b600061069182610bd5565b90508073ffffffffffffffffffffffffffffffffffffffff168373ffffffffffffffffffffffffffffffffffffffff1603610701576040517f08c379a00000000000000000000000000000000000000000000000000000000081526004016106f890613413565b60405180910390fd5b8073ffffffffffffffffffffffffffffffffffffffff16610720611689565b73ffffffffffffffffffffffffffffffffffffffff16148061074f575061074e81610749611689565b611530565b5b61078e576040517f08c379a0000000000000000000000000000000000000000000000000000000008152600401610785906134a5565b60405180910390fd5b6107988383611691565b505050565b6107ae6107a8611689565b8261174a565b6107ed576040517f08c379a00000000000000000000000000000000000000000000000000000000081526004016107e490613537565b60405180910390fd5b6107f88383836117df565b505050565b600060076000838152602001908152602001600020600101549050919050565b610826826107fd565b61082f81611ad8565b6108398383611aec565b505050565b610846611689565b73ffffffffffffffffffffffffffffffffffffffff168173ffffffffffffffffffffffffffffffffffffffff16146108b3576040517f08c379a00000000000000000000000000000000000000000000000000000000081526004016108aa906135c9565b60405180910390fd5b6108bd8282611bcd565b5050565b60008060606000806108d286611caf565b610911576040517f08c379a000000000000000000000000000000000000000000000000000000000815260040161090890613635565b60405180910390fd5b600060096000888152602001908152602001600020905080600001548160010154826002018360030160009054906101000a900460ff168460030160019054906101000a900473ffffffffffffffffffffffffffffffffffffffff1682805461097990613370565b80601f01602080910402602001604051908101604052809291908181526020018280546109a590613370565b80156109f25780601f106109c7576101008083540402835291602001916109f2565b820191906000526020600020905b8154815290600101906020018083116109d557829003601f168201915b50505050509250955095509550955095505091939590929450565b610a288383836040518060200160405280600081525061119e565b505050565b7fa7e0cd0f2772b23ee4c329892293a6bd99d48c306b094d6d008c9a8bb8b731e4610a5781611ad8565b610a6082611caf565b610a9f576040517f08c379a0000000000000000000000000000000000000000000000000000000008152600401610a96906136a1565b60405180910390fd5b60006009600084815260200190815260200160002090508060030160009054906101000a900460ff1615610b08576040517f08c379a0000000000000000000000000000000000000000000000000000000008152600401610aff9061370d565b60405180910390fd5b60018160030160006101000a81548160ff021916908315150217905550338160030160016101000a81548173ffffffffffffffffffffffffffffffffffffffff021916908373ffffffffffffffffffffffffffffffffffffffff1602179055503373ffffffffffffffffffffffffffffffffffffffff16837f5f335aeb90296421c78d3bdc1af9043846ad4773cee0a0d0d909915726b30a5860405160405180910390a3505050565b7fa7e0cd0f2772b23ee4c329892293a6bd99d48c306b094d6d008c9a8bb8b731e481565b600080610be183611cf0565b9050600073ffffffffffffffffffffffffffffffffffffffff168173ffffffffffffffffffffffffffffffffffffffff1603610c52576040517f08c379a0000000000000000000000000000000000000000000000000000000008152600401610c4990613779565b60405180910390fd5b80915050919050565b60008073ffffffffffffffffffffffffffffffffffffffff168273ffffffffffffffffffffffffffffffffffffffff1603610ccb576040517f08c379a0000000000000000000000000000000000000000000000000000000008152600401610cc29061380b565b60405180910390fd5b600360008373ffffffffffffffffffffffffffffffffffffffff1673ffffffffffffffffffffffffffffffffffffffff168152602001908152602001600020549050919050565b60006007600084815260200190815260200160002060000160008373ffffffffffffffffffffffffffffffffffffffff1673ffffffffffffffffffffffffffffffffffffffff16815260200190815260200160002060009054906101000a900460ff16905092915050565b606060018054610d8c90613370565b80601f0160208091040260200160405190810160405280929190818152602001828054610db890613370565b8015610e055780601f10610dda57610100808354040283529160200191610e05565b820191906000526020600020905b815481529060010190602001808311610de857829003601f168201915b5050505050905090565b60008073ffffffffffffffffffffffffffffffffffffffff168873ffffffffffffffffffffffffffffffffffffffff1603610e7f576040517f08c379a0000000000000000000000000000000000000000000000000000000008152600401610e7690613877565b60405180910390fd5b60008711610ec2576040517f08c379a0000000000000000000000000000000000000000000000000000000008152600401610eb9906138e3565b60405180910390fd5b428611610f04576040517f08c379a0000000000000000000000000000000000000000000000000000000008152600401610efb9061394f565b60405180910390fd5b610f0e6008611d2d565b6000610f1a6008611d43565b9050610f268982611d51565b610f748185858080601f016020809104026020016040519081016040528093929190818152602001838380828437600081840152601f19601f82011690508083019250505050505050611d6f565b6040518060a0016040528089815260200188815260200187878080601f016020809104026020016040519081016040528093929190818152602001838380828437600081840152601f19601f820116905080830192505050505050508152602001600015158152602001600073ffffffffffffffffffffffffffffffffffffffff1681525060096000838152602001908152602001600020600082015181600001556020820151816001015560408201518160020190816110359190613b1b565b5060608201518160030160006101000a81548160ff02191690831515021790555060808201518160030160016101000a81548173ffffffffffffffffffffffffffffffffffffffff021916908373ffffffffffffffffffffffffffffffffffffffff1602179055509050508873ffffffffffffffffffffffffffffffffffffffff16817faf7757d6529014d19b409d155b1022d142ea3de8758f40e45b9a65d7360759d98a8a8a8a8a8a6040516110f196959493929190613c1a565b60405180910390a380915050979650505050505050565b6000801b81565b61112161111a611689565b8383611e13565b5050565b6111326000801b33610d12565b611171576040517f08c379a000000000000000000000000000000000000000000000000000000000815260040161116890613cbd565b60405180910390fd5b61119b7fa7e0cd0f2772b23ee4c329892293a6bd99d48c306b094d6d008c9a8bb8b731e482611312565b50565b6111af6111a9611689565b8361174a565b6111ee576040517f08c379a00000000000000000000000000000000000000000000000000000000081526004016111e590613537565b60405180910390fd5b6111fa84848484611f7f565b50505050565b606061120b8261163e565b600060066000848152602001908152602001600020805461122b90613370565b80601f016020809104026020016040519081016040528092919081815260200182805461125790613370565b80156112a45780601f10611279576101008083540402835291602001916112a4565b820191906000526020600020905b81548152906001019060200180831161128757829003601f168201915b5050505050905060006112b5611fdb565b905060008151036112ca57819250505061130d565b6000825111156112ff5780826040516020016112e7929190613d19565b6040516020818303038152906040529250505061130d565b61130884611ff2565b925050505b919050565b61131b826107fd565b61132481611ad8565b61132e8383611bcd565b505050565b7f68e79a7bf1e0bc45d0a330c573bc367f9cf464fd326078812f301165fbda4ef161135d81611ad8565b61136682611caf565b6113a5576040517f08c379a000000000000000000000000000000000000000000000000000000000815260040161139c906136a1565b60405180910390fd5b60006009600084815260200190815260200160002090508060030160009054906101000a900460ff161561140e576040517f08c379a00000000000000000000000000000000000000000000000000000000081526004016114059061370d565b60405180910390fd5b60018160030160006101000a81548160ff021916908315150217905550338160030160016101000a81548173ffffffffffffffffffffffffffffffffffffffff021916908373ffffffffffffffffffffffffffffffffffffffff1602179055503373ffffffffffffffffffffffffffffffffffffffff16837f5f335aeb90296421c78d3bdc1af9043846ad4773cee0a0d0d909915726b30a5860405160405180910390a3505050565b6114c46000801b33610d12565b611503576040517f08c379a00000000000000000000000000000000000000000000000000000000081526004016114fa90613cbd565b60405180910390fd5b61152d7fa7e0cd0f2772b23ee4c329892293a6bd99d48c306b094d6d008c9a8bb8b731e48261081d565b50565b6000600560008473ffffffffffffffffffffffffffffffffffffffff1673ffffffffffffffffffffffffffffffffffffffff16815260200190815260200160002060008373ffffffffffffffffffffffffffffffffffffffff1673ffffffffffffffffffffffffffffffffffffffff16815260200190815260200160002060009054906101000a900460ff16905092915050565b60007f7965db0b000000000000000000000000000000000000000000000000000000007bffffffffffffffffffffffffffffffffffffffffffffffffffffffff1916827bffffffffffffffffffffffffffffffffffffffffffffffffffffffff1916148061163757506116368261205a565b5b9050919050565b61164781611caf565b611686576040517f08c379a000000000000000000000000000000000000000000000000000000000815260040161167d90613779565b60405180910390fd5b50565b600033905090565b816004600083815260200190815260200160002060006101000a81548173ffffffffffffffffffffffffffffffffffffffff021916908373ffffffffffffffffffffffffffffffffffffffff160217905550808273ffffffffffffffffffffffffffffffffffffffff1661170483610bd5565b73ffffffffffffffffffffffffffffffffffffffff167f8c5be1e5ebec7d5bd14f71427d1e84f3dd0314c0f7b2291e5b200ac8c7c3b92560405160405180910390a45050565b60008061175683610bd5565b90508073ffffffffffffffffffffffffffffffffffffffff168473ffffffffffffffffffffffffffffffffffffffff16148061179857506117978185611530565b5b806117d657508373ffffffffffffffffffffffffffffffffffffffff166117be84610640565b73ffffffffffffffffffffffffffffffffffffffff16145b91505092915050565b8273ffffffffffffffffffffffffffffffffffffffff166117ff82610bd5565b73ffffffffffffffffffffffffffffffffffffffff1614611855576040517f08c379a000000000000000000000000000000000000000000000000000000000815260040161184c90613daf565b60405180910390fd5b600073ffffffffffffffffffffffffffffffffffffffff168273ffffffffffffffffffffffffffffffffffffffff16036118c4576040517f08c379a00000000000000000000000000000000000000000000000000000000081526004016118bb90613e41565b60405180910390fd5b6118d183838360016120bb565b8273ffffffffffffffffffffffffffffffffffffffff166118f182610bd5565b73ffffffffffffffffffffffffffffffffffffffff1614611947576040517f08c379a000000000000000000000000000000000000000000000000000000000815260040161193e90613daf565b60405180910390fd5b6004600082815260200190815260200160002060006101000a81549073ffffffffffffffffffffffffffffffffffffffff02191690556001600360008573ffffffffffffffffffffffffffffffffffffffff1673ffffffffffffffffffffffffffffffffffffffff168152602001908152602001600020600082825403925050819055506001600360008473ffffffffffffffffffffffffffffffffffffffff1673ffffffffffffffffffffffffffffffffffffffff16815260200190815260200160002060008282540192505081905550816002600083815260200190815260200160002060006101000a81548173ffffffffffffffffffffffffffffffffffffffff021916908373ffffffffffffffffffffffffffffffffffffffff160217905550808273ffffffffffffffffffffffffffffffffffffffff168473ffffffffffffffffffffffffffffffffffffffff167fddf252ad1be2c89b69c2b068fc378daa952ba7f163c4a11628f55a4df523b3ef60405160405180910390a4611ad383838360016120c1565b505050565b611ae981611ae4611689565b6120c7565b50565b611af68282610d12565b611bc95760016007600084815260200190815260200160002060000160008373ffffffffffffffffffffffffffffffffffffffff1673ffffffffffffffffffffffffffffffffffffffff16815260200190815260200160002060006101000a81548160ff021916908315150217905550611b6e611689565b73ffffffffffffffffffffffffffffffffffffffff168173ffffffffffffffffffffffffffffffffffffffff16837f2f8788117e7eff1d82e926ec794901d17c78024a50270940304540a733656f0d60405160405180910390a45b5050565b611bd78282610d12565b15611cab5760006007600084815260200190815260200160002060000160008373ffffffffffffffffffffffffffffffffffffffff1673ffffffffffffffffffffffffffffffffffffffff16815260200190815260200160002060006101000a81548160ff021916908315150217905550611c50611689565b73ffffffffffffffffffffffffffffffffffffffff168173ffffffffffffffffffffffffffffffffffffffff16837ff6391f5c32d9c69d2a47ea670b442974b53935d1edc7fd64eb21e047a839171b60405160405180910390a45b5050565b60008073ffffffffffffffffffffffffffffffffffffffff16611cd183611cf0565b73ffffffffffffffffffffffffffffffffffffffff1614159050919050565b60006002600083815260200190815260200160002060009054906101000a900473ffffffffffffffffffffffffffffffffffffffff169050919050565b6001816000016000828254019250508190555050565b600081600001549050919050565b611d6b82826040518060200160405280600081525061214c565b5050565b611d7882611caf565b611db7576040517f08c379a0000000000000000000000000000000000000000000000000000000008152600401611dae90613ed3565b60405180910390fd5b80600660008481526020019081526020016000209081611dd79190613b1b565b507ff8e1a15aba9398e019f0b49df1a4fde98ee17ae345cb5f6b5e2c27f5033e8ce782604051611e079190612fa6565b60405180910390a15050565b8173ffffffffffffffffffffffffffffffffffffffff168373ffffffffffffffffffffffffffffffffffffffff1603611e81576040517f08c379a0000000000000000000000000000000000000000000000000000000008152600401611e7890613f3f565b60405180910390fd5b80600560008573ffffffffffffffffffffffffffffffffffffffff1673ffffffffffffffffffffffffffffffffffffffff16815260200190815260200160002060008473ffffffffffffffffffffffffffffffffffffffff1673ffffffffffffffffffffffffffffffffffffffff16815260200190815260200160002060006101000a81548160ff0219169083151502179055508173ffffffffffffffffffffffffffffffffffffffff168373ffffffffffffffffffffffffffffffffffffffff167f17307eab39ab6107e8899845ad3d59bd9653f200f220920489ca2b5937696c3183604051611f729190612bf8565b60405180910390a3505050565b611f8a8484846117df565b611f96848484846121a7565b611fd5576040517f08c379a0000000000000000000000000000000000000000000000000000000008152600401611fcc90613fd1565b60405180910390fd5b50505050565b606060405180602001604052806000815250905090565b6060611ffd8261163e565b6000612007611fdb565b905060008151116120275760405180602001604052806000815250612052565b806120318461232e565b604051602001612042929190613d19565b6040516020818303038152906040525b915050919050565b6000634906490660e01b7bffffffffffffffffffffffffffffffffffffffffffffffffffffffff1916827bffffffffffffffffffffffffffffffffffffffffffffffffffffffff191614806120b457506120b3826123fc565b5b9050919050565b50505050565b50505050565b6120d18282610d12565b612148576120de816124de565b6120ec8360001c602061250b565b6040516020016120fd929190614089565b6040516020818303038152906040526040517f08c379a000000000000000000000000000000000000000000000000000000000815260040161213f9190612ca3565b60405180910390fd5b5050565b6121568383612747565b61216360008484846121a7565b6121a2576040517f08c379a000000000000000000000000000000000000000000000000000000000815260040161219990613fd1565b60405180910390fd5b505050565b60006121c88473ffffffffffffffffffffffffffffffffffffffff16612964565b15612321578373ffffffffffffffffffffffffffffffffffffffff1663150b7a026121f1611689565b8786866040518563ffffffff1660e01b81526004016122139493929190614118565b6020604051808303816000875af192505050801561224f57506040513d601f19601f8201168201806040525081019061224c9190614179565b60015b6122d1573d806000811461227f576040519150601f19603f3d011682016040523d82523d6000602084013e612284565b606091505b5060008151036122c9576040517f08c379a00000000000000000000000000000000000000000000000000000000081526004016122c090613fd1565b60405180910390fd5b805181602001fd5b63150b7a0260e01b7bffffffffffffffffffffffffffffffffffffffffffffffffffffffff1916817bffffffffffffffffffffffffffffffffffffffffffffffffffffffff191614915050612326565b600190505b949350505050565b60606000600161233d84612987565b01905060008167ffffffffffffffff81111561235c5761235b613153565b5b6040519080825280601f01601f19166020018201604052801561238e5781602001600182028036833780820191505090505b509050600082602001820190505b6001156123f1578080600190039150507f3031323334353637383961626364656600000000000000000000000000000000600a86061a8153600a85816123e5576123e46141a6565b5b0494506000850361239c575b819350505050919050565b60007f80ac58cd000000000000000000000000000000000000000000000000000000007bffffffffffffffffffffffffffffffffffffffffffffffffffffffff1916827bffffffffffffffffffffffffffffffffffffffffffffffffffffffff191614806124c757507f5b5e139f000000000000000000000000000000000000000000000000000000007bffffffffffffffffffffffffffffffffffffffffffffffffffffffff1916827bffffffffffffffffffffffffffffffffffffffffffffffffffffffff1916145b806124d757506124d682612ada565b5b9050919050565b60606125048273ffffffffffffffffffffffffffffffffffffffff16601460ff1661250b565b9050919050565b60606000600283600261251e9190614204565b6125289190614246565b67ffffffffffffffff81111561254157612540613153565b5b6040519080825280601f01601f1916602001820160405280156125735781602001600182028036833780820191505090505b5090507f3000000000000000000000000000000000000000000000000000000000000000816000815181106125ab576125aa61427a565b5b60200101907effffffffffffffffffffffffffffffffffffffffffffffffffffffffffffff1916908160001a9053507f78000000000000000000000000000000000000000000000000000000000000008160018151811061260f5761260e61427a565b5b60200101907effffffffffffffffffffffffffffffffffffffffffffffffffffffffffffff1916908160001a9053506000600184600261264f9190614204565b6126599190614246565b90505b60018111156126f9577f3031323334353637383961626364656600000000000000000000000000000000600f86166010811061269b5761269a61427a565b5b1a60f81b8282815181106126b2576126b161427a565b5b60200101907effffffffffffffffffffffffffffffffffffffffffffffffffffffffffffff1916908160001a905350600485901c9450806126f2906142a9565b905061265c565b506000841461273d576040517f08c379a00000000000000000000000000000000000000000000000000000000081526004016127349061431e565b60405180910390fd5b8091505092915050565b600073ffffffffffffffffffffffffffffffffffffffff168273ffffffffffffffffffffffffffffffffffffffff16036127b6576040517f08c379a00000000000000000000000000000000000000000000000000000000081526004016127ad9061438a565b60405180910390fd5b6127bf81611caf565b156127ff576040517f08c379a00000000000000000000000000000000000000000000000000000000081526004016127f6906143f6565b60405180910390fd5b61280d6000838360016120bb565b61281681611caf565b15612856576040517f08c379a000000000000000000000000000000000000000000000000000000000815260040161284d906143f6565b60405180910390fd5b6001600360008473ffffffffffffffffffffffffffffffffffffffff1673ffffffffffffffffffffffffffffffffffffffff16815260200190815260200160002060008282540192505081905550816002600083815260200190815260200160002060006101000a81548173ffffffffffffffffffffffffffffffffffffffff021916908373ffffffffffffffffffffffffffffffffffffffff160217905550808273ffffffffffffffffffffffffffffffffffffffff16600073ffffffffffffffffffffffffffffffffffffffff167fddf252ad1be2c89b69c2b068fc378daa952ba7f163c4a11628f55a4df523b3ef60405160405180910390a46129606000838360016120c1565b5050565b6000808273ffffffffffffffffffffffffffffffffffffffff163b119050919050565b600080600090507a184f03e93ff9f4daa797ed6e38ed64bf6a1f01000000000000000083106129e5577a184f03e93ff9f4daa797ed6e38ed64bf6a1f01000000000000000083816129db576129da6141a6565b5b0492506040810190505b6d04ee2d6d415b85acef81000000008310612a22576d04ee2d6d415b85acef81000000008381612a1857612a176141a6565b5b0492506020810190505b662386f26fc100008310612a5157662386f26fc100008381612a4757612a466141a6565b5b0492506010810190505b6305f5e1008310612a7a576305f5e1008381612a7057612a6f6141a6565b5b0492506008810190505b6127108310612a9f576127108381612a9557612a946141a6565b5b0492506004810190505b60648310612ac25760648381612ab857612ab76141a6565b5b0492506002810190505b600a8310612ad1576001810190505b80915050919050565b60007f01ffc9a7000000000000000000000000000000000000000000000000000000007bffffffffffffffffffffffffffffffffffffffffffffffffffffffff1916827bffffffffffffffffffffffffffffffffffffffffffffffffffffffff1916149050919050565b6000604051905090565b600080fd5b600080fd5b60007fffffffff0000000000000000000000000000000000000000000000000000000082169050919050565b612b8d81612b58565b8114612b9857600080fd5b50565b600081359050612baa81612b84565b92915050565b600060208284031215612bc657612bc5612b4e565b5b6000612bd484828501612b9b565b91505092915050565b60008115159050919050565b612bf281612bdd565b82525050565b6000602082019050612c0d6000830184612be9565b92915050565b600081519050919050565b600082825260208201905092915050565b60005b83811015612c4d578082015181840152602081019050612c32565b60008484015250505050565b6000601f19601f8301169050919050565b6000612c7582612c13565b612c7f8185612c1e565b9350612c8f818560208601612c2f565b612c9881612c59565b840191505092915050565b60006020820190508181036000830152612cbd8184612c6a565b905092915050565b6000819050919050565b612cd881612cc5565b82525050565b6000602082019050612cf36000830184612ccf565b92915050565b6000819050919050565b612d0c81612cf9565b8114612d1757600080fd5b50565b600081359050612d2981612d03565b92915050565b600060208284031215612d4557612d44612b4e565b5b6000612d5384828501612d1a565b91505092915050565b600073ffffffffffffffffffffffffffffffffffffffff82169050919050565b6000612d8782612d5c565b9050919050565b612d9781612d7c565b82525050565b6000602082019050612db26000830184612d8e565b92915050565b612dc181612d7c565b8114612dcc57600080fd5b50565b600081359050612dde81612db8565b92915050565b60008060408385031215612dfb57612dfa612b4e565b5b6000612e0985828601612dcf565b9250506020612e1a85828601612d1a565b9150509250929050565b600080600060608486031215612e3d57612e3c612b4e565b5b6000612e4b86828701612dcf565b9350506020612e5c86828701612dcf565b9250506040612e6d86828701612d1a565b9150509250925092565b612e8081612cc5565b8114612e8b57600080fd5b50565b600081359050612e9d81612e77565b92915050565b600060208284031215612eb957612eb8612b4e565b5b6000612ec784828501612e8e565b91505092915050565b60008060408385031215612ee757612ee6612b4e565b5b6000612ef585828601612e8e565b9250506020612f0685828601612dcf565b9150509250929050565b612f1981612cf9565b82525050565b600060a082019050612f346000830188612f10565b612f416020830187612f10565b8181036040830152612f538186612c6a565b9050612f626060830185612be9565b612f6f6080830184612d8e565b9695505050505050565b600060208284031215612f8f57612f8e612b4e565b5b6000612f9d84828501612dcf565b91505092915050565b6000602082019050612fbb6000830184612f10565b92915050565b600080fd5b600080fd5b600080fd5b60008083601f840112612fe657612fe5612fc1565b5b8235905067ffffffffffffffff81111561300357613002612fc6565b5b60208301915083600182028301111561301f5761301e612fcb565b5b9250929050565b600080600080600080600060a0888a03121561304557613044612b4e565b5b60006130538a828b01612dcf565b97505060206130648a828b01612d1a565b96505060406130758a828b01612d1a565b955050606088013567ffffffffffffffff81111561309657613095612b53565b5b6130a28a828b01612fd0565b9450945050608088013567ffffffffffffffff8111156130c5576130c4612b53565b5b6130d18a828b01612fd0565b925092505092959891949750929550565b6130eb81612bdd565b81146130f657600080fd5b50565b600081359050613108816130e2565b92915050565b6000806040838503121561312557613124612b4e565b5b600061313385828601612dcf565b9250506020613144858286016130f9565b9150509250929050565b600080fd5b7f4e487b7100000000000000000000000000000000000000000000000000000000600052604160045260246000fd5b61318b82612c59565b810181811067ffffffffffffffff821117156131aa576131a9613153565b5b80604052505050565b60006131bd612b44565b90506131c98282613182565b919050565b600067ffffffffffffffff8211156131e9576131e8613153565b5b6131f282612c59565b9050602081019050919050565b82818337600083830152505050565b600061322161321c846131ce565b6131b3565b90508281526020810184848401111561323d5761323c61314e565b5b6132488482856131ff565b509392505050565b600082601f83011261326557613264612fc1565b5b813561327584826020860161320e565b91505092915050565b6000806000806080858703121561329857613297612b4e565b5b60006132a687828801612dcf565b94505060206132b787828801612dcf565b93505060406132c887828801612d1a565b925050606085013567ffffffffffffffff8111156132e9576132e8612b53565b5b6132f587828801613250565b91505092959194509250565b6000806040838503121561331857613317612b4e565b5b600061332685828601612dcf565b925050602061333785828601612dcf565b9150509250929050565b7f4e487b7100000000000000000000000000000000000000000000000000000000600052602260045260246000fd5b6000600282049050600182168061338857607f821691505b60208210810361339b5761339a613341565b5b50919050565b7f4552433732313a20617070726f76616c20746f2063757272656e74206f776e6560008201527f7200000000000000000000000000000000000000000000000000000000000000602082015250565b60006133fd602183612c1e565b9150613408826133a1565b604082019050919050565b6000602082019050818103600083015261342c816133f0565b9050919050565b7f4552433732313a20617070726f76652063616c6c6572206973206e6f7420746f60008201527f6b656e206f776e6572206f7220617070726f76656420666f7220616c6c000000602082015250565b600061348f603d83612c1e565b915061349a82613433565b604082019050919050565b600060208201905081810360008301526134be81613482565b9050919050565b7f4552433732313a2063616c6c6572206973206e6f7420746f6b656e206f776e6560008201527f72206f7220617070726f76656400000000000000000000000000000000000000602082015250565b6000613521602d83612c1e565b915061352c826134c5565b604082019050919050565b6000602082019050818103600083015261355081613514565b9050919050565b7f416363657373436f6e74726f6c3a2063616e206f6e6c792072656e6f756e636560008201527f20726f6c657320666f722073656c660000000000000000000000000000000000602082015250565b60006135b3602f83612c1e565b91506135be82613557565b604082019050919050565b600060208201905081810360008301526135e2816135a6565b9050919050565b7f6e6f742065786973740000000000000000000000000000000000000000000000600082015250565b600061361f600983612c1e565b915061362a826135e9565b602082019050919050565b6000602082019050818103600083015261364e81613612565b9050919050565b7f746f6b656e206e6f742065786973747300000000000000000000000000000000600082015250565b600061368b601083612c1e565b915061369682613655565b602082019050919050565b600060208201905081810360008301526136ba8161367e565b9050919050565b7f616c726561647920766572696669656400000000000000000000000000000000600082015250565b60006136f7601083612c1e565b9150613702826136c1565b602082019050919050565b60006020820190508181036000830152613726816136ea565b9050919050565b7f4552433732313a20696e76616c696420746f6b656e2049440000000000000000600082015250565b6000613763601883612c1e565b915061376e8261372d565b602082019050919050565b6000602082019050818103600083015261379281613756565b9050919050565b7f4552433732313a2061646472657373207a65726f206973206e6f74206120766160008201527f6c6964206f776e65720000000000000000000000000000000000000000000000602082015250565b60006137f5602983612c1e565b915061380082613799565b604082019050919050565b60006020820190508181036000830152613824816137e8565b9050919050565b7f696e76616c696420746f00000000000000000000000000000000000000000000600082015250565b6000613861600a83612c1e565b915061386c8261382b565b602082019050919050565b6000602082019050818103600083015261389081613854565b9050919050565b7f616d6f756e743e30000000000000000000000000000000000000000000000000600082015250565b60006138cd600883612c1e565b91506138d882613897565b602082019050919050565b600060208201905081810360008301526138fc816138c0565b9050919050565b7f64756544617465206d7573742062652066757475726500000000000000000000600082015250565b6000613939601683612c1e565b915061394482613903565b602082019050919050565b600060208201905081810360008301526139688161392c565b9050919050565b60008190508160005260206000209050919050565b60006020601f8301049050919050565b600082821b905092915050565b6000600883026139d17fffffffffffffffffffffffffffffffffffffffffffffffffffffffffffffffff82613994565b6139db8683613994565b95508019841693508086168417925050509392505050565b6000819050919050565b6000613a18613a13613a0e84612cf9565b6139f3565b612cf9565b9050919050565b6000819050919050565b613a32836139fd565b613a46613a3e82613a1f565b8484546139a1565b825550505050565b600090565b613a5b613a4e565b613a66818484613a29565b505050565b5b81811015613a8a57613a7f600082613a53565b600181019050613a6c565b5050565b601f821115613acf57613aa08161396f565b613aa984613984565b81016020851015613ab8578190505b613acc613ac485613984565b830182613a6b565b50505b505050565b600082821c905092915050565b6000613af260001984600802613ad4565b1980831691505092915050565b6000613b0b8383613ae1565b9150826002028217905092915050565b613b2482612c13565b67ffffffffffffffff811115613b3d57613b3c613153565b5b613b478254613370565b613b52828285613a8e565b600060209050601f831160018114613b855760008415613b73578287015190505b613b7d8582613aff565b865550613be5565b601f198416613b938661396f565b60005b82811015613bbb57848901518255600182019150602085019450602081019050613b96565b86831015613bd85784890151613bd4601f891682613ae1565b8355505b6001600288020188555050505b505050505050565b6000613bf98385612c1e565b9350613c068385846131ff565b613c0f83612c59565b840190509392505050565b6000608082019050613c2f6000830189612f10565b613c3c6020830188612f10565b8181036040830152613c4f818688613bed565b90508181036060830152613c64818486613bed565b9050979650505050505050565b7f61646d696e206f6e6c7900000000000000000000000000000000000000000000600082015250565b6000613ca7600a83612c1e565b9150613cb282613c71565b602082019050919050565b60006020820190508181036000830152613cd681613c9a565b9050919050565b600081905092915050565b6000613cf382612c13565b613cfd8185613cdd565b9350613d0d818560208601612c2f565b80840191505092915050565b6000613d258285613ce8565b9150613d318284613ce8565b91508190509392505050565b7f4552433732313a207472616e736665722066726f6d20696e636f72726563742060008201527f6f776e6572000000000000000000000000000000000000000000000000000000602082015250565b6000613d99602583612c1e565b9150613da482613d3d565b604082019050919050565b60006020820190508181036000830152613dc881613d8c565b9050919050565b7f4552433732313a207472616e7366657220746f20746865207a65726f2061646460008201527f7265737300000000000000000000000000000000000000000000000000000000602082015250565b6000613e2b602483612c1e565b9150613e3682613dcf565b604082019050919050565b60006020820190508181036000830152613e5a81613e1e565b9050919050565b7f45524337323155524953746f726167653a2055524920736574206f66206e6f6e60008201527f6578697374656e7420746f6b656e000000000000000000000000000000000000602082015250565b6000613ebd602e83612c1e565b9150613ec882613e61565b604082019050919050565b60006020820190508181036000830152613eec81613eb0565b9050919050565b7f4552433732313a20617070726f766520746f2063616c6c657200000000000000600082015250565b6000613f29601983612c1e565b9150613f3482613ef3565b602082019050919050565b60006020820190508181036000830152613f5881613f1c565b9050919050565b7f4552433732313a207472616e7366657220746f206e6f6e20455243373231526560008201527f63656976657220696d706c656d656e7465720000000000000000000000000000602082015250565b6000613fbb603283612c1e565b9150613fc682613f5f565b604082019050919050565b60006020820190508181036000830152613fea81613fae565b9050919050565b7f416363657373436f6e74726f6c3a206163636f756e7420000000000000000000600082015250565b6000614027601783613cdd565b915061403282613ff1565b601782019050919050565b7f206973206d697373696e6720726f6c6520000000000000000000000000000000600082015250565b6000614073601183613cdd565b915061407e8261403d565b601182019050919050565b60006140948261401a565b91506140a08285613ce8565b91506140ab82614066565b91506140b78284613ce8565b91508190509392505050565b600081519050919050565b600082825260208201905092915050565b60006140ea826140c3565b6140f481856140ce565b9350614104818560208601612c2f565b61410d81612c59565b840191505092915050565b600060808201905061412d6000830187612d8e565b61413a6020830186612d8e565b6141476040830185612f10565b818103606083015261415981846140df565b905095945050505050565b60008151905061417381612b84565b92915050565b60006020828403121561418f5761418e612b4e565b5b600061419d84828501614164565b91505092915050565b7f4e487b7100000000000000000000000000000000000000000000000000000000600052601260045260246000fd5b7f4e487b7100000000000000000000000000000000000000000000000000000000600052601160045260246000fd5b600061420f82612cf9565b915061421a83612cf9565b925082820261422881612cf9565b9150828204841483151761423f5761423e6141d5565b5b5092915050565b600061425182612cf9565b915061425c83612cf9565b9250828201905080821115614274576142736141d5565b5b92915050565b7f4e487b7100000000000000000000000000000000000000000000000000000000600052603260045260246000fd5b60006142b482612cf9565b9150600082036142c7576142c66141d5565b5b600182039050919050565b7f537472696e67733a20686578206c656e67746820696e73756666696369656e74600082015250565b6000614308602083612c1e565b9150614313826142d2565b602082019050919050565b60006020820190508181036000830152614337816142fb565b9050919050565b7f4552433732313a206d696e7420746f20746865207a65726f2061646472657373600082015250565b6000614374602083612c1e565b915061437f8261433e565b602082019050919050565b600060208201905081810360008301526143a381614367565b9050919050565b7f4552433732313a20746f6b656e20616c7265616479206d696e74656400000000600082015250565b60006143e0601c83612c1e565b91506143eb826143aa565b602082019050919050565b6000602082019050818103600083015261440f816143d3565b905091905056fea264697066735822122035ba8403717cbe7667f39655f8a7ac80ac5b2a777c7bea90033f79288eb9265464736f6c63430008130033",
  "linkReferences": {},
  "deployedLinkReferences": {}
}